:020000022000DC
:1060000000000120A9A90300E9A90300EBA90300EE
:10601000EDA90300EFA90300F1A9030000000000AF
:1060200000000000000000000000000025A903009F
:10603000F5A903000000000045A90300F9A9030029
:10604000FBA90300FBA903007D8103003D130300AE
:10605000FBA90300FBA90300D1840300AD8102006A
:10606000FBA90300FBA90300FBA90300FBA9030094
:10607000FBA90300FBA90300FBA90300FBA9030084
:10608000FBA903007DA60300FBA90300FBA90300F5
:10609000FBA90300FBA90300FBA90300FBA9030064
:1060A000FBA90300FBA90300FBA90300FBA9030054
:1060B00055700300FBA90300000000000000000071
:1060C000FBA90300FBA90300FBA90300FBA9030034
:1060D000FBA90300FBA90300FBA9030000000000CB
:1060E00000000000000000000000000000000000B0
:1060F00000000000000000000000000000000000A0
:10610000000000000000000000000000000000008F
:10611000000000000000000000000000000000007F
:10612000000000000000000000000000000000006F
:10613000000000000000000000000000000000005F
:10614000000000000000000000000000000000004F
:10615000000000000000000000000000000000003F
:10616000000000000000000000000000000000002F
:10617000000000000000000000000000000000001F
:10618000000000000000000000000000000000000F
:1061900000000000000000000000000000000000FF
:1061A00000000000000000000000000000000000EF
:1061B00000000000000000000000000000000000DF
:1061C00000000000000000000000000000000000CF
:1061D00000000000000000000000000000000000BF
:1061E00000000000000000000000000000000000AF
:1061F000000000000000000000000000000000009F
:10620000F1EE103A43F08073E1EE103A704700BFB0
:1062100010B5054C237833B9044B13B10448AFF3E0
:1062200000800123237010BDF03800200000000022
:10623000C4AB040008B5034B1BB103490348AFF3DB
:10624000008008BD00000000F4380020C4AB04004A
:10625000154B002B08BF134B9D46A3F5803A002138
:106260008B460F461348144A121A15F009FE0F4BBD
:10627000002B00D098470E4B002B00D098470020F1
:10628000002104000D000D48002802D00C4810F039
:10629000D3FE15F08BFD2000290014F0D9FB15F07A
:1062A0005FFD00BF000008000000012000000000AA
:1062B00000000000F038002004A000203970030026
:1062C0000000000030B5284AC0F82421044640F6FA
:1062D000FF7500204FF4EE42A060A4F8AC20E5600A
:1062E000012240F2DC5583B00131C4F8F85084F843
:1062F0001421A4F82A2104F14005082284F8300072
:10630000C4E90000C4F80001C4E92C00C4F8040189
:10631000C4E93400C4F80801C4E93600C4E938000F
:10632000C4E93A00A4F81C11C4F8A40084F8A80039
:1063300084F8AE00C4F8FC0084F82901C4F82C01EC
:1063400084F80C01094BC4F8100184F8281104F1F9
:106350003400CDE900520D2110F09AFE2046C4F819
:10636000184103B030BD00BF6DDB363C0436002061
:10637000C0F82C11704700BFD0F82C01704700BF47
:10638000D0F8A430D0F82C21D0ED497A9B1A00EE39
:10639000103AB8EEC00A20EE270A7047D0F808314C
:1063A000D0F82C2193420BDDD0F80831D0ED497A9A
:1063B0009B1A00EE103AB8EEC00A20EE270A70478A
:1063C0009FED010A704700BF00000000D0F8A40054
:1063D000704700BF034AC0F82421012380F82A3106
:1063E000704700BF0000703E90F82A01704700BF60
:1063F000002240F6FF738260C0F80821C360C0F835
:106400001031704730B4DDE90245C160C0E905458F
:10641000C26130BC03617047416480F84820704716
:10642000416480F84820C364704700BF406A7047E9
:10643000806A7047C26A406B101A7047F8B590F8CE
:106440004830476C016204460D46002B40F0B68090
:10645000B942ACBF002701278C4E3378BB4203D032
:1064600012F090F8377020636378693B0E2B38D8B0
:10647000DFE803F07C37373737373737377237384D
:1064800037370800A3786268043354F8233043F8A0
:1064900022506368A26901339342636005D1A178F9
:1064A000002381F00101A1706360D7B178496920B0
:1064B0006070C9681344C901A360636204D5754B59
:1064C0001A68D20700F1D98013F066FA724BA0FB6C
:1064D0000301830A43EA81536363E36212F052F8D3
:1064E000A063F8BD002F78D1A368E16841F823507C
:1064F000A368E26901339342A360F2DB644B642238
:106500006270DB68D80104D5624B1A68D20700F1CB
:10651000BA8013F041FA604EE168A0FB0667B30A47
:1065200043EA8750A378A269206483F0010304330F
:106530000846920054F8231015F07AFCA378E1681D
:10654000A0696268043301EB8000920054F82310C4
:10655000BDE8F84015F06CBC002F3BD1236D013332
:106560000A2B2365BDDD77236370F8BDD4E90213E0
:10657000474A43F82150D268A368D10103F10103CF
:10658000A36020D413F008FA434BA0FB0301830A55
:1065900043EA8153626BE16C9B1A8B42A1D9002FB5
:1065A0002FD03B4B74226270DB68DF0153D5394B2F
:1065B0001A68D6074FD55B689B0954E0B942D4BF2F
:1065C0000027012748E7334B1A68D207DAD55B6802
:1065D0009B09DFE700232365F8BD2D4BDB68DF0156
:1065E00003D52C4B1A68D6074AD413F0D5F92A4B99
:1065F000A0FB0301820A42EA8152A368C4E90A327D
:1066000073E7234BDB68DD0130D413F0C5F9224E6C
:10661000626BE16CA0FB0667B30A43EA875302EBA7
:1066200041029A42BFF45DAFE369002B0ADDE268E4
:106630000023043A42F20F7042F8040FE16901337B
:106640009942F9DC00237222A3706270A360636038
:1066500023656363F8BD13F09FF90F4BA0FB0301A3
:10666000830A43EA8153E363E362F8BD094B186888
:10667000C007CAD55B689B09D1E75B689B092BE71C
:106680005A689209B9E7586880094BE70C3900202D
:10669000F0ED00E0001000E040420F004078A0F173
:1066A0006400B0FA80F04009704700BFC369002B56
:1066B00010B40ADDC2680023043A42F20F7442F8B3
:1066C000044FC16901339942F9DC002372225DF85D
:1066D000044B83608370436003654363427070477B
:1066E000406970474FF44870704700BF08B511F01B
:1066F00049FF064A1368C31A032B05DD044B1060DB
:10670000012283F82020586008BD00BFD47000200B
:106710003082002008B511F035FF064A1368C31A0D
:106720000F2B05DD044B1060012283F82020186137
:1067300008BD00BFD8700020308200202DE9F0474E
:106740002F4E3048DFF8DC902F4FA8B064220FA9FD
:106750000BF0F8F92D49304611F0B4F89DF83C10D3
:106760000A22304611F0D8F92949304611F0F8F8DC
:106770009DF83C8001250024092C2CD00A2C33D113
:10678000BA46A0452ADD6B1C28AA13442A4413F8F4
:10679000643C12F8641C43EA0123B3F57A7F05F1E7
:1067A000020527DA194650460193FFF7E1FD019BE8
:1067B00018490AF58F7202A816F02CFA013402A9C2
:1067C000304611F0CDF80B2CD6D10E480BF014FA50
:1067D00028B0BDE8F087A045CA46D4DC0E49304653
:1067E00011F0BEF80023DDE70C4A4FF4987A0AFB5B
:1067F000042AC6E70A49304611F0B2F80023D1E76F
:1068000010950020B8720020146700200CF10300DE
:10681000E8F3030074F1030024F10300345B00206B
:106820004CF10300E4650020384B1A6802B9704748
:1068300010B53749374A91F900400021196082B0FC
:106840001B680193019BD368D90146D413F0A4F8C7
:10685000314BA0FB0301830A43EA81532F49304A9D
:106860000B800023BFF35B8F52E8001F012903D187
:1068700042E800300028F7D1BFF35B8F294A1F2C74
:10688000C2F800333CDD284B9A686ABB002C0DDB54
:10689000630926492033012204F01F0402FA04F49C
:1068A00041F82340BFF34F8FBFF36F8F1D4B002282
:1068B000C3F8002500BF00BF00BF00BF1C4BBFF3E3
:1068C0005B8F53E8002F22F0010243E800210029EA
:1068D000F7D1BFF35B8F02B010BD164B1A68D20719
:1068E000B4D55B689B09B9E7610904F01F0053F850
:1068F00021200124844022EA040443F82140D5E702
:106900000D4BE340DB07D1D5BDE700BF04C101401B
:106910002C540020F0ED00E040420F001C39002014
:106920002039002000C00140E89F002000E100E085
:1069300030540020001000E0FC06FFBD2DE9F04FB0
:10694000012389B0BB48BFF35B8F50E8002F002ABA
:1069500003D140E80034002CF7D1BFF35B8FF1D1B5
:106960004B68B54A1B010026B3F5586F168000F23C
:106970005B81D1F808C0BCF1000F40F355810F686E
:10698000AE4B48F2040248F20E001DE14C7BCD7C78
:106990004444FF2C28BFFF2405FB044414F4004F9B
:1069A0000CBF1546054623F8305CC4F3072514F4E4
:1069B000804F05F0200A05F0100905F0080414BF07
:1069C00048F20E0B48F2040B05F0040EBAF1000F6A
:1069D00014BF82469246B9F1000F14BF814691461A
:1069E000002C14BF0446144605F0020823F82CAC12
:1069F00005F0010523F82A9C23F8284C23F82EBC27
:106A0000BEF1000F14BF86469646B8F1000F14BFC2
:106A100004461446002D0CBF1546054623F8244CA9
:106A200023F8225C23F826EC97F80080B8F1000FD9
:106A300000F0EC800C7B8D7C4444FF2C28BFFF24AD
:106A400005FB044414F4004F0CBF1546054623F81B
:106A5000205CC4F3072514F4804F05F0200A05F0EC
:106A6000100905F0080414BF48F20E0B48F2040B9D
:106A700005F0040EBAF1000F14BF82469246B9F138
:106A8000000F14BF81469146002C14BF04461446E3
:106A900005F0020823F81CAC05F0010523F81A9C48
:106AA00023F8184C23F81EBCBEF1000F14BF864615
:106AB0009646B8F1000F14BF04461446002D0CBFD3
:106AC0001546054623F8144C23F8125C23F816ECFF
:106AD000BC78002C00F08C808D7B91F814E02C4465
:106AE000FF2C28BFFF240EFB044515F4004F0CBFFC
:106AF0001446044623F8104CC5F3072415F4804FC0
:106B000004F0200A04F0100904F0080814BF48F249
:106B10000E0B48F2040B04F00405BAF1000F14BF89
:106B200082469246B9F1000F14BF81469146B8F1F2
:106B3000000F14BF8046904604F0020E23F80CAC00
:106B400004F0010423F80A9C23F8088C23F80EBCF7
:106B5000002D14BF05461546BEF1000F14BF864632
:106B60009646002C0CBF1446044623F804EC23F888
:106B7000024C23F8065C4C7C91F80E8091F80CA036
:106B800091F80D9091F915B091F80FE00D7CA4EB00
:106B900008081836284C81F80E80B6B20CF1FF3C7C
:106BA0005F44AEEB0A0EA5EB09052680C1F808C0CC
:106BB0000F6081F80CE04D73BCF1000F34D0B6F5D6
:106BC000586F03F130032FD097F80180B8F1000F10
:106BD0007FF4DCAE23F8302C23F82E2C23F82C2C59
:106BE00023F82A2C23F8282C454648F2040E0CE7FB
:106BF00023F8102C23F80E2C23F80C2C23F80A2C45
:106C000023F8082CA64648F20405A5E723F8202C13
:106C100023F81E2C23F81C2C23F81A2C23F8182CEC
:106C2000454648F2040E44E7054D064C064E074F14
:106C300018E000BF203900202439002058390020F6
:106C40001C390020F0ED00E040420F00001000E091
:106C50003B68D80709D57B682A889B099B1A9BB299
:106C6000092B0ED8E368DB01F2D412F095FEA0FBED
:106C700006012A88830A43EA81539B1A9BB2092B97
:106C8000F0D9604ABFF35B8F52E8003F43F0010147
:106C900042E800100028F7D1BFF35B8F13F0010327
:106CA000F0D1594A59491160594ABFF35B8F52E8F4
:106CB000001F41F0010142E800100028F7D1BFF3A6
:106CC0005B8F4FF0A04140F20334C1F86447514A52
:106CD00051484FF00074C1F80C454FF0FF311924B2
:106CE000C2F86045C2F864150124C2F86815C2F8FC
:106CF0006C151421C2F80045C2F80C35C2F80435F1
:106D0000C2F80815C2F81035C2F80032C2F80033D4
:106D1000036000684149079007980B600868069077
:106D200006984B604868059005988B6088680490C9
:106D30000498CB60C868039003980B6108690290BF
:106D400002984B611431364C096801913549364837
:106D50000988019DC2F82005C2F82415C2F828351B
:106D6000C2F82C35C2F84005C2F84415C2F84835BF
:106D7000C2F84C35C2F8143594F900301F2B32DDBF
:106D800003F1604202F56142402182F8001392F85B
:106D900000235109EC220A41D2070CD5234A9168FD
:106DA000B1B1590903F01F0452F821000123A34097
:106DB000034342F82130174B1D4A1324B22001210E
:106DC000C3F80042C3F80003116009B0BDE8F08FBA
:106DD000002BF0DB174903F01F0001225B09824002
:106DE00041F82320E7E7144ADA40D107E3D5002B26
:106DF000C6DA124A03F00F010A4440211176127ECE
:106E00005109C7E7305400202854002029680200A7
:106E10002039002000C0014004C1014008C10140E8
:106E20002C5400202439002028390020E89F00201D
:106E300008C0014000E100E0FC06FFBDFCEC00E002
:106E400008B54FF0A0434FF000710F4A40F20330F5
:106E5000C3F86407C3F80C15D368D90103D50B4BED
:106E60001A68D2070AD412F097FD094B094AA0FB11
:106E70000301830A43EA8153138008BD5B68054A16
:106E80009B09138008BD00BFF0ED00E0001000E09A
:106E900040420F001C3900202DE9F04F9BB0CDE996
:106EA00014220B93837CBDF82C509DF82E40ADF836
:106EB0005E50012B13918DF8604000F09282002308
:106EC0001693ADF85C300368C2499A6900238A4280
:106ED0008DF86130199340F0C7820123BE49BFF39A
:106EE0005B8F51E8002F002A03D141E800300028D1
:106EF000F7D1BFF35B8FF1D1149BB84A1B0100247B
:106F0000B3F5586F148000F26081159F002F40F395
:106F10005C819DF9613007939DF85B3008939DF883
:106F20005C309DF85F009DF85E109DF8602009932D
:106F30009DF85D300A939DF85830019301319DF81A
:106F40005A3002930132013005910692139E9DF84A
:106F50005950A34B049048F2040248F20E010397E3
:106F600021E12844FF28049F28BFFF2007FB00FCE5
:106F70001CF4004F0CBF1046084623F8300CCCF32D
:106F800007201CF4804F00F0200A00F0100900F0E8
:106F9000080814BF48F20E0B48F2040B00F0040C72
:106FA000BAF1000F14BF8A469246B9F1000F14BF20
:106FB00089469146B8F1000F14BF8846904600F00C
:106FC000020E23F82CAC00F0010023F82A9C23F8D1
:106FD000288C23F82EBCBCF1000F14BF8C469446BD
:106FE00000280CBF10460846BEF1000F14BF8E46A5
:106FF000964623F824EC23F8220C23F826CC30788C
:10700000002800F0C681019F3844FF28059F28BF53
:10701000FF2007FB00FC1CF4004F0CBF1046084685
:1070200023F8200CCCF307201CF4804F00F0200A3A
:1070300000F0100900F0080814BF48F20E0B48F2E7
:10704000040B00F0040CBAF1000F14BF8A469246FC
:10705000B9F1000F14BF89469146B8F1000F14BF73
:107060008846904600F0020E23F81CAC00F00100A8
:1070700023F81A9C23F8188C23F81EBCBCF1000FCF
:1070800014BF8C46944600280CBF10460846BEF13B
:10709000000F14BF8E46964623F814EC23F8120C0A
:1070A00023F816CCB078002800F06581029F3844A0
:1070B000FF28069F28BFFF2007FB00FC1CF4004FA1
:1070C0000CBF1046084623F8100CCCF307201CF424
:1070D000804F00F0200A00F0100900F0080814BFEB
:1070E00048F20E0B48F2040B00F0040CBAF1000F4A
:1070F00014BF8A469246B9F1000F14BF89469146E3
:10710000B8F1000F14BF8846904600F0020E23F835
:107110000CAC00F0010023F80A9C23F8088C23F83B
:107120000EBCBCF1000F14BF8C469446089F23F898
:1071300006CCB846019FA8EB0709099F7D1B0A9F53
:10714000B846029FA8EB07085FFA89F70197079FE7
:107150003E44039F1396013F039718341F4F0028A6
:107160000CBF10460846A4B25FFA88F8CDF8088034
:107170003C8023F8020C019F03988DF85870EDB203
:10718000029F8DF85950BEF1000F14BF8E469646EF
:107190008DF85A7023F804EC1590B0B1B4F5586F1F
:1071A00003F1300311D0707800287FF4DAAE23F8B1
:1071B000302C23F82E2C23F82C2C23F82A2C23F8FF
:1071C000282C864648F2040C0AE7064E064D074C6A
:1071D000074F19E03D6902002039002024390020C2
:1071E000583900201C390020F0ED00E040420F002B
:1071F000001000E03B68D80709D57B6832889B09FE
:107200009B1A9BB2092B0ED8EB68DB01F2D412F06B
:10721000C3FBA0FB04013288830A43EA81539B1A13
:107220009BB2092BF0D9B24ABFF35B8F52E8003F03
:1072300043F0010142E800100028F7D1BFF35B8F53
:1072400013F00103F0D1AB4AAB491160AB4ABFF375
:107250005B8F52E8001F41F0010142E80010002856
:10726000F7D1BFF35B8F4FF0A04140F20334C1F878
:107270006447A34AA3484FF00074C1F80C454FF08F
:10728000FF311924C2F86045C2F864150124C2F820
:107290006815C2F86C151421C2F80045C2F80C3507
:1072A000C2F80435C2F80815C2F81035C2F8003229
:1072B000C2F800330360006893490C900C980B608F
:1072C00008680D900D984B6048680E900E988B6082
:1072D00088680F900F98CB60C868109010980B6169
:1072E0000869119011984B611431884C096812910A
:1072F000874988480988129DC2F82005C2F82415DC
:10730000C2F82835C2F82C35C2F84005C2F8441539
:10731000C2F84835C2F84C35C2F8143594F900303B
:107320001F2B44DD03F1604202F56142402182F8E7
:10733000001392F800235109EC220A41D2070DD51F
:10734000754A9168002941D0590903F01F0452F889
:1073500021000123A340034342F82130684B6F4AC8
:107360001324B2200121C3F80042C3F800031160C6
:107370001BB0BDE8F08F23F8102C23F80E2C23F857
:107380000C2C23F80A2C23F8082C864648F2040C0F
:10739000CCE623F8202C23F81E2C23F81C2C23F8F1
:1073A0001A2C23F8182C864648F2040C6BE65C4A2B
:1073B000DA40D107D2D5002BB4DA5A4A03F00F01D4
:1073C0000A4440211176127E5109B5E7002BC5DB36
:1073D000554903F01F0001225B09824041F8232038
:1073E000BCE7524A1378013303F0070313F001019D
:1073F000137016BF80214022C02213F0020F08BF75
:107400000A46590744BF42F02002D2B29DF85E10EE
:107410001032D2B269BB8DF85B108DF858109DF810
:107420005F1000293FD18DF85C108DF859109DF840
:107430006030002B51D04FF48071B1FBF3F3DBB21D
:10744000591CC9B201FB0222C2F30724121218BF51
:1074500004F1FF328DF85D108DF85A2000293FF4B9
:1074600032AD8DF85D302EE513A990471BB0BDE815
:10747000F08F4FF48073B3FBF1F3DBB2591CC9B248
:1074800001FB0224C4F3072524128DF85B1029D0D8
:107490006C1E8DF858400029C1D09DF85F108DF802
:1074A0005B300029BFD04FF48073B3FBF1F3DBB244
:1074B000591CC9B201FB0224C4F3072524128DF81C
:1074C0005C1012D06C1E8DF859400029AFD08DF899
:1074D0005C309DF86030002BADD18DF85D308DF8BB
:1074E0005A30F0E48DF85840D5E78DF85940ECE774
:1074F0003054002028540020296802002039002040
:1075000000C0014004C1014008C101402C540020CA
:107510002439002028390020E89F002008C00140BD
:10752000FC06FFBDFCEC00E000E100E018390020A3
:107530002DE9F04F9BB00B93BDF82C30847CADF857
:107540005E3082EAE273A3EBE2739DF82E5015934E
:10755000012CCDE913138DF8605000F09A820023BE
:107560001693ADF85C3000239A4219934FF0030153
:10757000B8BFFD238DF86110B8BF8DF86130036886
:10758000C04A9B69934240F0C7820123BE49BFF3C2
:107590005B8F51E8002F002A03D141E8003000281A
:1075A000F7D1BFF35B8FF1D1149BB84A1B010024C4
:1075B000B3F5586F148000F26081159F002F40F3DF
:1075C0005C819DF9613007939DF85B3008939DF8CD
:1075D0005C309DF85F009DF85E109DF86020099377
:1075E0009DF85D300A939DF85830019301319DF864
:1075F0005A3002930132013005910692139E9DF894
:107600005950A34B049048F2040248F20E0103972C
:1076100021E12844FF28049F28BFFF2007FB00FC2E
:107620001CF4004F0CBF1046084623F8300CCCF376
:1076300007201CF4804F00F0200A00F0100900F031
:10764000080814BF48F20E0B48F2040B00F0040CBB
:10765000BAF1000F14BF8A469246B9F1000F14BF69
:1076600089469146B8F1000F14BF8846904600F055
:10767000020E23F82CAC00F0010023F82A9C23F81A
:10768000288C23F82EBCBCF1000F14BF8C46944606
:1076900000280CBF10460846BEF1000F14BF8E46EE
:1076A000964623F824EC23F8220C23F826CC3078D5
:1076B000002800F0C681019F3844FF28059F28BF9D
:1076C000FF2007FB00FC1CF4004F0CBF10460846CF
:1076D00023F8200CCCF307201CF4804F00F0200A84
:1076E00000F0100900F0080814BF48F20E0B48F231
:1076F000040B00F0040CBAF1000F14BF8A46924646
:10770000B9F1000F14BF89469146B8F1000F14BFBC
:107710008846904600F0020E23F81CAC00F00100F1
:1077200023F81A9C23F8188C23F81EBCBCF1000F18
:1077300014BF8C46944600280CBF10460846BEF184
:10774000000F14BF8E46964623F814EC23F8120C53
:1077500023F816CCB078002800F06581029F3844E9
:10776000FF28069F28BFFF2007FB00FC1CF4004FEA
:107770000CBF1046084623F8100CCCF307201CF46D
:10778000804F00F0200A00F0100900F0080814BF34
:1077900048F20E0B48F2040B00F0040CBAF1000F93
:1077A00014BF8A469246B9F1000F14BF894691462C
:1077B000B8F1000F14BF8846904600F0020E23F87F
:1077C0000CAC00F0010023F80A9C23F8088C23F885
:1077D0000EBCBCF1000F14BF8C469446089F23F8E2
:1077E00006CCB846019FA8EB0709099F7D1B0A9F9D
:1077F000B846029FA8EB07085FFA89F70197079F31
:107800003E44039F1396013F039718341F4F0028EF
:107810000CBF10460846A4B25FFA88F8CDF808807D
:107820003C8023F8020C019F03988DF85870EDB24C
:10783000029F8DF85950BEF1000F14BF8E46964638
:107840008DF85A7023F804EC1590B0B1B4F5586F68
:1078500003F1300311D0707800287FF4DAAE23F8FA
:10786000302C23F82E2C23F82C2C23F82A2C23F848
:10787000282C864648F2040C0AE7064E064D074CB3
:10788000074F19E03D69020020390020243900200B
:10789000583900201C390020F0ED00E040420F0074
:1078A000001000E03B68D80709D57B6832889B0947
:1078B0009B1A9BB2092B0ED8EB68DB01F2D412F0B5
:1078C0006BF8A0FB04013288830A43EA81539B1AB8
:1078D0009BB2092BF0D9B24ABFF35B8F52E8003F4D
:1078E00043F0010142E800100028F7D1BFF35B8F9D
:1078F00013F00103F0D1AB4AAB491160AB4ABFF3BF
:107900005B8F52E8001F41F0010142E8001000289F
:10791000F7D1BFF35B8F4FF0A04140F20334C1F8C1
:107920006447A34AA3484FF00074C1F80C454FF0D8
:10793000FF311924C2F86045C2F864150124C2F869
:107940006815C2F86C151421C2F80045C2F80C3550
:10795000C2F80435C2F80815C2F81035C2F8003272
:10796000C2F800330360006893490C900C980B60D8
:1079700008680D900D984B6048680E900E988B60CB
:1079800088680F900F98CB60C868109010980B61B2
:107990000869119011984B611431884C0968129153
:1079A000874988480988129DC2F82005C2F8241525
:1079B000C2F82835C2F82C35C2F84005C2F8441583
:1079C000C2F84835C2F84C35C2F8143594F9003085
:1079D0001F2B44DD03F1604202F56142402182F831
:1079E000001392F800235109EC220A41D2070DD569
:1079F000754A9168002941D0590903F01F0452F8D3
:107A000021000123A340034342F82130684B6F4A11
:107A10001324B2200121C3F80042C3F8000311600F
:107A20001BB0BDE8F08F23F8102C23F80E2C23F8A0
:107A30000C2C23F80A2C23F8082C864648F2040C58
:107A4000CCE623F8202C23F81E2C23F81C2C23F83A
:107A50001A2C23F8182C864648F2040C6BE65C4A74
:107A6000DA40D107D2D5002BB4DA5A4A03F00F011D
:107A70000A4440211176127E5109B5E7002BC5DB7F
:107A8000554903F01F0001225B09824041F8232081
:107A9000BCE752490B78013303F0070313F00104EC
:107AA0000B7016BF80244021C02113F0020F08BFC5
:107AB00021465C0744BF41F02001C9B29DF85E40F9
:107AC0001031C9B26CBB8DF85B408DF858409DF801
:107AD0005F40002C3FD18DF85C408DF859409DF8F7
:107AE0006030002B51D04FF48074B4FBF3F3DBB261
:107AF0005C1CE4B204FB0111C1F30725091218BF95
:107B000005F1FF318DF85D408DF85A10002C3FF4DF
:107B10002AAD8DF85D3026E513A998471BB0BDE866
:107B2000F08F4FF48073B3FBF4F3DBB25C1CE4B270
:107B300004FB0115C5F307262D128DF85B4029D0F3
:107B4000751E8DF85850002CC1D09DF85F408DF8FF
:107B50005B30002CBFD04FF48073B3FBF4F3DBB287
:107B60005C1CE4B204FB0115C5F307262D128DF849
:107B70005C4012D0751E8DF85950002CAFD08DF896
:107B80005C309DF86030002BADD18DF85D308DF804
:107B90005A30E8E48DF85850D5E78DF85950ECE7A5
:107BA0003054002028540020296802002039002089
:107BB00000C0014004C1014008C101402C54002014
:107BC0002439002028390020E89F002008C0014007
:107BD000FC06FFBDFCEC00E000E100E018390020ED
:107BE0002DE9F04F9BB000230268ADF82C308DF8E2
:107BF0002E301568C64EB54240F089820446807C1E
:107C000014910BAD01281591ADF85E308DF8603000
:107C1000139500F092821693ADF85C3000238DF836
:107C200061309269BB4919938A4240F091820123E5
:107C3000B949BFF35B8F51E8002F002A03D141E817
:107C400000300028F7D1BFF35B8FF1D1149BB34A0A
:107C50001B010024B3F5586F148000F26381159B5B
:107C60000293002B40F35E819DF9613006939DF8ED
:107C70005B309DF85F009DF85E109DF860200793D3
:107C80009DF85C3008939DF85D30099301319DF8B3
:107C9000583001930132013004910592139E9DF8F2
:107CA00059509DF85AE09E4B039048F2040248F266
:107CB0000E011AE12844FF28039F28BFFF2007FB7D
:107CC00000F717F4004F0CBF1046084623F8300C9D
:107CD000C7F3072017F4804F00F0200A00F01009C6
:107CE00000F0080814BF48F20E0B48F2040B00F035
:107CF0000407BAF1000F14BF8A469246B9F1000F8B
:107D000014BF89469146B8F1000F14BF88469046CB
:107D100000F0020C23F82CAC00F0010023F82A9CA0
:107D200023F8288C23F82EBC002F14BF0F461746CB
:107D300000280CBF10460846BCF1000F14BF8C464B
:107D4000944623F824CC23F8220C23F8267C3078A0
:107D5000002800F0BB81019F3844FF28049F28BF02
:107D6000FF2007FB00F717F4004F0CBF1046084632
:107D700023F8200CC7F3072017F4804F00F0200AE7
:107D800000F0100900F0080814BF48F20E0B48F28A
:107D9000040B00F00407BAF1000F14BF8A469246A4
:107DA000B9F1000F14BF89469146B8F1000F14BF16
:107DB0008846904600F0020C23F81CAC00F001004D
:107DC00023F81A9C23F8188C23F81EBC002F14BF2C
:107DD0000F46174600280CBF10460846BCF1000F9E
:107DE00014BF8C46944623F814CC23F8120C23F8C5
:107DF000167CB078002800F05B817044FF28059F56
:107E000028BFFF2007FB00F717F4004F0CBF1046F8
:107E1000084623F8100CC7F3072017F4804F00F032
:107E2000200A00F0100900F0080814BF48F20E0BF9
:107E300048F2040B00F00407B9F1000F14BF8946A3
:107E40009146BAF1000F14BF8A469246B8F1000F6E
:107E500014BF8846904600F0020C23F80A9C00F0FC
:107E6000010023F80CAC23F8088C23F80EBC002F7B
:107E700014BF89469146079F23F8069CB846019F88
:107E8000A8EB0708089F7D1B099FA7EB0E0E5FFA62
:107E900088F70197069F3E44029F139607F1FF382B
:107EA00018341E4FCDF80880A4B23C80019F8DF895
:107EB0005870029F1597EDB25FFA8EFEBCF1000F6D
:107EC00014BF8C46944600280CBF104608468DF817
:107ED00059508DF85AE023F804CC23F8020C0FB364
:107EE000B4F5586F03F130031CD0707800287FF48C
:107EF000E1AE23F8302C23F82E2C23F82C2C23F879
:107F00002A2C23F8282C844648F2040710E700BFE7
:107F1000996E02003D6902002039002024390020BA
:107F2000583900208D4E8E4D8E4C8F4F09E03B68A6
:107F3000D80709D57B6832889B099B1A9BB2092B0D
:107F40000ED8EB68DB01F2D411F026FDA0FB040192
:107F50003288830A43EA81539B1A9BB2092BF0D9DA
:107F6000824ABFF35B8F52E8003F43F0010142E8D1
:107F700000100028F7D1BFF35B8F13F00103F0D19D
:107F80007B4A7C4911607C4ABFF35B8F52E8001F3B
:107F900041F0010142E800100028F7D1BFF35B8FE8
:107FA0004FF0A04140F20334C1F86447734A74486B
:107FB0004FF00074C1F80C454FF0FF311924C2F89E
:107FC0006045C2F864150124C2F86815C2F86C1542
:107FD0001421C2F80045C2F80C35C2F80435C2F8C5
:107FE0000815C2F81035C2F80032C2F80033036039
:107FF000006864490C900C980B6008680D900D980F
:108000004B6048680E900E988B6088680F900F98B0
:10801000CB60C868109010980B6108691190119896
:108020004B611431584C09681291584958480988D5
:10803000129DC2F82005C2F82415C2F82835C2F8EE
:108040002C35C2F84005C2F84415C2F84835C2F8CC
:108050004C35C2F8143594F900301F2B44DD03F180
:10806000604202F56142402182F8001392F8002339
:108070005109EC220A41D2070DD5464A91680029E0
:1080800050D1002B07DB444903F01F0001225B099C
:10809000824041F82320394B404A1324B220012169
:1080A000C3F80042C3F8000311601BB0BDE8F08FB5
:1080B00023F8102C23F80E2C23F80C2C23F80A2C70
:1080C00023F8082C844648F20409D4E623F8202C2F
:1080D00023F81E2C23F81C2C23F81A2C23F8182C18
:1080E000844648F2040775E62D4ADA40D107D2D516
:1080F000002BB4DA2B4A03F00F010A444021117619
:10810000127E5109EC220A41D207C4D5B5E7ADF879
:108110004C308DF84E300A46139B0BA9A8471BB074
:10812000BDE8F08F590903F01F0452F82100012324
:10813000A340034342F82130ADE71B4916930A7868
:10814000ADF85C30531C03F007030B70226865E543
:10815000204613A990471BB0BDE8F08F1C390020C2
:10816000F0ED00E040420F00001000E0305400202D
:1081700028540020296802002039002000C0014056
:1081800004C1014008C101402C54002024390020C2
:1081900028390020E89F002000E100E008C00140ED
:1081A000FC06FFBDFCEC00E0183900202DE9F04191
:1081B00082B010F0E7F96B4B1A68002A5FD06A4F63
:1081C00000221A60064638681B680193674A90F8D7
:1081D0001E310199D2F82C2603F0FB03412BB2F992
:1081E00000504FD0036845601A1D01332902072B48
:1081F00040F8221003604ADC5D4BB5F57A6FACBFE6
:108200004FF000084FF00108984200F09580594B5C
:1082100098427BD0D0F80031F31AB3F57A7FC4BF0F
:108220000023C0F80831D0F80431F31AB3F57A7F8F
:10823000C4BF4FF48053C0F81031D0F80831AB42BE
:1082400004DA8560C0F80851C0F80061D0F8103138
:10825000AB4204DDC560C0F81051C0F8046190F86D
:10826000A830002B48D190F8143123BB3F4A424B31
:108270004249C2F82C360123C2F830360B6002B0F6
:10828000BDE8F0813E4A136801331360AAE700F1AC
:10829000A40200F11001082334300EF013FF3868F7
:1082A000D0F8A43001211B120022C0F8A43080F8BD
:1082B00030100260A0E7D0F818313B600021102098
:1082C00012F0F2FF3B68012293F822310F210720C0
:1082D00013F036F80121102012F0E6FF3968234A26
:1082E000B1F81C11274BC2F81015012111600B4386
:1082F0004FF420709847B9E74168AC30FEF79EF81C
:10830000386890F81431002BB0D0D4E71E4C237895
:1083100043453FF47FAF10F035F91C4A1368C31A88
:108320000F2B05DD1A4B1060012283F82020186105
:10833000386884F800806DE7164C237843453FF495
:1083400069AF10F01FF9144A1368C31A032B05DD37
:108350000F4B1060012283F820205860386884F8A1
:10836000008054E70C710040A057002000700040CE
:10837000E465002014670020505400200470004081
:1083800038790020409B0400C9700020D87000207C
:1083900030820020C8700020D47000202DE9F843FE
:1083A000294C089E994607468846204602211546D4
:1083B00008F0ECF84FF6E073494620466361A4F8F4
:1083C000108067820FF07EFA204920460FF07AFA7B
:1083D00042F20F7300229E42A582E2822DD01C4DF4
:1083E00026EAE677A5FB0735ED0829460A2220464E
:1083F0000FF09AFB42F210739E421CDCB6F57A7FB6
:108400000DDC632E11DC1349204605EB85050FF0CA
:1084100059FAA7EB45010A2220460FF085FB2046BA
:108420000D49BDE8F8430FF04DBA20460B49BDE8B1
:10843000F8430FF047BABDE8F88320460849BDE885
:10844000F8430FF03FBA00BF3481002094F10300DD
:10845000CDCCCCCCA0F10300389C040090F10300FB
:1084600098F103002DE9F04FA34BA44E9FEDA40A11
:10847000DFF894A2DFF89492DFF8948293E8070083
:10848000B9B004AC0C3384E8070093E8070007ADEB
:10849000802385E8070001931023F2EE0E0A4FF0C7
:1084A000B80B314600930AA8262300228DED030A5B
:1084B00006F032FB0AA95A46924813F0B9FC02238F
:1084C0004FF6E0724E27CDE90032314613230AA859
:1084D000002206F0F5FD0AA93A46504613F0A8FC22
:1084E0002B4622468748032106F054FB2B462246A2
:1084F0005046032106F046FE4FF01F0A10239DED63
:10850000030A0093F3EE040A3146CDF804A02623B3
:108510000AA8612206F000FB5A460AA9484613F051
:1085200087FC02234FF6E071CDE900310AA83146FD
:108530002623002206F0C4FD3A460AA9404613F05D
:1085400077FC2B4622464846032106F023FB2B46A8
:1085500022464046032106F015FEDFF8B8919DED56
:10856000030ACDF804A01023F2EE0E0A0093314660
:1085700039230AA8612206F0CFFA5A460AA94846CA
:1085800013F056FCDFF8908102234FF6E070CDE93E
:108590000030314639230AA8002206F091FD3A4600
:1085A0000AA9404613F044FC2B46224648460321C4
:1085B00006F0F0FA2B4622464046032106F0E2FD83
:1085C000DFF858919DED030ACDF804A01023F2EED8
:1085D0000E0A009331464C230AA8612206F09CFA49
:1085E0005A460AA9484613F023FCDFF834814FF6B7
:1085F000E07C0223CDE9003C31464C230AA800224E
:1086000006F05EFD3A460AA9404613F011FC2B46DF
:1086100022464846032106F0BDFA2B462246404634
:10862000032106F0AFFDDFF8FC909DED030ACDF8C5
:1086300004A01023F2EE0E0A009331465F230AA82D
:10864000612206F069FA5A460AA9484613F0F0FB7F
:10865000DFF8D4804FF6E07E0223CDE9003E3146BC
:108660005F230AA8002206F02BFD3A460AA94046DD
:1086700013F0DEFB2B4622464846032106F08AFA19
:108680002B4622464046032106F07CFDDFF89C90F5
:108690009DED030ACDF804A01023F2EE0E0A00931C
:1086A000314672230AA8612206F036FA5A460AA910
:1086B000484613F0BDFBDFF8788002234FF6E07ADE
:1086C000CDE9003A314672230AA8002206F0F8FCF0
:1086D0003A460AA9404613F0ABFB2B4622464846D1
:1086E000032106F057FA2B4622464046032106F0A6
:1086F00049FD39B0BDE8F08F60F7030034810020F8
:10870000000000005C7E0020147F0020647F0020B9
:108710001C800020F47A0020AC7B00203C7A0020F2
:10872000FC7B00204C7C0020047D0020547D002038
:108730000C7E00208C4B984270B5054600F0AA8054
:108740008A4B984200F0FD80894B984200F00281EC
:10875000884C037894F81F219A4259D094F84F22FC
:108760009A4261D094F87F239A4264D094F8AF245F
:108770009A4267D094F8DF259A426AD094F80F277E
:108780009A426DD094F83F289A4200F0B08094F855
:108790006F299A4200F0BB8094F89F2A9A4200F019
:1087A000C7809FED750A754806F09CFB2B7894F8FE
:1087B0001F219A425BD094F84F229A4263D094F8DA
:1087C0007F239A426FD094F8AF249A4272D094F8E3
:1087D000DF259A4275D094F80F279A4278D094F802
:1087E0003F289A427BD094F86F299A4200F0878004
:1087F00094F89F2A9A4200F092809FED5F0A6048A9
:1088000029464FF6E073BDE87040002206F014BD23
:10881000417894F820219142A0D10022594B03EBDA
:10882000820393ED150ABEE7697894F850229142CD
:1088300098D10122F2E7697894F88023914295D18A
:108840000222EBE7697894F8B024914292D1032296
:10885000E4E7697894F8E02591428FD10422DDE7BE
:10886000697894F8102791428CD10522D6E769786F
:1088700094F8202191429ED10022424B03EB8203C7
:1088800093ED150ABBE794F850126A78914296D19D
:108890000122F2E73B4C394894ED0C0A06F022FB2A
:1088A00094ED0C0AABE7697894F8802391428AD161
:1088B0000222E2E7697894F8B024914287D103223A
:1088C000DBE7697894F8E025914284D10422D4E76B
:1088D000697894F81027914281D10522CDE7697813
:1088E00094F8402891427FF47EAF0622C5E769786C
:1088F00094F8402891427FF44AAF06228EE76978C7
:1089000094F8702991427FF473AF0722B5E7697834
:1089100094F8702991427FF43FAF07227EE76A788E
:1089200094F8A03A9A4208BF08227FF466AFA4E701
:108930006A7894F8A03A9A4208BF08227FF431AFCF
:108940006CE7104C0D4894ED0D0A06F0CBFA94ED4F
:108950000D0A54E70B4C094894ED0E0A06F0C2FAD2
:1089600094ED0E0A4BE700BFA4F10300A8F1030049
:10897000ACF10300345B002000C079C40075002016
:10898000B8750020207100208C4B984270B50546C8
:1089900000F0AA808A4B984200F0FD80894B9842F3
:1089A00000F00281884C037894F81F219A4259D034
:1089B00094F84F229A4261D094F87F239A4264D06F
:1089C00094F8AF249A4267D094F8DF259A426AD08F
:1089D00094F80F279A426DD094F83F289A4200F0FD
:1089E000B08094F86F299A4200F0BB8094F89F2AD7
:1089F0009A4200F0C7809FED750A754806F072FA3A
:108A00002B7894F81F219A425BD094F84F229A4217
:108A100063D094F87F239A426FD094F8AF249A429F
:108A200072D094F8DF259A4275D094F80F279A42B5
:108A300078D094F83F289A427BD094F86F299A42D4
:108A400000F0878094F89F2A9A4200F092809FED70
:108A50005F0A604829464FF6E073BDE87040002287
:108A600006F0EABB417894F820219142A0D100227F
:108A7000594B03EB820393ED150ABEE7697894F82E
:108A80005022914298D10122F2E7697894F880232C
:108A9000914295D10222EBE7697894F8B024914293
:108AA00092D10322E4E7697894F8E02591428FD1CE
:108AB0000422DDE7697894F8102791428CD10522D1
:108AC000D6E7697894F8202191429ED10022424B4A
:108AD00003EB820393ED150ABBE794F850126A7812
:108AE000914296D10122F2E73B4C394894ED0C0AB1
:108AF00006F0F8F994ED0C0AABE7697894F8802356
:108B000091428AD10222E2E7697894F8B024914236
:108B100087D10322DBE7697894F8E025914284D17C
:108B20000422D4E7697894F81027914281D1052274
:108B3000CDE7697894F8402891427FF47EAF062211
:108B4000C5E7697894F8402891427FF44AAF06223D
:108B50008EE7697894F8702991427FF473AF072209
:108B6000B5E7697894F8702991427FF43FAF072206
:108B70007EE76A7894F8A03A9A4208BF08227FF408
:108B800066AFA4E76A7894F8A03A9A4208BF082230
:108B90007FF431AF6CE7104C0D4894ED0D0A06F0F0
:108BA000A1F994ED0D0A54E70B4C094894ED0E0A17
:108BB00006F098F994ED0E0A4BE700BFA4F103000C
:108BC000A8F10300ACF10300345B002000C079C4BD
:108BD00008760020C0760020207100208C4B98423F
:108BE00070B5054600F0AA808A4B984200F0FD80DF
:108BF000894B984200F00281884C037894F81F2139
:108C00009A4259D094F84F229A4261D094F87F2327
:108C10009A4264D094F8AF249A4267D094F8DF2542
:108C20009A426AD094F80F279A426DD094F83F2860
:108C30009A4200F0B08094F86F299A4200F0BB800D
:108C400094F89F2A9A4200F0C7809FED750A7548F4
:108C500006F048F92B7894F81F219A425BD094F8DB
:108C60004F229A4263D094F87F239A426FD094F8AF
:108C7000AF249A4272D094F8DF259A4275D094F8C6
:108C80000F279A4278D094F83F289A427BD094F8E4
:108C90006F299A4200F0878094F89F2A9A4200F048
:108CA00092809FED5F0A604829464FF6E073BDE869
:108CB0007040002206F0C0BA417894F82021914219
:108CC000A0D10022594B03EB820393ED150ABEE7B6
:108CD000697894F85022914298D10122F2E769789C
:108CE00094F88023914295D10222EBE7697894F8B9
:108CF000B024914292D10322E4E7697894F8E02508
:108D000091428FD10422DDE7697894F810279142CF
:108D10008CD10522D6E7697894F8202191429ED122
:108D20000022424B03EB820393ED150ABBE794F854
:108D300050126A78914296D10122F2E73B4C3948B1
:108D400094ED0C0A06F0CEF894ED0C0AABE76978C6
:108D500094F8802391428AD10222E2E7697894F85C
:108D6000B024914287D10322DBE7697894F8E025AB
:108D7000914284D10422D4E7697894F81027914273
:108D800081D10522CDE7697894F8402891427FF49B
:108D90007EAF0622C5E7697894F8402891427FF4B7
:108DA0004AAF06228EE7697894F8702991427FF4E1
:108DB00073AF0722B5E7697894F8702991427FF480
:108DC0003FAF07227EE76A7894F8A03A9A4208BF3C
:108DD00008227FF466AFA4E76A7894F8A03A9A4232
:108DE00008BF08227FF431AF6CE7104C0D4894EDBA
:108DF0000D0A06F077F894ED0D0A54E70B4C09487C
:108E000094ED0E0A06F06EF894ED0E0A4BE700BFE3
:108E1000A4F10300A8F10300ACF10300345B0020CF
:108E200000C079C410770020C8770020207100208E
:108E3000F8B5604C9FED607AD4ED047A5F4FD4EDC5
:108E4000036A3D78F4EEC77AF1EE10FAF4EE476A61
:108E5000ACBF2E460126F1EE10FA48BF0226032DC4
:108E600000F099809FED547AF4EEC77AF1EE10FA93
:108E700007D5D4ED037AF4EE477AF1EE10FA48BF45
:108E80000326DFED4D7A94ED057AB4EE677AF1EEC4
:108E900010FA48BF0326AE4211D0494806F002F846
:108EA00048483E7006F0B0F9474806F0ADF947482B
:108EB00006F0AAF90FF066FB454B3D781860022DCD
:108EC0002FD0032D4BD0012D3AD094ED000A41490B
:108ED00041484FF6E073002206F0AEF994ED000A27
:108EE0003E4805F0FFFF94ED010A3D493D484FF62D
:108EF000E073002206F0A0F994ED010A3A4805F06B
:108F0000F1FF94ED020A394839494FF6E073002227
:108F100006F092F994ED020A3648BDE8F84005F0F3
:108F2000E1BF94ED030A344926484FF6E07300226E
:108F300006F082F994ED030A214805F0D3FFC4E757
:108F400094ED040A2D491F484FF6E073002206F005
:108F500073F994ED040A1A4805F0C4FFB5E794EDDF
:108F6000040A264917484FF6E073002206F064F918
:108F700094ED030A204914484FF6E073002206F0EE
:108F80005BF994ED050A1E4910484FF6E073002284
:108F900006F052F999E70FF0F5FA0D4BD4ED047A8B
:108FA0001B68C01A41F28733984298BF2E463D781D
:108FB00058E700BF6C8000209AF97944E8700020DF
:108FC0005C7E0020147F00201C800020AC7B0020F1
:108FD000E4700020C0F10300FC7B00203C7A0020FC
:108FE000C4F10300047D00204C7C00200C7E002096
:108FF000C8F10300547D0020B8F10300B0F1030074
:10900000A0F40300F0B4444D444E454F0FCD8AB058
:1090100005AC0FC433682A68424D434822608B2157
:10902000002213F00103CDE9017503903F4DADF827
:1090300010108DF812205FD02978DDED057A3C4BB9
:10904000B4EEE70A8B200022F1EE10FA18809A7035
:109050004EDBDDED067A019A1A80B4EEE70A120CB7
:10906000F1EE10FA9A702ADBDDED077ABDF8070001
:109070009DF809201880B4EEE70AF1EE10FA9A7014
:109080001DDBDDED087ABDF80A009DF80C20188084
:10909000B4EEE70AF1EE10FA9A7010DBDDED097A12
:1090A000BDF80D009DF80F201880F4EEC07AF1EEA7
:1090B00010FA9A7003D8049A1A80120C9A701A78CF
:1090C000BAB958781A7008B1800801309C78587085
:1090D0000CB1A408013491429C7013D015481B6850
:1090E00001782B801B0CAB700AB0F0BC0DF0CCBE2D
:1090F0001A7892080132E4E701222B80AB701946FE
:1091000032609AE76A788242E8D1AA78A242E5D131
:109110000AB0F0BC704700BF78F7030098700020D9
:10912000008000FFFF00FFA500FF45001C7100202C
:10913000AC740020E894002070B53E4A01216FF025
:109140000043C2F8001582B0C2F80833002848D0A6
:1091500039494B7888780E78CD780C791B0100025C
:1091600000F4E06003F03003034306F0030648799F
:1091700089792D03334305F4805524042B4304F4EB
:10918000E0240005234300F48010090601F08071FB
:1091900003430B430321C2F81835C2F8F415254BDD
:1091A000264A274C022500200121C3F8F055C3F8B8
:1091B000F805116023682BB90A200FF0EFF9236836
:1091C000002BF9D01E4B1B4A002119601B6801932C
:1091D000019BD2F8183543F08073C2F8183502B0FD
:1091E00070BD18494B7888780E78CD780C791B01C2
:1091F000000200F4E06003F03003034306F00306CE
:10920000487989792D03334305F4805524042B4391
:1092100004F4E0240005234300F48010090601F063
:10922000807103430B430521C2F81835C2F8F415C9
:10923000B5E700BF00700040403600200C700040D1
:1092400010710040383600202DE9F84F574B584C2C
:10925000584D1868584AC4F81E0105F194030121BD
:10926000122605F1880084F822610EF00FFA5348A7
:10927000534EDFF86CB1FDF77FF801462046FDF74D
:1092800077F8504B1868C4F84E0218234E4884F8FB
:109290005232FDF771F804F5987A01465046FDF711
:1092A00067F8454A012105F1780305F16C000EF0DD
:1092B000EDF9464B1868C4F87E030323444884F84C
:1092C0008233FDF759F804F5187901464846FDF751
:1092D0004FF8394A012105F1B00305F1A4000EF061
:1092E000D5F93C4B1868C4F8AE04242306F5986001
:1092F00084F8B234FDF740F804F56478014640463E
:10930000FDF736F85A46012105F1400305F1340016
:109310000EF0BCF9304B1868C4F8DE052223304645
:1093200084F8E235FDF728F804F5986701463846D9
:10933000FDF71EF85A46012105F1240305F1180036
:109340000EF0A4F9254B1868C4F80E07282306F57B
:10935000186084F81237FDF70FF804F5BE66014671
:109360003046FDF705F805F15C035A4605F150005B
:1093700001210EF08BF90123C4F818A1C4F848921A
:10938000C4F87883C4F8A874C4F8D865C4F808474A
:1093900084F8143184F8443284F8743384F8A434A3
:1093A00084F8D43584F80437BDE8F88FCCF1030095
:1093B000446800206C80002084360020E465002092
:1093C000345B0020D0F1030014670020D4F10300C7
:1093D000646F0020D8F10300DCF10300E0F103002A
:1093E000703600202DE9F04FA74AA84CA84B106812
:1093F000C4F81E011868C4F84E0283B0422304F575
:1094000098704FF0220B84F8523284F822B1FCF7A6
:10941000E1FFA04BA04E1868C4F87E03822304F538
:10942000187084F88233FCF7D5FF9C4B9C4F18686A
:10943000C4F8AE04242304F5647084F8B234FCF755
:10944000C9FF984A984B1068C4F8DE051868C4F83C
:109450000E07842304F5BE604FF0440A84F81237E7
:1094600084F8E2A5FCF7B6FF904BDFF8AC821868F1
:10947000C4F83E08282304F5E46084F84238FCF779
:10948000A9FF8B4B8B4D1868C4F86E09482304F56F
:10949000056084F87239FCF79DFF874B874A18688E
:1094A000874BC4F89E0A4FF014091068C6F81E01D5
:1094B00012216FF0770C0093CDF80490503B06F129
:1094C000AC00802286F82211C6F818717D4984F814
:1094D000A2CAFCF797FF06F1AC0000224FF47A61B4
:1094E000FCF79AFF784A794BCDF804901068C7F8DA
:1094F0001E0118214FF00109009307F1AC00503B09
:1095000087F8221180226F49C7F8188186F8A89041
:10951000FCF778FF07F1AC0000224FF47A61FCF70A
:109520007BFF6B4B87F8A8901868C8F81E010323CF
:10953000404688F82231C8F81851FCF74BFF654BBC
:10954000654A664F1868DFF8D4C1C5F81E013B783C
:109550001068C5F84E0205F59871DCF8000085F832
:1095600022B105F518726FF0770C85F852A285F8D4
:1095700082C3C5F87863C5F81811C5F84822C5F844
:109580007E03002B7AD056495648002208F096FAFE
:1095900000286ED0FDF7D2F83C48534F00F598668E
:1095A000FCF7EAFE01464348FCF7E2FE3046FCF7D2
:1095B000E3FE06F5986501464C48FCF7D9FE2846BF
:1095C000FCF7DAFE01464A48FCF7D2FEFFF73CFE04
:1095D000A6F56472474BC4F81821A6F51871A6F5D4
:1095E0009872C4F86859C4F84812012506F59871B4
:1095F000C4F8782306F51872C4F8A864C4F8D8151E
:10960000A3F10C00C4F8082729463B4AC4F8984A3D
:1096100006F56476C4F8386884F8145184F8445226
:1096200084F8745384F8A45484F8D45584F8045707
:1096300084F8345884F8645984F8945A3C600EF0E5
:1096400025F82E4B2C4A2946A3F10C000EF01EF8EB
:109650002B4B294A2946A3F10C000EF017F8294B91
:10966000294A2946A3F10C0003B0BDE8F04F0EF0E3
:109670000DB8264926480EF073F98DE725480DF000
:109680001FFA87F800907EE71CF20300345B00208D
:1096900020F2030024F20300E465002028F2030016
:1096A000146700202CF2030030F2030034F20300B0
:1096B00038F20300A45700203CF20300CCF1030071
:1096C000B056002060540020D0F103005057002015
:1096D000D4F1030040F2030044F20300447300207D
:1096E000E4F10300B8720020A0570020D4580020F5
:1096F000045A0020A47100205C360020C0710020B4
:10970000DC710020F871002048360020F8F10300D9
:109710001095002040840020646F002048F2030070
:10972000F0B5044685B005200EF078FE1D200EF041
:1097300075FE4FF0A0434FF400324FF44031C3F8B0
:1097400014171020C3F87427002111F0ADFD002379
:1097500001220F21072011F0F3FD0121102011F04B
:10976000A3FD4F4B8022C3F88020BFF34F8FBFF380
:109770006F8F4C4DC3F880214B4F4C494C4E6FF0CE
:109780000043C5F8083301253D60204681F82A5082
:10979000FFF7D2FC3378002B7CD0464946480022A4
:1097A00008F08CF900285BD0FCF7C8FF434B444D10
:1097B0001D60002C5DD0434B434900931427503B60
:1097C000802205F1AC000197FCF71CFE40F6B8338F
:1097D00001224FF47A6105F1AC00FCF721FE01266D
:1097E00005F1AC00394C85F8A860FCF75FFF384BF9
:1097F0003549009304F1AC00503B80220197FCF7FF
:1098000001FE40F6B8331946002204F1AC00FCF723
:1098100007FE04F1AC0084F8A860FCF747FF2D4B6D
:1098200003221A701F4B2C491D4A6FF00044002080
:10983000C3F8084308600968039108208021039C4D
:10984000C3F80403C2F8801111602449244801229E
:109850001A60C3F82C06C3F830260A6005B0F0BDC4
:1098600020492148164D0EF07BF8144B1D60002C4A
:10987000A1D1164B03F1AC0083F8A840FCF716FF0A
:1098800005F1AC0085F8A840FCF710FF114B02224F
:109890001A70C7E715480DF013F935707DE700BF62
:1098A00000E100E0007000400870004020710020DE
:1098B00044730020E4F10300B8720020A057002098
:1098C000146700205057002060540020E4650020F9
:1098D000B05600203F3600200C710040047000405C
:1098E00050540020F8F1030010950020408400201F
:1098F00030B5052083B00EF091FD1D200EF08EFDD9
:109900004FF0A0434FF400324FF44031C3F8141726
:109910001020C3F87427002111F0C6FC0023012297
:109920000F21072011F00CFD0121102011F0BCFCCB
:10993000284B8022C3F88020BFF34F8FBFF36F8F77
:1099400025482649C3F88021254C6FF000430125A6
:10995000C0F8083300200D60FFF7EEFB2378002BE2
:1099600033D020492048002208F0A8F840B3FCF783
:10997000E5FE1E4A1E4C1F481F4D1560164B1F4921
:109980000122042584F8402005706FF00044002077
:10999000C3F80843086008680E4901900824802035
:1099A000019DC3F80443C1F88001086014491548BB
:1099B0001A60C3F82C06C3F830260A6003B030BD25
:1099C000114912480DF0CCFFD3E711480DF078F89B
:1099D0002570C6E700E100E000700040087000401C
:1099E00044730020E4F10300B8720020A057002067
:1099F000308200203F360020446800200C71004077
:109A00000470004050540020F8F10300109500202D
:109A1000408400202DE9F04F2DED028B83B0002310
:109A2000CA480193FCF7D2FCB0F57A6FC0F2BA8154
:109A3000C74DC84B2B6301AC2B64C748FCF7C6FC71
:109A4000B0F57A6FC0F29C81C24B6B636B64C34804
:109A5000FCF7BCFCB0F57A6FC04880F24C81FCF793
:109A60008FFCBF4A8DED010A02F1780001232146E7
:109A70000DF018FEBB4A214602F1900001230DF0C3
:109A800011FEB648FCF78AFCB44885ED120AFCF7D3
:109A900085FC85ED130AAD48DFF8E0829FEDB28AC0
:109AA0000746FCF793FC034607F598706B60FCF7DC
:109AB0008DFC034607F51870AB60FCF787FC034686
:109AC00007F56470EB60FCF781FC034607F59860CE
:109AD0002B61FCF77BFC034607F5BE606B61FCF76E
:109AE00075FC034607F5E460AB61FCF76FFC0346C9
:109AF00007F50560EB61FCF769FC034607F51860A4
:109B00002B62FCF763FCBB4668623C46002640F6CD
:109B1000B83A4FF4987910E0FCF766FCA0B188EDF4
:109B2000008A09FB06B301360022092E04F5987459
:109B300008F1040883F830200CD02046FCF746FCDE
:109B4000034653452046E7DC2046FCF719FC88ED28
:109B5000000AE6E795ED107A2B88A968834CF1EEB0
:109B6000047AB4EEE77A95ED117AF1EE10FAF1EE9F
:109B7000047AD8BF23F00103B4EEE77A95ED127AA8
:109B8000D4BF9BB243F00103F1EE047AF1EE10FA78
:109B9000D8BF23F01003B4EEE77AD4BF9BB243F0F2
:109BA0001003F1EE10FAD8BF23F4807340F6B732F9
:109BB000CCBF43F480739BB29142E968C8BF23F0E5
:109BC000020340F6B732CCBF9BB243F0020391428E
:109BD0002969C8BF23F0040340F6B732CCBF9BB25B
:109BE00043F004039142A969C8BF23F0080340F67B
:109BF000B732CCBF9BB243F008039142E969C8BFBA
:109C000023F0200340F6B732CCBF9BB243F02003D1
:109C10009142296AC8BF23F0400340F6B732CCBF57
:109C20009BB243F040039142C8BF23F080032288D7
:109C3000D4BF43F080039BB29A422B8005D00EF034
:109C4000A1FC4B4B2A882280186095F82A303BB142
:109C5000484C384607F59877FCF7CAFBBC42F8D168
:109C6000DFED417A95ED0C7AB4EEE77A0023F1EE60
:109C700010FA85F82A3006DB95ED0D7AB4EEE77A16
:109C8000F1EE10FA47DA0EF07DFC0023286585F826
:109C90002A302B88384C1C4020D1DFED337A95EDEB
:109CA0000C7AB4EEE77AF1EE10FA14DB95ED0D7A4A
:109CB000B4EEE77AF1EE10FA0DDB95ED0E7AB4EE24
:109CC000E77AF1EE10FA00F1A28023F00103B3F578
:109CD000887F08D10AE0002285F82B2023F00103B9
:109CE000B3F5887F73D0002385F82C3003B0BDEC2A
:109CF000028BBDE8F08FFCF743FB1A4A154E8DED41
:109D0000010A214602F190000123AE63AE640DF01A
:109D1000C9FCEE64BFE695ED0E7AB4EEE77AF1EE9B
:109D200010FAB0DB2A88931043EA520343EA521335
:109D3000DB07A8D40EF026FC2B6DC01AB0F57A7F95
:109D4000A7D9012385F82A30A3E700BF345B0020A0
:109D5000207100209AF97944F45F0020B464002057
:109D6000587100205C7100209AF979449E360020D9
:109D700030810020E4650020EEFEFFFF74710020BA
:109D80002A48FCF7FDFA2A4A8DED010A02F160002B
:109D9000012321460DF086FC2448FCF7FFFA85EDEF
:109DA000110A54E62348244DFCF7EAFA01AC05F108
:109DB000300205F17800214601238DED010A0DF0F6
:109DC00071FC1C48FCF7EAFA85ED100A35E6DFED78
:109DD0001B7A95ED0C7AB4EEE77AF1EE10FA85D5A0
:109DE00095ED0D7AB4EEE77AF1EE10FAFFF67EAF5C
:109DF00095ED0E7AB4EEE77AF1EE10FAFFF676AF53
:109E00000022012385F82B2085F82C306EE70EF018
:109E1000B9FB0B4B1B68C01AB0F57A7F82BF0123D8
:109E200085F82B3085F82C402B8857E7F45F00200D
:109E300054710020345B0020207100209AF979448D
:109E400030810020F0B5334C334D256083B00021C4
:109E5000102011F029FA2368012293F822310F21F2
:109E6000072011F06DFA0121102011F01DFA216870
:109E70002A4BB1F81C112A4AC3F8101500246FF0C0
:109E80000041C3F8081314601168264A01910820A4
:109E90008021019EC3F80403C2F880111160224999
:109EA000224801221A601427C3F82C064FF4987632
:109EB000C3F830260A60002006FB005393F83020D8
:109EC000002AFBD00130092883F83040F4D1FFF795
:109ED000A1FD013FEFD1134A8021C2F88010BFF3EA
:109EE0004F8FBFF36F8F0D4C1148C2F880110122C4
:109EF0006FF00041C4F808130E4B02600E4C0F497E
:109F00000F4883F82A201C6503B0BDE8F0400DF02F
:109F100027BD00BFA0570020345B00200070004028
:109F20000C71004000E100E004700040505400203B
:109F3000087000402071002018FCFFFF4CF2030065
:109F4000109500202DE9F04F002183B0102011F072
:109F5000ABF9514E002301220F21072011F0F0F937
:109F60004FF080090121102011F09EF9C6F8809071
:109F7000BFF34F8FBFF36F8FDFF83881474B484DEA
:109F8000DFF834A1C6F88091002401276FF0004B60
:109F9000C8F808B321461F60102085F830402C60B7
:109FA00085F86041C5F8304185F89042C5F86042B7
:109FB00085F8C043C5F8904385F8F044C5F8C0441F
:109FC00085F82046C5F8F04585F85047C5F8204784
:109FD00085F88048C5F8504885F8B049C5F88049EB
:109FE000CAF8005011F060F9DAF800303A4693F8F8
:109FF00022310F21072011F0A3F93946102011F06A
:10A0000053F9DAF80030B3F81C31C8F81035384687
:10A010000EF0C4FA234BC8F808B31C601B68019308
:10A020000823019AC8F80433C6F88091C6F8009056
:10A030001D4B1E4AC8F800702046C8F82C2626463C
:10A04000C8F830764FF498741F6004FB005393F8FF
:10A050003020002AFBD00130092883F83060F4D189
:10A06000FFF7D8FC0C4B8022C3F88020BFF34F8F42
:10A07000BFF36F8F0E490F4C91F82A00C3F880216F
:10A08000064901236FF000425840C4F808230B60D2
:10A0900003B0BDE8F08F00BF00E100E008700040B1
:10A0A000345B00200C7100400470004050540020CC
:10A0B0002071002000700040A057002030B505201E
:10A0C00083B00EF0ABF91D200EF0A8F94FF0A043BD
:10A0D0004FF400324FF44031C3F814171020C3F886
:10A0E0007427002111F0E0F8002301220F2107203E
:10A0F00011F026F90121102011F0D6F8274B80220B
:10A10000C3F88020BFF34F8FBFF36F8F24482549DA
:10A11000C3F88021244C6FF000430125C0F80833B8
:10A1200000200D60FFF708F82378002B31D01F497D
:10A130001F48002207F0C2FC30B3FCF7FFFA1D4BAA
:10A140001D4A1A601D4DFFF7FDFE154B1C49134AB1
:10A1500000206FF000442870C3F8084308600968C5
:10A16000019108208021019CC3F80403C2F88011EA
:10A1700011601449144801221A60C3F82C06C3F870
:10A1800030260A6003B030BD104911480DF0E8FBDD
:10A19000D5E710480CF094FC2570C8E700E100E01A
:10A1A000007000400870004044730020E4F1030098
:10A1B000B8720020A0570020345B00203F360020FA
:10A1C0000C7100400470004050540020F8F103006E
:10A1D00010950020408400202DE9F8432DED028BDE
:10A1E0000EF0D0F904464C48FCF7F0F8B0F57A6F61
:10A1F000C0F28180494D4A4B6B624A48FCF7E6F851
:10A20000B0F57A6F68DB464BEB62D5ED0B7AB2EEB8
:10A21000048A67EE887A17EE900A11F079FA424BB9
:10A22000002211F017F911F053FB2863D5ED097ADC
:10A2300067EE887A17EE900A11F06AFA3A4B00221C
:10A2400011F008F911F044FB03463848AB62FCF703
:10A25000BDF840F6B7339842CCBF002001202876E5
:10A2600095ED0B7ADFED327AB4EE677AF1EE10FA03
:10A2700006D195ED097AB4EE677AF1EE10FA21D0A5
:10A280002C4CDFF8B890DFF8B8802B4F04F56476DB
:10A290002046FCF79BF840F6B733984204F59874D3
:10A2A00005DDB442F4D1BDEC028BBDE8F883012298
:10A2B00000234146384685F8402089F82A300DF0C1
:10A2C0004FFBEEE7EA6B42F21073A41A9C42C4BF44
:10A2D000012385F84030D3E71248FCF751F81148C4
:10A2E00085ED0B0AFCF75AF8002385ED0E0AEC63A6
:10A2F00085F8403089E70848084DFCF741F80648E2
:10A3000085ED090AFCF74AF8002385ED0D0AEC6398
:10A3100085F8403071E700BF1467002030820020CC
:10A320009AF97944E46500200000E03F646F002062
:10A330009AF97944A457002010950020207100203C
:10A3400064F20300F0B5264D264C0FCD8FB002AE5F
:10A350000FC695E80300083586E803000FCD08AE68
:10A360000FC695E8030094F8303086E80300ABB3DD
:10A3700094F8603193B394F890327BB394F8C0337F
:10A3800063B394F8F0344BB394F8203633B3164FDC
:10A3900008AD002608E02B680136062E1F6004F584
:10A3A000987405F1040519D02046FCF70FF8B0F5B4
:10A3B0007A6FF0DA2046FBF7E3FF02A92A6851F82A
:10A3C00026008DED010A012301A901360DF06AF97D
:10A3D000062E04F5987405F10405E5D10FB0F0BD23
:10A3E0008CF70300446800209AF9794438B50EF0E0
:10A3F000C9F81F491F4A49681F4B52681D7B40F628
:10A400009F74A142CCBF00210121A242CCBF0022F7
:10A4100001228D4203D01C69041B0F2C20DC19780B
:10A42000914203D05968411A032912DC5A7832B19B
:10A430009A68D969821A8A42C4BF00225A705A7B2C
:10A4400032B15969DA69401A9042C4BF00225A7386
:10A4500038BD0A4C012120601A7098605970E5E7F8
:10A46000064D01242860197358615C73D7E700BF5B
:10A4700014670020E4650020308200203081002035
:10A48000F0B5334D334C2C6083B00021102010F018
:10A490000BFF2B68012293F822310F21072010F0C7
:10A4A0004FFF0121102010F0FFFE29682A4BB1F860
:10A4B0001C112A4AC3F8101500276FF00041C3F899
:10A4C000081317601168264A019108208021019D18
:10A4D000C3F80403C2F88011116022492248234DB9
:10A4E00001221A601426C3F82C06C3F830260A602D
:10A4F00002E095F830301BB994F83030002BF8D0DA
:10A50000FFF76AFEFFF772FF013E84F8307085F8AE
:10A510003070F1D1124A8021C2F88010BFF34F8F02
:10A52000BFF36F8F0C4C1248C2F8801101226FF0FC
:10A530000041C4F808130F4B02600F4C0F4910483C
:10A5400083F84020DC6303B0BDE8F0400DF008BAAA
:10A55000A057002014670020007000400C710040DC
:10A5600000E100E00470004050540020E465002049
:10A570000870004030820020F0D8FFFF80F2030016
:10A58000109500202DE9F04F434C444D444F4FF0BF
:10A5900000094FF0800884F8309083B085F830903F
:10A5A000C7F88080BFF34F8FBFF36F8F3D4E3E4B98
:10A5B000DFF808A1C7F880814FF0010B6FF000426F
:10A5C000C6F808234946C3F800B01020CAF8004076
:10A5D00010F06AFEDAF800305A4693F822310F2163
:10A5E000072010F0ADFE5946102010F05DFEDAF89D
:10A5F00000102E4BB1F81C11C6F810156FF0004278
:10A60000C6F80823C3F800901B680193082301993A
:10A61000C6F80433C7F88081C7F80080244B254969
:10A62000C6F800B0C6F82C16C6F830B6C3F800B0AD
:10A6300002E095F830301BB994F83030002BF8D098
:10A64000174B8022C3F88020BFF34F8FBFF36F8F6B
:10A6500014481549C3F8802101246FF00043C0F865
:10A6600008330C60FFF7B8FDFFF7C0FE0021102093
:10A6700010F01AFE224600230F21072010F060FE82
:10A680002146102010F010FE0B4B93F84000604064
:10A6900003B0BDE8F08F00BF14670020E465002020
:10A6A00000E100E000700040087000400C710040C4
:10A6B000047000405054002030820020A057002039
:10A6C00038B50DF05FFF214D4FF0A043D3F81025B2
:10A6D000D3F810152C681E4B01342C601C7B6FEADC
:10A6E000517101F001016FEA52128C4202F0010235
:10A6F00003D01C69041B0F2C20DC1978914203D075
:10A700005968411A032912DC5A7832B19A68D9691A
:10A71000821A8A42C4BF00225A705A7B32B15969E8
:10A72000DA69401A9042C4BF00225A7338BD094901
:10A730001A70012298605A700860E5E7054C197399
:10A740000121586159732060D7E700BF3879002094
:10A75000308200203081002070B51B20154D164E30
:10A7600010F0B8FD0DF00EFF40F20113A5F81C31FA
:10A770001B2010F0AFFD0446003C4FF00A0018BF4C
:10A7800001240DF00BFF1B2010F0A4FD03469C429A
:10A790004FF01B00EDD10DF0F5FE214602460548B5
:10A7A00003F06EFD054A95F81C31C2F80066002BD7
:10A7B000DED170BD187800203546526E0000014091
:10A7C0002DE9F04F604B1A7887B0002A7ED002F056
:10A7D000FF03023B012B79D90023CDE900335B4B0A
:10A7E0005B4A01210720C3F810051960D368D9011D
:10A7F00003D5584B1A68D20765D40FF0CDF8564BE5
:10A80000A0FB0301830A43EA8153544ADFF860A1A5
:10A81000136000204D4BDFF860C1DFF85881064619
:10A8200083464FF004094FF0010E4D4AC3F82C2621
:10A830000822C3F83026CAF800B0DAF800200492E3
:10A84000049ACCF800B0DCF800200392039AC3F815
:10A8500000E0DCF800204AB9C8F800E0D3F8002492
:10A86000012AFBD0DCF80020002AF5D0D3F82C56C2
:10A87000D3F8342692B25AB1441C0022D3F83416CD
:10A8800035F9027B89B2A018013291423E44F5DCD1
:10A89000B9F10109C9D196FBF0F0009B73BB07EE3B
:10A8A000900AF8EEE77A17EE900A10F031FF24A331
:10A8B000D3E9002314F0BAF911F032F8294B1860EB
:10A8C00007B0BDE8F08F5B689B099EE7264B8021AF
:10A8D000C3F88010BFF34F8FBFF36F8F1B4A23481D
:10A8E000C3F8801101236FF00041C2F80813036020
:10A8F000D2F810250093D3B2019370E7134B01995E
:10A900001B4AC3F810156FF00041C3F80813C2F8D2
:10A9100000901168144A059108248021059DC3F810
:10A920000443C2F88011116012490D4C01221A60D3
:10A93000C3F82C46C3F830260A60B0E7AFF30080B6
:10A94000E0CC9A796634533F3F36002000700040D7
:10A95000F0ED00E0001000E040420F0078810020A0
:10A9600050540020A036002000E100E008700040B4
:10A970000C7100400470004004710040F0B588493B
:10A980008848894F85B006F0EBFF80224FF0FF30FA
:10A9900014211F23CDE9011000931146834B8448F5
:10A9A00006F012FE834A8449814811F099F9082281
:10A9B0008021824805F002FE7E4A81497F4811F0DD
:10A9C0008FF9804A7A49804802F0E4FF7F4803F01B
:10A9D000B3FC7F4804F0C8F87E4804F0A7FB7E482B
:10A9E00003F0AAFC7D4804F0BFF87D4803F0A4FC06
:10A9F0007C4804F0B9F87C4804F098FB7B4804F0EC
:10AA0000B3F87B4804F092FB7A4804F0ADF87A483A
:10AA100004F08CFB794804F0A7F8794804F086FB31
:10AA2000784804F0A1F8784804F080FB774804F0F7
:10AA30009BF8774804F07AFB764804F095F876485E
:10AA400004F074FB754804F08FF8754804F06EFB51
:10AA5000744804F089F8744804F068FB00217348D6
:10AA6000FBF730FC03217248FBF72CFC03217148F3
:10AA7000FBF728FC04217048FBF724FC01216F48F8
:10AA8000FBF720FC04216E48FBF71CFC05216D48F8
:10AA9000FBF718FC05216C48FBF714FC02216B48FE
:10AAA000FBF710FC00216A48FBF70CFC0221694807
:10AAB000FBF708FC00216848FBF704FC012167480C
:10AAC000FBF700FC00216648FBF7FCFB0221654810
:10AAD000FBF7F8FB02216448FBF7F4FB0021634815
:10AAE000FBF7F0FB05216248FBF7ECFB0021614816
:10AAF000FBF7E8FB01216048FBF7E4FB02215F481C
:10AB0000FBF7E0FB5E4B5F4A5F49196300204FF49F
:10AB1000FA744FF480361080002550609E62906079
:10AB200001269081106150611076D46140F6FF7467
:10AB3000C3E90344C3E90544C3E9074482F820009C
:10AB40005C609C605C6283F82C0018651E80596311
:10AB50009963D9635562196459649964D9649062A0
:10AB6000D5623C68494B1063344055631960956366
:10AB70005960D0639960D96082F840601961596169
:10AB800002D1434B3E601C80424B1A68D20704D46A
:10AB900041491C20012208701A6005B0F0BD00BFB9
:10ABA00040840020B87200201439002068830020FF
:10ABB0003481002000360020F51503001C730020AE
:10ABC0000106030028F80300187800200074002014
:10ABD00048730020B074002084810020AC820020E3
:10ABE0000872002000750020B8750020087600204B
:10ABF000C076002010770020C87700205C7E0020FF
:10AC0000147F0020647F00201C800020F47A002044
:10AC1000AC7B00203C7A0020FC7B00204C7C002098
:10AC2000047D0020547D00200C7E0020345B002039
:10AC3000645C0020945D0020C45E0020F45F00206E
:10AC4000246100205462002084630020B46400204A
:10AC50004468002074690020A46A0020D46B00209E
:10AC6000046D0020346E002014670020E46500208D
:10AC7000646F0020A4570020D4580020045A0020FC
:10AC800020710020308200209AF979446C800020E5
:10AC90001C390020103900202C54002070B50446C7
:10ACA00082B01D480D46214611F0E1FF1B4B10B943
:10ACB0001A68AA422ED020461D6011F0FBFF0F2813
:10ACC00022D9154B0F222146184612F020F80022F7
:10ACD000C273134C0221204605F058FC00261423B1
:10ACE00020463146009301963246732305F0B4FDA9
:10ACF0000949A5824FF002132046E682236102B083
:10AD0000BDE870400CF02CBE421C2146024811F0F8
:10AD10008FF8DEE702B070BDA07000209C700020AC
:10AD2000348100202DE9F047C14D2B8813F00A0132
:10AD300082B004D003F01101113918BF012113F0C2
:10AD4000A00405D003F48874B4F5887418BF0124F6
:10AD500013F0440FB74A4CD0DE0713D4134251D03E
:10AD6000002933D1002C40F0C980B348B34FB44E12
:10AD7000DFF804834FF47841FFF790FFB148FDF707
:10AD8000D9FC56E0D805E9D513423BD0F1B9002CE7
:10AD900040F0B48013F0020403F0080203F040090D
:10ADA00000F0D9804FF47841002A40F00581B9F1D4
:10ADB000000F00F01281A448FFF770FFA348FDF7D1
:10ADC000B9FCA348FDF7E0FDA2480DE04FF478413F
:10ADD000002C63D0A048FFF761FF9C48FDF7AAFC58
:10ADE0009B48FDF7D1FD974802B0BDE8F047FDF75D
:10ADF000F5BE1342CAD12BB998484FF4FC61FFF756
:10AE00004DFF04E096484FF6E071FFF747FF8C4E88
:10AE100095ED0C0A9348894FDFF85C8204F062F8E4
:10AE200095ED0C0A904831464FF6E073002204F08D
:10AE300003FAD5ED0C7A95ED0D0A8C48B74208BFA0
:10AE4000B0EE670A04F04EF8D5ED0C7A95ED0D0AD8
:10AE50008748B74208BFB0EE670A39464FF6E0733D
:10AE6000002204F0E9F9B0453ED0B8450CBF95ED9D
:10AE70000D0A95ED0E0A7F4804F034F8B0453AD03B
:10AE8000B84565D095ED0E0A7B497C484FF6E073D6
:10AE9000002202B0BDE8F04704F0CEB97848674F11
:10AEA000674EDFF8D481FFF7F9FE6848FDF742FCF2
:10AEB000D5ED0C7A95ED0D0A6C48B74208BFB0EE9F
:10AEC000670A04F00FF8D5ED0C7A95ED0D0A684885
:10AED000B742224608BFB0EE670A39464FF6E07324
:10AEE00004F0AAF9B045C0D195ED0C0A614803F011
:10AEF000F9FFB045C4D195ED0C0AC5E74FF4784190
:10AF000060484F4EDFF87081FFF7C8FE95ED0C0AE0
:10AF1000544803F0E7FF95ED0C0A534831464FF6CD
:10AF2000E073002204F088F94948FDF72DFDB04593
:10AF300050D0424B98450CBF95ED0D0A95ED0E0A89
:10AF40004C4803F0CFFFB045D5D03C4B984599D144
:10AF500095ED0D0A98E713F0200A15D1590759D538
:10AF6000B9F1000F40F0C080002A00F097804FF444
:10AF700078414548FFF792FE3248FDF7DBFB434836
:10AF8000FDF702FD42482FE742484FF47841FFF7B2
:10AF900085FE95ED0C0A334803F0A4FF224695ED9B
:10AFA0000C0A274930484FF6E07304F045F9284869
:10AFB000FDF7EAFC364817E73748DFF8BC80204E3B
:10AFC000FFF76CFE2148FDF7B5FB3048FDF7DCFCD0
:10AFD000B045AED195ED0C0AB2E72F48174F184E89
:10AFE000DFF89480FFF75AFE1848FDF7A3FBD5ED74
:10AFF0000C7A95ED0D0A1D48B74208BFB0EE670AFE
:10B0000003F070FFD5ED0C7A95ED0D0A1848B742A4
:10B010004A465FE7002A40F0858013F0800440F044
:10B020008580B9F1000F40F08E8002B0BDE8F08756
:10B0300020710020EEFEFFFFDCF20300A8F1030008
:10B04000A4F10300C0F20300F8F20300B8F2030019
:10B05000BCF2030004F30300ACF2030098F2030017
:10B06000A4F2030000750020B875002008760020C7
:10B07000C076002010770020ACF10300C8770020D4
:10B08000C4F20300D0F2030024F30300F4F203003F
:10B0900014F3030008F30300E8F203004FF47841CF
:10B0A00038480192384F394EFFF7F8FD3848FDF720
:10B0B00041FBD5ED0C7A95ED0D0A3648B74208BF35
:10B0C000B0EE670A03F00EFFD5ED0C7A95ED0D0A90
:10B0D0003148019AB742394608BFB0EE670A4FF6C9
:10B0E000E07304F0A9F86FE64FF478412548264F45
:10B0F000264EFFF7D3FD2648FDF71CFBD5ED0C7A55
:10B1000095ED0D0A2348B74208BFB0EE670A03F079
:10B11000E9FED5ED0C7A95ED0D0A1F48B742394688
:10B120005246D9E71D484FF4784146E71C48019242
:10B130004FF47841FFF7B2FD95ED0C0A194803F082
:10B14000D1FE019A2BE74FF4784117480E4F0F4E6E
:10B15000FFF7A4FD0E48FDF7EDFAD5ED0C7A95ED5D
:10B160000D0A0C48B74208BFB0EE670A03F0BAFEFA
:10B17000D5ED0C7A95ED0D0A0748B74239462246BF
:10B18000AAE700BF18F30300A8F10300A4F103002D
:10B19000C0F2030008760020C076002030F30300E0
:10B1A0003CF303000075002048F3030010B54FF690
:10B1B000E07188B01A48FFF771FD1A4802F04EFEA0
:10B1C000184903A802F08AFC9DF81C4044B1012CE8
:10B1D00017D01549154808B0BDE810400CF0C0BBA9
:10B1E000134912480CF0BCFB124803F04BFA8023C1
:10B1F0000093114821461423102203F039FE08B0B1
:10B2000010BD0E4909480CF0ABFB802300930A489F
:10B2100019236622002103F02BFE08B010BD00BFE9
:10B22000A09D04001878002094F3030010950020DE
:10B230005CF30300007400204873002068F30300EF
:10B2400070B5404C237B82B0002B50D03E4D2B6814
:10B25000B3F5784F69D1637B3C4E03F0FF05002BBB
:10B2600037D033684FF6E075AB4235D1237803F021
:10B27000FF05FBB1364D2B68B3F5FC6F48D1637801
:10B28000344D03F0FF0433B12B684FF6E074A34252
:10B2900004D102B070BD2B68002BFAD00723CDE992
:10B2A00000342D48142313225A2105F0D5FA2C60BE
:10B2B00002B070BD264E3368002BE0D00723CDE9E5
:10B2C0000035254814231322462105F0C5FA3560C0
:10B2D000D5E73368002BC9D007221423CDE9002518
:10B2E0001D481946132205F0B7FA3560BEE7164E21
:10B2F00003F0FF053368002BADD00723CDE90035FF
:10B30000154814231322294605F0A6FA3560A2E752
:10B3100007234FF4FC66CDE900360F4814231322AF
:10B32000462105F099FA2E60A9E707234FF47846E5
:10B33000CDE90036084814231322002105F08CFAC9
:10B340002E6088E730820020F0700020F870002026
:10B35000EC700020F47000203481002070B5454C62
:10B36000237B82B0002B50D0434D2B68B3F5784F30
:10B3700073D1637B414E03F0FF05002B37D0336858
:10B380004FF6E075AB425DD1237803F0FF05FBB1CA
:10B390003B4D2B68B3F5FC6F47D16378394D03F013
:10B3A000FF0433B12B684FF6E074A34204D102B01E
:10B3B00070BD2B68002BFAD02823CDE90034324829
:10B3C0004E235022462105F047FA2C6002B070BD92
:10B3D0002B4E3368002BE0D03223CDE900352A48CC
:10B3E0004E231C22462105F037FA3560D5E7336835
:10B3F000002BC9D02823CDE9003523483223502221
:10B40000294605F029FA3560BEE71B4E03F0FF051B
:10B410003368002BADD03223CDE900351A481C2209
:10B42000294605F019FA3560A3E732234FF4FC668C
:10B43000CDE9003614484E231C22462105F00CFAB3
:10B440002E60AAE72823CDE900350F483223502289
:10B45000002105F001FA356096E732234FF4784673
:10B46000CDE9003608481C22002105F0F5F92E60D0
:10B470007FE700BF308200200071002008710020AB
:10B48000FC700020047100203481002010B52DEDE7
:10B49000028B82B0002464239FED1E8A0093214614
:10B4A00080231B221C48019405F0D6F91B484FF657
:10B4B0001F01FFF7F3FB224619491A48B0EE480A6C
:10B4C0004FF6E07303F0B8FEB0EE480A164803F0FA
:10B4D00009FD224615491648B0EE480A4FF6E073BA
:10B4E00003F0AAFEB0EE480A124803F0FBFCB0EEEF
:10B4F000480A1149114822464FF6E07303F09CFEBA
:10B500000F48B0EE480A02B0BDEC028BBDE8104017
:10B5100003F0E8BC9AF9794434810020B0F30300C9
:10B52000C0F10300FC7B00203C7A0020C4F1030042
:10B53000047D00204C7C0020C8F103000C7E00201C
:10B54000547D00202DE9F04F85B000222348019260
:10B5500080231146009305461446DFF88890204F5B
:10B5600005F07AF908231E4628460293CB4605F0DB
:10B5700025F94FF4806A039601E007F50067029B06
:10B58000002280261146CDE9006358463B4604F070
:10B5900045FD2846D9F8248005F03AF8039A009230
:10B5A0003346A2B20021284605F08AFF0023414617
:10B5B000009352460123284605F0EEFC0834284645
:10B5C00005F03CF8B44206D0782CD6D90023CDE95A
:10B5D00002339A46D1E705B0BDE8F08F34810020F0
:10B5E00054F803001C7300202DE9F04FD4490B6878
:10B5F00013F00103D1B017D1D248D34A0468536184
:10B60000C2E9013301254FF0FF339574D3601382F3
:10B61000002C00F0F481CD4B186800B18260CC485A
:10B620001A60012310600B60CA4FDFF87C83C648A4
:10B63000C94DCA4E22AC3946002301220BF0F8FB5B
:10B64000404621464BF2FF02F023ADF888208DF8EA
:10B650008A300BF0DBFC40F6192246233A80BB709F
:10B6600098F8001040460BF00FFC2846002105F02A
:10B670005DFF2846032105F0EBFEFFF763FFB84BA3
:10B680002B612846012104F081FF4FF61F036B61F7
:10B69000B44928460CF016F94FF4F00328462B6104
:10B6A000012104F073FF40F2FF736B61AE4928463D
:10B6B0000CF008F9AD4B2B612846012104F066FF20
:10B6C00045F2FB7380276B614FF06408A849284658
:10B6D0000CF0F8F8CDE900879FEDA60A2946F2EEB6
:10B6E000040A1B232046002202F002FE2146AC225F
:10B6F000A14810F09DFBCDE90087DFEDA00A9FED8A
:10B700009D0A29461B232046002202F0F1FD214616
:10B71000AC229B4810F08CFB57239FED960A0093B8
:10B72000F3EE040A2946282301972046002202F05E
:10B73000DFFD4FF6E0794FF002082146AC22914838
:10B7400010F076FBCDE9008929461423204600221B
:10B7500003F0B6FC4FF00A0A21464E228A4810F048
:10B7600067FB9FED840ACDF800A0F3EE090A294695
:10B77000252301972046002203F0CEF92146B82266
:10B78000824810F055FBCDE9008929463823204630
:10B79000002203F095FC21464E227D4810F048FB24
:10B7A0009FED740AF3EE090ACDE900A72946492363
:10B7B0002046002203F0B0F92146B822754810F067
:10B7C00037FBCDE9008929465C232046002203F09F
:10B7D00077FC21464E22704810F02AFB9FED650A47
:10B7E000F3EE090ACDE900A729466D232046002281
:10B7F00003F092F92146B822684810F019FB0FCEE9
:10B80000B2460DF1380E5AF804BBAEE80F00BAE8A4
:10B810000F000DF14C0CACE80F00DAF800A05B480B
:10B82000CEF800B00EAA13AB0521CCF800A003F0AF
:10B83000B1F913AB0EAA5448052103F0A3FC13ABD6
:10B840000EAA5448052103F0A5F913AB0EAA5048DF
:10B85000052103F097FC13AB0EAA5048052103F015
:10B8600099F906F1180B13AB0EAA4B48052103F00A
:10B8700089FCFCF7F7FDBBE80F000DF1600E06F147
:10B88000040CAEE80F00BCE80F000DF1740CACE83E
:10B890000F00DBF80030CEF80030CCF800A01DAB74
:10B8A00018AA4FF0140A3748052102F057FD9FED02
:10B8B000310A0197F3EE040A29466B232046CDF89E
:10B8C00000A0002203F028F92146B822344810F0E5
:10B8D000AFFA1DAB18AA3248052103F05BF900232B
:10B8E000CDE900891A462946204603F0E9FB2146A6
:10B8F0004E222C4810F09CFA1DAB18AA29480521AD
:10B9000003F040FC06F12C030FCB0DF1080906F102
:10B910003C0889E80F0098E80F000DF1180B8BE840
:10B920000F005B464A461448042102F017FD9FEDC4
:10B93000110AF3EE040A29466B23CDE900A735E08E
:10B9400034540020FC94002038540020009500203E
:10B9500044F70300AC74002034810020BCF70300DE
:10B960004100780028F8030038F803006E00080052
:10B97000587804000000000084810020000020426C
:10B980000872002000740020B875002000750020A7
:10B99000C076002008760020C877002010770020AD
:10B9A00048730020B0740020E89400202046002254
:10B9B00003F0B2F82146B822144810F039FA5B4679
:10B9C0004A461248052103F0E5F84C360F48009727
:10B9D00019236622002103F04BFA96E80F000AAD06
:10B9E00085E80F0098E80F0084E80F000848234618
:10B9F0002A46042102F0B2FC51B0BDE8F08F054B9D
:10BA00000260186800287FF409AE08E6AC820020C6
:10BA1000087200200095002010B501210B200FF0C6
:10BA2000ABFB00210B200FF03FFC32200CF0B6FDE9
:10BA300001210B200FF038FC012119200FF09CFB95
:10BA4000002119200FF030FC012111200FF094FB90
:10BA5000002111200FF028FC012113200FF08CFB96
:10BA6000002113200FF020FC012110200FF084FB97
:10BA700001210F200FF080FB012107200FF07CFB3C
:10BA8000002110200FF010FC00210F200FF00CFC03
:10BA9000002107200FF008FC002110200FF004FC0B
:10BAA000002301220F2107200FF04AFC0121102062
:10BAB0000FF0FAFB00211B200FF05EFB2D484FF426
:10BAC000E1310CF055F92C480AF0FAFF002848D073
:10BAD000FFF78AFDFA200CF061FD284925480BF09C
