:020000022000DC
:106000000000012041850200818502008385020095
:106010008585020087850200898502000000000056
:10602000000000000000000000000000BD8402002D
:106030008D85020000000000DD84020091850200D1
:106040009385020093850200698D0200938502000A
:1060500093850200938502009385020093850200D8
:1060600093850200938502009385020093850200C8
:1060700093850200938502009385020093850200B8
:1060800093850200E5820200938502009385020059
:106090009385020093850200938502009385020098
:1060A0009385020093850200938502009385020088
:1060B00093850200938502000000000000000000AC
:1060C0009385020093850200938502009385020068
:1060D0009385020093850200938502000000000072
:1060E00000000000000000000000000000000000B0
:1060F00000000000000000000000000000000000A0
:10610000000000000000000000000000000000008F
:10611000000000000000000000000000000000007F
:10612000000000000000000000000000000000006F
:10613000000000000000000000000000000000005F
:10614000000000000000000000000000000000004F
:10615000000000000000000000000000000000003F
:10616000000000000000000000000000000000002F
:10617000000000000000000000000000000000001F
:10618000000000000000000000000000000000000F
:1061900000000000000000000000000000000000FF
:1061A00000000000000000000000000000000000EF
:1061B00000000000000000000000000000000000DF
:1061C00000000000000000000000000000000000CF
:1061D00000000000000000000000000000000000BF
:1061E00000000000000000000000000000000000AF
:1061F000000000000000000000000000000000009F
:1062000010B5054C237833B9044B13B10448AFF3F0
:1062100000800123237010BDF03500200000000035
:10622000F0D1020008B5034B1BB103490348AFF39B
:10623000008008BD00000000F4350020F0D102000D
:10624000154B002B08BF134B9D46A3F5803A002148
:106250008B460F461348144A121A03F0DCF90F4B11
:10626000002B00D098470E4B002B00D09847002001
:10627000002104000D000D48002802D00C48AFF3A7
:10628000008003F089F92000290002F097F903F05B
:106290005DF900BF000008000000012000000000C0
:1062A00000000000F0350020743E002000000000D7
:1062B00000000000704700001FB50C4C0C234FF08D
:1062C000FF32CDE902320D2180221423CDE90031C5
:1062D000204611461F2301F069F8054A054920466A
:1062E00004B0BDE8104003F0FFB800BF0C3600203A
:1062F00000340020E573020037B50D4D002128461B
:1063000000F0BEFF00248023CDE900342246214660
:10631000284600F02BFD7F234FF6FF72CDE90032B7
:1063200021462246284600F033F903B030BD00BFB5
:106330000C3600202DE9F04F85B01D46BDF93840E0
:10634000BDF83CA0A31A83EAE37BABEBE37B6B1ABB
:10635000002BB8BF5B429B4581461646019304DC87
:1063600023460E462C4611461D46A64205DC2B460A
:106370000D461946234634461E464B1B002BA6EB02
:106380000408B8BF5B421FFA88F802930FFA88F737
:10639000022397FBF3F300938D42ACBF4FF0FF3322
:1063A00001230393B44220DCD9F800301B691F4657
:1063B000019B9B45CCBF22462A465346CCBF29466B
:1063C00021464846B847009A029BD71ABBB21AB278
:1063D000002A009206DA039A08EB030715443BB241
:1063E0002DB20093013424B2DCE705B0BDE8F08F94
:1063F000704710B40468A468A4465DF8044B604775
:1064000030B40468BDF808500295246BA44630BC33
:10641000604730B40468BDF808500295646BA44628
:1064200030BC604770B4BDF90C50BDF81060046812
:10643000CDE90356A46BA44670BC60472DE9F34137
:106440001C460368BDF82080DB6805461646013C03
:1064500034440F4624B298472B68CDF8048000944A
:106460001C6A28463B4632463946A0472B685B6A81
:10647000284602B0BDE8F04118472DE9F3411D461A
:106480000368BDF82080DB68044617460E4698472F
:10649000CDE9007822686B1E3344156A20461BB292
:1064A0003A463146A84723685B6A204602B0BDE8F9
:1064B000F04118472DE9F3471E460368BDF92880CF
:1064C000DB68BDF82C900C460546174698472644D5
:1064D000B4422A680BDACDF80090D2F818A0214611
:1064E00043463A4628460134D04724B2F0E7536A7F
:1064F000284602B0BDE8F047184713B5B0F90E20A2
:106500000468019100920022B0F90C30A46B11468E
:10651000A04702B010BD2DE9F3471D460368BDF842
:106520002C70DB68BDF928900446884616469847CB
:1065300023680097D3F81CA032462B4641462046DC
:10654000D0472368009709F1FF323244D3F81CA0EA
:1065500041462B46204612B2D04723680097D3F815
:1065600018A032464B4641462046D0472368009744
:10657000691E41449D6920464B46324609B2A847F0
:1065800023685B6A204602B0BDE8F04718477047B1
:106590002DE9F347994280460C4615469946BDF9C8
:1065A0002860BDF82CA0076811D1B242DCBF334689
:1065B0001D46CDF828A0D8BF16466B1C3D6B9B1B13
:1065C0001BB23246AC4602B0BDE8F0476047B2426B
:1065D0000ED19942D8BF1C46CDF828A0D8BF894615
:1065E000631C7C6BA3EB09031BB24946A446EAE794
:1065F000FB689847CDE9006AD8F8003040461E6A2B
:106600002A464B462146B047D8F800305B6A4046E0
:1066100002B0BDE8F047184701F003010129817677
:10662000B0F90830B0F90A2004D0032902D08381E0
:10663000C28170478281C3817047000030B54281BA
:10664000C2814FF0FF32426140F201120024064D38
:1066500002830122446005600181818104618476A6
:10666000C2760477046230BD40CC02002DE9F04FC1
:1066700091B09146026A05911F46BDF868300293B9
:106680000446BDF86CA09DF870609DF87450002A17
:1066900040F0B880B0F90C308B4240F33781B0F94C
:1066A0000E304B4540F33281062313FB0613002BBB
:1066B00040F32C8109EBC503002B40F32781037FB6
:1066C0001BB9AF2F84BF0137FFB223682046DB68B8
:1066D000984705230A931FFA89F34FF000080693A1
:1066E00005238C4A13FB0783D35C0793B3B208934B
:1066F000BDF814300393039A089B08FB03231BB2D5
:10670000099308230B930023049312FA88F31BB216
:106710000C93079A2368D2074DD5012EBDF810209F
:106720003AD1012D38D10699D3F810B0029B0A4412
:1067300012B20C992046D847049B01335BB20493F4
:10674000079B5B0807930B9B013B13F0FF030B9325
:10675000DFD10A9B013B08F1010813F0FF034FFA58
:1067600088F80A93BCD1029B53450ED0012E2368B2
:1067700037D1012D35D10399CDF800A005319D69A0
:106780004A46082309B22046A84723685B6A204688
:1067900011B0BDE8F04F1847069915FB02F20A4404
:1067A000029901910095D3F814B00999334612B2B9
:1067B0002046D847C0E7029A5245BDD0012EBDF809
:1067C000102007D1012D05D10699D3F810B00A4445
:1067D0005346ADE70699CDF804A015FB02F20A4432
:1067E000E0E7089ACDF804A002EB8201039AED00DD
:1067F0000A44114600955D694A46334609B220466F
:10680000A847C2E7137A516812680D92FF1AFFB2C7
:1068100001EBC70331F8372003929A780792DA78B0
:106820000B92012E93F90520089293F906B001D836
:10683000012D51D9BDF9203006930FFA8BF3049343
:1068400023682046DB6898471FFA89F34FF0000859
:1068500009935B44C24647460F930B9B9F4294D2D9
:10686000049B099A3B4403FB05230F9A3A441BB24D
:1068700012B20A934FF0000943460E92079A9145CF
:106880003DD25A1CD2B25B070C9207D1039B0399ED
:106890000D9A01339BB212F801A003931AF0800FF6
:1068A00010D0012E2268BDF8141019D1012D17D176
:1068B000089BD2F810B00E9A19444944029B09B2C1
:1068C0002046D8474FEA4A0A09F101095FFA8AFAD5
:1068D0005FFA89F90C9BD1E7002304930693AFE795
:1068E000069B4B4403FB0611029BCDE9005309B202
:1068F000D2F814B00A9A33462046D847E2E7079BFD
:10690000013798445FFA88F8FFB2A6E711B0BDE8F6
:10691000F08F00BF38C70200F0B5026A85B00446A8
:106920000B46002A34D10A2908D10282438A427ECA
:1069300003EBC2036382012005B0F0BD0D29FAD03C
:10694000E17E007E657E71B1B4F91060062111FB15
:106950000061B4F90C60B142C1BFB4F912102282D7
:1069600001EBC5026282CDE90205E08A0190A08AAE
:10697000B4F912200090B4F910102046FFF776FE0B
:10698000237E228A03EB430302EB43032382D2E7F5
:106990000A2907D100230382937A417E428A01FBB0
:1069A0000323C7E70D29C6D0157AA942C3D3517A6C
:1069B0009942C0D35D1B5168EDB201EBC505AF78BC
:1069C0002FB3E97819B3E17E007E667E91B195F927
:1069D00005103944B4F9107000FB0171B4F90C7062
:1069E000B94207DD00272782B4F91210927A02FB20
:1069F00006126282CDE90206E08A0190A08A009028
:106A0000B4F91220B4F910102046FFF72FFE2979AF
:106A1000237E228A01FB0323B8E7012102F014B888
:106A2000002102F011B810B50446002190F90000D1
:106A300002F00AF894F900000121BDE8104002F0CC
:106A400003B8000038B512B2044609B21D46FFF77C
:106A5000F5FD114B2360012384F838309DF91C307B
:106A600084F839309DF9103084F83B300023E3631B
:106A7000A4F8403063649DF9183084F826309DF9FD
:106A8000143084F824309DF9203084F83A5084F88A
:106A90002530204638BD00BF90CC0200F8B5044632
:106AA000534D90F93A00002918BF0D4600281746AB
:106AB00007DB012101F0A0FF012194F93A0001F068
:106AC000C3FF012194F93B0001F096FF012194F9E5
:106AD0003B0001F0B9FF94F83860002E51D1454BCE
:106AE0009D423FD9444B9D423FD9444B9D423FD9A3
:106AF000434B9D423FD9434B9D423FD9424B9D4220
:106B000094BF4FF080454FF000450023C4E90C3797
:106B1000606A3E4BA562984284F82C7001D100F067
:106B2000B3FC94F93900002860DB012101F064FF17
:106B3000012194F9390001F087FF642000F01CFD69
:106B4000002194F9390001F07FFF642000F014FD6A
:106B500094F93900012101F077FFC820BDE8F84021
:106B600000F00ABD4FF00075CFE74FF08065CCE72D
:106B70004FF00065C9E74FF08055C6E74FF000556C
:106B8000C3E7012E1BD1314694F9240001F034FFF4
:106B9000002194F9240001F057FF314694F92600B2
:106BA00001F02AFF94F92600002101F04DFF94F92D
:106BB00025000028B5DB002101F01EFFB1E701210F
:106BC00094F9250001F018FF94F92500012101F046
:106BD0003BFF94F926000028A3DB012101F00CFF04
:106BE000012194F9260001F02FFF9AE7F8BD00BFBC
:106BF0000024F40048E8010090D0030020A1070021
:106C000040420F0080841E0000093D0054360020E1
:106C10002DE9F041054688461446002A3AD090F8FE
:106C200038300F0ACEB25BB914F1FF3432D3394693
:106C3000686A00F050FC3146686A00F04CFCF3E7EB
:106C4000012B1DD114F1FF3424D3474610263B04F9
:106C50004CBF0121002195F9240001F0F5FE013E11
:106C6000012195F9260001F0EFFE7F00002195F942
:106C70002600B6B2BFB201F0E7FE002EE7D1E1E791
:106C8000B74207D0253514F1FF3403D32846FFF768
:106C9000CAFEF8E7BDE8F0812DE9F341BDF92050C7
:106CA000BDF824701E46ABB20093036892B2D3F8CD
:106CB0004C8089B2B3B20446C04706FB05F23946A0
:106CC000204602B0BDE8F041FFF7A2BF2DE9F34135
:106CD000BDF92040002B46D0002C44D0002B05DA13
:106CE0009BB2013119445B4209B21BB2B0F90C608E
:106CF0008E4238DD002C05DAA4B20132224464420F
:106D000012B224B2B0F90E5095422CDD01EB03080B
:106D10001FFA88F808F1FF3C0FFA8CFCBCF1000F59
:106D200021DB02EB040E1FFA8EFE0EF1FF373FB29D
:106D3000002F18DB0029BCBF0FFA88F30021002ABE
:106D4000BCBF0FFA8EF400226645DCBF731A1BB27B
:106D5000BD42D8BFAC1ABDF82450D8BF24B2CDE98B
:106D60000045FFF799FF02B0BDE8F0812DE9F74338
:106D700080460E461746BDF92850BDF82C901C469B
:106D8000002B52D0002D50D0002B05DA9CB20136DA
:106D90002644644236B224B2B8F90C30B34244DD22
:106DA000002D05DAADB201372F446D423FB22DB24E
:106DB000B8F90E20BA4238DD06EB040E1FFA8EFE3B
:106DC0000EF1FF3000B200282FDB07EB050C1FFA95
:106DD0008CFC0CF1FF3109B2002926DB002EBCBF70
:106DE0000FFA8EF40026002FBCBF0FFA8CF5002797
:106DF0008342DCBF9B1B1CB28A42D8F80030DCBF48
:106E0000D51B2DB24046DB68984723464046CDE966
:106E100000593A463146FFF73FFFD8F800305B6A29
:106E2000404603B0BDE8F043184703B0BDE8F08327
:106E30002DE9F341171E06460C461D46BDF820807D
:106E400033DBB0F90E30BB422FDD002D2DD005DA3B
:106E5000ADB201342C446D4224B22DB2B6F90C30DF
:106E6000A34222DD601980B2411E09B200291CDB59
:106E7000002CBCBF05B200248B42DCBF1B1B1DB223
:106E800033683046DB6898470123009330462B4631
:106E9000CDF804803A462146FFF7FEFE33685B6A70
:106EA000304602B0BDE8F041184702B0BDE8F081BD
:106EB0002DE9F3410F1E064614461D46BDF82080FD
:106EC00031DBB0F90C30BB422DDD002D2BD005DAC3
:106ED000ADB201342C446D4224B22DB2B6F90E305D
:106EE000A34220DD601980B2421E12B2002A1ADBD2
:106EF000002CBCBF05B200249342DCBF1B1B1DB29B
:106F000033683046DB6898473046CDE900580123A6
:106F100022463946FFF7C0FE33685B6A304602B04E
:106F2000BDE8F041184702B0BDE8F081002A73B512
:106F300027DBB0F90E40944223DD002B21D005DA87
:106F40009BB2013119445B4209B21BB2B0F90C404B
:106F50008C4216DDCE18B6B2751E2DB2002D10DB98
:106F60000029BCBF33B20021AC42D8BF631ABDF8C0
:106F7000184001944FF00104D8BF1BB20094FFF7F2
:106F80008BFE02B070BD73B5002926DBB0F90C4052
:106F90008C4222DD002B20D005DA9BB201321A444C
:106FA0005B4212B21BB2B0F90E40944215DDD61806
:106FB000B6B2751E2DB2002D0FDB002ABCBF33B256
:106FC0000022AC42D8BFA31ABDF81840D8BF1BB2EC
:106FD000CDE900340123FFF75FFE02B070BD90F8E9
:106FE00038302BB900F128030ECB406A00F062BAAA
:106FF000704710B50446FFF7F2FF94F93A000028F5
:1070000003DBBDE81040FFF70BBD10BD90F8383032
:1070100013B9406A00F05ABA704710B5044690F9A7
:107020003A00002801DBFFF7F8FC2046FFF7EEFFEF
:1070300010BD70B590F8383004460E4623B9406A4A
:10704000BDE8704000F047BA012B19D1082533067E
:107050004CBF0121002194F9240001F0F5FC01212D
:1070600094F9260001F0F0FC013D002194F926007E
:10707000760001F0E9FC15F0FF05F6B2E7D170BD2E
:107080002530BDE87040FFF7CEBCF8B504460D468C
:1070900016461F46FFF7A3FF94F93A00002801DBCC
:1070A000FFF7BEFC94F93B00FFF7BAFC29462046E7
:1070B000FFF7BFFF94F93B00FFF7AFFC3546AB1B72
:1070C0009F4205DD15F8011B2046FFF7B2FFF6E7EA
:1070D00094F93A00002801DBFFF79FFC2046FFF7F8
:1070E00095FFF8BDF8B504460D4616461F46FFF756
:1070F00076FF94F93A00002801DBFFF791FC94F940
:107100003B00FFF78DFC29462046FFF792FF94F9DC
:107110003B00FFF782FC3546AB1B9F4205DD15F8AF
:10712000011B2046FFF785FFF6E794F93A00002897
:1071300001DBFFF772FC2046FFF768FFF8BD38B5AA
:1071400004460D4690F93B00FFF76AFC20462946AD
:10715000FFF76FFF94F93B00BDE83840FFF75DBCD7
:10716000036870B5DB680D460446984755B194F83E
:1071700040102046FFF7E3FF236820465B6ABDE826
:107180007040184794F84110F3E770B590F8383024
:1071900004460D464BB9090A406A00F09CF9E9B271
:1071A000606ABDE8704000F096B9012B19D1102635
:1071B0002B044CBF0121002194F9240001F044FC70
:1071C000012194F9260001F03FFC013E002194F9D1
:1071D000260001F039FC6D0016F0FF06ADB2E7D1D4
:1071E00070BD2530BDE87040FFF71DBC73B50029A8
:1071F00004461D4617DBB0F90C308B4213DD002A24
:1072000011DBB0F90E3093420DDD066801230093C7
:10721000F66C92B289B2B0472946204602B0BDE86A
:107220007040FFF7B2BF02B070BD2DE9F3410E1EF2
:10723000044615461F4620DBB0F90C30B3421CDD76
:10724000002A1ADBB0F90E30934216DD0368DB68C2
:107250009847226801230093D2F84C80B1B2AAB2B9
:107260002046C04720463946FFF78FFF23685B6AF8
:10727000204602B0BDE8F041184702B0BDE8F081F9
:107280000F4B70B50222002908BF19460546FFF7CB
:1072900005FC0C4C217869B16378FF2904F10206E2
:1072A00003F07F0404D0234632462846FFF71AFF36
:1072B0003444EFE72B6828469B6ABDE870401847C6
:1072C00000366E01E0CC020013B501F00301022983
:1072D00004468176B0F90830B0F90A2024D0032999
:1072E00024D001291AD074218DF80610A381E281DF
:1072F0000DF1060220460123A021FFF7C6FEA37E62
:1073000002AA012B94BFA37A002302F8013DA12118
:1073100001232046FFF7B9FE02B010BD77218DF89A
:107320000610A281E381E3E76621DDE76521F6E748
:1073300000294FF000031A4614BFA721A621FFF72A
:10734000A4BE2DE9F041BDF818405E1E837E013CCD
:107350000E441444DB0705460F469046B6B2A4B26D
:1073600004D533461746264688461C46284615212E
:10737000FFF7E5FEF9B22846FFF75BFEF1B22846BB
:10738000FFF757FE28467521FFF7D9FE5FFA88F10F
:107390002846FFF74EFEE1B22846FFF74AFE284690
:1073A0005C21BDE8F041FFF7CABE000030B587B0F0
:1073B0004FF0FF3504959DF9345003959DF93050F9
:1073C00002959DF92C5001959DF928500095044691
:1073D000FFF738FB024B2360204607B030BD00BFEB
:1073E0001CCD02007047000038B50025057329B98F
:1073F0000B4B0C4A0C48232102F07CF801600B492E
:1074000051F82220027151F8233083719DF8103019
:1074100051F8233043710223C371856038BD00BF2A
:107420006CCD0200E0CD02007ACD020020CE020039
:10743000037B23B943738373036101230373704791
:1074400084B00DF1100C0CE90E009DF808100268D4
:1074500000230129C2F80035039B12D00BD3032966
:107460000CD0C2F85435019BC2F824350123C2F870
:10747000003504B0704743F00203F2E743F0040321
:10748000EFE743F00603ECE710B5FFF7D1FF036821
:107490008279C3F808254279C3F80C250279C3F82C
:1074A0001025034BBDE810400ECBFFF7C9BF00BF4E
:1074B0006836002010B485B001AC84E80E0094E872
:1074C0000E0005B05DF8044BFFF7BABF0368002259
:1074D000C3F8002570470368C3F81C15D3F80821CA
:1074E000002AFBD0D3F818050022C3F80821C0B247
:1074F0007047000007B5094B09490A484FF0804220
:107500001A6000229A6002221A710D2300930E2243
:107510000C23FFF769FF03B05DF804FB6836002019
:10752000003000405436002008B50121112001F040
:1075300063FA112001F09AFA1320012101F05CFA9C
:107540001320BDE8084001F091BA2DE9F04106464C
:107550000D4601EB02080C464445A4EB050707D095
:10756000336814F8011B1B68304698470028F3D194
:107570003846BDE8F081FEE780024FF47A73B0FB35
:10758000F3F000F0C1BA00002DE9F041044600F02C
:1075900095FE314B314D1A68314E01321A602A681E
:1075A000002A4FD12C601B68012B25D12D48DFF814
:1075B000EC802D4F01F0EEFB2C4801F0EBFB2C484A
:1075C00001F0E8FB2B4801F0E5FB2B4801F0E2FB62
:1075D000404601F0DFFB384601F0DCFB274801F0B4
:1075E000D9FB274801F0D6FB264801F0D3FB264BF8
:1075F000C3F80080254B1F60254A136801331360D0
:10760000244AE3631168E36A8B4288BF1360154A1A
:10761000142000FB0320211D01F0CAFB00F058FEDE
:1076200033686BB12B68DA6AE36A9A4208D21A4B64
:107630004FF080525A6040BFBFF34F8FBFF36F8F40
:10764000BDE8F0813368002BD6D12B68DA6AE36A93
:107650009A4298BF2C60CFE7E436002074360020B1
:107660004437002080360020103700209436002058
:10767000A8360020BC360020D0360020303700204D
:107680005C37002048370020783600207C36002008
:10769000F4360020F836002000ED00E0FC36002033
:1076A000094B0A4A1B681268D06A50B9084A126826
:1076B000012A07D833B9074B1868074B1B68C01A53
:1076C00070470020704700BFF83600207436002055
:1076D000803600202837002070370020064A1368C3
:1076E0001968064B19B94FF0FF321A6070471268DB
:1076F000D268D2685268F8E7783600202837002030
:107700002DE9F047DDE9097496000D4632468046C2
:10771000A521206B994601F07EFF236B043E1E4499
:1077200026F007066B1E04F13402073513F8011F1B
:1077300002F8011B197809B1AB42F7D1089D042D5D
:1077400028BF04254FF0000AE562C4E9115A201D44
:1077500084F83BA001F029FBC5F1050504F11800F0
:1077600001F023FBC4F84CA02461A561646284F895
:1077700050A04A464146304600F068FD206007B1FF
:107780003C60BDE8F08710B590F8513004463BB935
:10779000006B01F050FB2046BDE8104001F04BBBF0
:1077A000012BF9D010BD0000F8B5164B164E1C6821
:1077B0000546306804300F4601F01DFB6B1C334654
:1077C00007D137B1316811480431BDE8F84001F004
:1077D000EFBA1A686419546007D30D4A1068196823
:1077E000BDE8F840043101F0EFBA0A4A10681968A0
:1077F000043101F0E9FA084B1A68A24288BF1C6004
:10780000F8BD00BF703700207436002048370020D4
:107810007C360020783600202837002030B587B02D
:10782000DDE90B458DB194B12C63022485F85140FC
:1078300005AC01940A9C02950094FFF761FF28466D
:10784000FFF7A2FE059807B030BD2846FBE72046AB
:10785000F9E72DE9F043074685B0900088461646C3
:10786000994601F0D9FA0546E8B1542001F0D4FA5E
:107870000446A8B1002380F851300D9B05630193A5
:107880000C9B0290009332464B4641463846FFF728
:1078900037FF2046FFF778FE012005B0BDE8F083F2
:1078A000284601F0C8FA4FF0FF30F6E710B588B06F
:1078B000002407AA06A905A8CDE9054400F0ECFFBD
:1078C000059B0293069B079A0E490F48CDE900439A
:1078D0002346FFF7A3FF0D4B186080B100F06AFB51
:1078E00001280CD1402383F31188094B4FF0FF325C
:1078F0001A60084B1860084B1C6000F0B9FC08B017
:1079000010BD00BFA0CE0200397B0200243700204A
:10791000283700204437002070370020024A1368BF
:1079200001331360704700BFF0360020014B186828
:10793000704700BF70370020024A13681844106077
:10794000704700BF703700202DE9F84F2E4B1B68A1
:10795000002B53D12D4B1D6801351D605DB92C4A9C
:107960002C4B1168186810602B4A1960136801339A
:107970001360FFF7B3FE294F3B68AB424FF00006A0
:1079800007D9274B1B68002B0CBF30460120BDE8F0
:10799000F88FDFF87C90DFF894A0DFF894B0D9F886
:1079A00000301B681BB94FF0FF333B60E9E7D9F8A3
:1079B0000030DB68DC6863689D42F6D304F104089C
:1079C000404601F018FAA36A1BB104F1180001F057
:1079D00012FAE36ADAF800201420934200FB03B0A5
:1079E000414688BFCAF8003001F0E2F90D4BE26A67
:1079F0001B68DB6A9A4228BF0126D0E70A4A13684F
:107A0000013313600026BCE7F036002070370020F9
:107A1000783600207C3600202C37002028370020C4
:107A20007437002074360020EC360020F836002031
:107A3000803600202DE9F04100F040FC294B1A6807
:107A4000013A1A601C682CB1002400F041FC204669
:107A5000BDE8F081244B1B68002BF5D0234D244E4C
:107A6000DFF8A0801DE0EB68DC68271D04F118003A
:107A700001F0C1F9384601F0BEF9E36A326814201A
:107A8000934200FB0380394688BF336001F090F9D0
:107A9000184BE26A1B68DB6A9A4202D3164B01223A
:107AA0001A602B68002BDED10CB1FFF717FE134DC7
:107AB0002C6844B1104E0127FFF746FF00B1376034
:107AC000013CF9D12C600C4B1B68002BBCD00C4B3B
:107AD0004FF080525A6040BFBFF34F8FBFF36F8F9C
:107AE0000124B2E7F0360020E436002030370020D1
:107AF000F83600207436002074370020EC36002061
:107B000000ED00E08036002008B548B9094B4FF081
:107B100080525A6040BFBFF34F8FBFF36F8F08BDD5
:107B2000FFF7FCFE0021FFF73FFEFFF783FF002871
:107B3000ECD0F4E700ED00E0F8B51B4C1B4F1C4DFA
:107B40002368EBB91B4B1B68012B08D91A4B4FF06C
:107B500080525A6040BFBFF34F8FBFF36F8F00F06A
:107B6000EDFCFFF79DFD0128E9D9FFF7D7FEFFF7F0
:107B700097FD012801D900F00BFCFFF75BFFDEE762
:107B800000F09CFBFB68DE68301D01F034F92B68C7
:107B9000013B2B602368013B236000F099FB3046DA
:107BA000FFF7F1FDCCE700BFE83600205C3700208E
:107BB000E43600208036002000ED00E0F8B5194BD7
:107BC0001A68194B12B101221A60F8BD174C1A60DD
:107BD0002268236812681B6B9A4204D820682168C7
:107BE000343100F057FE124E124B32684FF0140C35
:107BF0001F460CFB02F158185D5885B145680831E5
:107C00006D6845600B449D4204BF6B68436014235C
:107C100003FB02735B68DB6823603260D5E7013ADF
:107C2000E7E700BFF03600207437002074360020EC
:107C3000F83600208036002010B5064B0C46196837
:107C4000183101F0C1F820460121BDE81040FFF7CE
:107C5000ABBD00BF7436002038B5084B0D4619681F
:107C60001446183101F0A4F8002C21460CBF284618
:107C70004FF0FF30BDE83840FFF796BD7436002066
:107C800038B5C368DC6804F11805284601F0B3F87C
:107C9000114B1B68EBB9251D284601F0ACF80F4AC3
:107CA000E36A11688B4288BF13600D4A142029468D
:107CB00000FB032001F07CF80A4BE26A1B68DB6AD8
:107CC0009A4285BF084B012000201860FFF706FD8F
:107CD00038BD29460548EDE7F0360020F83600208B
:107CE00080360020743600207437002030370020A2
:107CF000034B1B680360034B1B684360704700BF66
:107D00002C3700207037002070B50C46054600F077
:107D1000D5FA0F4B1A682368591C0FD00D482E68EE
:107D200000686968864201D091420ED9521A934286
:107D300009D99B1A23602846FFF7DAFF002400F0D8
:107D4000C7FA204670BD002323600124F7E700BF77
:107D5000703700202C370020014B01221A60704739
:107D600074370020084B186860B9084B1B6853B97A
:107D7000074B1868074B1B68013B984214BF012052
:107D800002207047002070473037002074370020F1
:107D900048370020E4360020054B1B6833B1054B03
:107DA0001B68002B0CBF0220002070470120704789
:107DB00044370020F0360020F8B5044600282BD0C8
:107DC0001B4AC36A1168C96A8B42164627D2826968
:107DD000184D002AA1BF3268D26AC2F10502826141
:107DE000142202FB035342699A4211D1071D3846FF
:107DF00001F001F83368104ADB6A1168E3628B42D4
:107E00000BD81420394600FB035000F0D1FF02E0EC
:107E10003368DB6AC3620120F8BD1360F1E71368C1
:107E2000406CDC6AA0422CBF00200120F4E700BFB8
:107E30007436002080360020F836002038B504461D
:107E400008B9002038BD836CC16A426C013B914285
:107E50008364F6D0002BF4D1051D284600F0CBFF3B
:107E6000636CE362C3F10502A261074A11688B42A9
:107E700088BF1360054A142000FB0320294600F048
:107E800097FF0120DEE700BFF83600208036002093
:107E900070B5044650B3436C994238BF1946C36A63
:107EA0008B4223D0826C012A20D18269104DC1629D
:107EB000002A4FF0140202FB03534269A4BFC1F130
:107EC000050181619A4211D1061D304600F093FFF1
:107ED000084AE36A116814208B4200FB03503146C4
:107EE000BDE8704088BF136000F062BF70BD00BF86
:107EF00080360020F8360020044B1A681AB1196841
:107F00008A6C01328A641868704700BF743600209A
:107F1000F7B5114C00F0D2F92568BDB90F4F104EDE
:107F2000384600F037FF304600F034FF0D4B0E4A64
:107F30001F600E4B10211E60202000950C4B01F09D
:107F400049F8206010B10B4901F04AFA03B0BDE8CE
:107F5000F04000F0BDB900BFFC390020803900209E
:107F60009439002078370020803700207C370020AB
:107F7000AC390020A5CE0200914208B541600061F5
:107F80000AD8D21A83699A420DD2084B011D18688B
:107F900000F01AFF002008BD9A4201D2994202D295
:107FA000011D034BF3E70120F5E700BF7C370020FC
:107FB0007837002010B588B0FFF7AAFF0E4B18687D
:107FC0000024B8B107AA06A905A8CDE9054400F028
:107FD0006FFC059B0293069B019302230093079A73
:107FE000064907482346FFF719FC064B1860001B9B
:107FF00018BF012008B010BDFC390020AACE020035
:10800000B5800200003A00207FB50F4C054620687D
:1080100016461A4680B10529CDE9001602950DDCF9
:10802000FFF7BAFE0023022808BF089A206818BF8D
:108030001A46694601F002F804B070BD0023694693
:1080400001F08EF8F8E700BFFC3900202DE9F3417C
:10805000164D4FF000082B681A6832B9144A11689F
:108060002960136002B0BDE8F081DB68DC681E683F
:10807000271D384600F0BFFE636A20469847E36933
:10808000012BE8D1A36933449E4206D26360246188
:108090003946286800F098FEDDE70023CDF800801F
:1080A000324619462046FFF7AFFFD4E77837002065
:1080B0007C3700202DE9F04F5D4D89B0A9464FF087
:1080C000000A2A681368002B4ED0D268D2F800B09C
:1080D000584C0393FFF722FCFFF728FC2268564E0A
:1080E000039B90428046274640D2FFF7AFFFC4F87B
:1080F0000080FFF79FFC4FF0010B002204A93068BD
:1081000001F05EF80028DCD0049B002B03DADDE9E7
:108110000601059B9847049B002BEEDB069C6369D8
:1081200013B1201D00F067FEFFF700FC3B6898428A
:10813000024603D20390FFF789FF039A049B3A603B
:10814000092BDAD80BFA03F313F4047868D113F08F
:10815000C70F4AD19B06D0D594F82C30002BCCD138
:10816000204600F068FEC8E79B46B1E720600BB3ED
:10817000834538D8FFF75EFCD9F80030DB68DC684F
:10818000201D00F038FEE369012B0FD1A1695B4689
:10819000424659442046FFF7EFFE38B10023CDF8A0
:1081A00000A05A4619462046FFF72EFF636A204674
:1081B0009847A0E7214B1B681A68B2FA82F252096D
:1081C000ABEB0801306801F038F9FFF733FC002809
:1081D00091D11B4B4FF080525A6040BFBFF34F8F7D
:1081E000BFF36F8F87E70022EAE7A169059B20466E
:1081F0001944FFF7C1FE00283FF47FAF636A2046B1
:108200009847E369012B7FF478AFA2690599CDF80F
:1082100000800A44434641462046FFF7F5FE6CE7DE
:108220000599A161134611442046FFF7A5FE64E7B6
:1082300078370020A8390020FC3900207C37002046
:1082400000ED00E0402383F31188FEE74FF08073D8
:1082500040E90213054B40F80C3C6FF0020340F874
:10826000202C40F8243C4438704700BF458202006F
:108270000F4C08B5E02384F8223000F06DF80D4B68
:1082800000221A60D4F888300B4A43F47003C4F813
:108290008830536843F040435360236943F0100330
:1082A000236100F0F9F8402383F31188FEE700BF53
:1082B00000ED00E0043A002030EF00E0402383F3BB
:1082C0001188024A1368013313607047043A002092
:1082D000034A1368013B13600BB983F3118870479D
:1082E000043A002073B5194B00221A601B680193F1
:1082F000019BEFF31186402383F31188144BD3F8CD
:108300000445C3F8002103F580731B680093009BAC
:10831000FFF70CFB241A24F07F44012C04D9FFF74B
:108320003BFD022818BF0124002514F1FF3409D2B7
:1083300025B1084B4FF080525A6040BF86F3118838
:1083400002B070BDFFF700FB0543EEE740110140AE
:108350000010014000ED00E00A4B0B491F22C3F85A
:1083600008250122C3F804230A601A600222C3F818
:108370004423064BE02283F811234FF400321A60A5
:10838000704700BF001001400810014000E100E00C
:10839000F0B5054685B0EFF3108072B6374CA36890
:1083A00083B90123A360364B3649D3F880200A40B5
:1083B0002260C3F88010D3F8842062604FF0FF324F
:1083C000C3F8842000B962B62F4FD7F80465FFF7D1
:1083D000C9FC3B46002841D02C49A94228BF294668
:1083E000721822F07F420120C7F80803C7F8402521
:1083F000274A002010601068019001984FF48030E7
:10840000C7F80403BFF34F8F3DB11D4820BFD0F81C
:108410000071D0F804513D43F8D04FF48030C3F8D8
:1084200008030020106012680392039A194A106032
:1084300012680292029A0122C3F80423D3F8043589
:108440009B1B23F07F4088420D4B4FF4003228BF26
:108450000846C3F8802108B1FFF76EFAA3685BB144
:10846000EFF3108372B6064A2168116061685160AB
:108470000022A26003B962B605B0F0BD543E0020F0
:1084800000E100E0FC06FFBD00100140FDFFFF0021
:1084900040110140001101400748006880F308883E
:1084A00062B661B6BFF34F8FBFF36F8F4FF0E0003E
:1084B00080F3118800DF00BF00600200064B1968DE
:1084C0000868B0E8F04F80F30988BFF36F8F4FF072
:1084D000000080F31188704774360020EFF30980A4
:1084E000BFF36F8F144B1A681EF0100F08BF20EDFA
:1084F000108A20E9F04F10604DF8043D4FF0400025
:1085000080F31188BFF34F8FBFF36F8FFFF756FBD8
:108510004FF0000080F3118808BC19680868B0E8C3
:10852000F04F1EF0100F08BFB0EC108A80F30988DE
:10853000BFF36F8F704700BF743600207047000094
:108540000A490B4A0B4B9B1A03DD043BC858D05019
:10855000FBDC094809494FF0AD32026004300439B0
:10856000FBD100F09BF8FDF76BFE0000FCD1020090
:1085700000340020F035002000F800200008000042
:10858000FEE7FEE7FEE7FEE7FEE7FEE7FEE7FEE7C3
:10859000FEE7FEE708B5FDF7AFFE064C064DFDF71A
:1085A00089FE00F06BF9002CF9D0002DF7D000F017
:1085B00091FBF4E700000000D58C020007B500F045
:1085C000F1F9FEF7B1FF0E4B019301234FF4C062A6
:1085D0000C4900930C480023FFF73BF900F0C6F963
:1085E000FFF764F9BFF34F8F0849094BCA6802F4DB
:1085F000E0621343CB60BFF34F8F00BFFDE700BFC6
:10860000083A0020B2CE02009585020000ED00E09D
:108610000400FA05034890F862300BB1FEF795BFED
:1086200018467047E03D00200C4B1B78062B10D1FC
:108630000B4B1B681A070CD10A4B186800F0F003AB
:10864000302B08D000F0E000A0F140035842584120
:108650007047002070470120704700BFE00F00F016
:10866000E40F00F0E80F00F0094B1B78062B0CD14B
:10867000084B1B681A0708D1074B186800F0F00078
:10868000A0F130035842584170470020704700BFA6
:10869000E00F00F0E40F00F0E80F00F008B5FFF77E
:1086A000C3FF28B1604B614A1B68C3F30423136006
:1086B000FFF7DAFF10B15E4B5E4A1A60FFF7B4FFB6
:1086C00028B15D4B5D4A1B68C3F342331360FFF76B
:1086D000CBFF20B15A4AD36823F08073D360FFF7F1
:1086E000A3FF40B14FF080430022C3F80C21C3F830
:1086F0001021C3F83825FFF7B7FF10B1514B032203
:108700001A60FFF7B1FF40B14F4B05221A600122FA
:108710009A6700229A603F225A604C4B1B78062BC6
:1087200050D14B4B1B6819074CD14A4B1B6803F0C7
:10873000F003502B46D14FF08052474BD2F804142F
:10874000C3F82015D2F80814C3F82415D2F80C1475
:10875000C3F82815D2F81014C3F82C15D2F8141445
:10876000C3F83015D2F81814C3F83415D2F81C1415
:10877000C3F84015D2F82014C3F84415D2F82414D5
:10878000C3F84815D2F82814C3F84C15D2F82C14A5
:10879000C3F85015D2F83014C3F85415D2F8341475
:1087A000C3F86015D2F83814C3F86415D2F83C1435
:1087B000C3F86815D2F84014C3F86C15D2F84424F5
:1087C000C3F87025FFF730FF28B1244B244A1B68FB
:1087D00003F04F031360FFF727FF48B14FF08043CA
:1087E000D3F80024D20744BF6FF00102C3F800247D
:1087F0001C4B1B68062B08D11B4B1B68062B01BFAB
:108800001A4A136843F480631360194AD2F8883017
:1088100043F47003C2F88830BFF34F8FBFF36F8FFC
:10882000144B154A1A6008BD24030010403501405E
:1088300074C007400DF0ADBA440200103C05004082
:10884000F0ED00E0A005004010560040E00F00F001
:10885000E40F00F0E80F00F000C0004058020010E4
:10886000E40E004030010010340100103C170040BD
:1088700000ED00E0043400200090D003044B4FF0E2
:1088800080525A6040BFBFF34F8FBFF36F8F704766
:1088900000ED00E070477047034B0360034B0B6033
:1088A00064231360704700BF103A0020643A002030
:1088B000034B0360034B0B6064231360704700BFDE
:1088C000F43B0020483C0020014B01221A70704705
:1088D0000C3A002010B50446FFF75EFA0128204646
:1088E00003D1BDE8104000F083BEBDE8104000F0A9
:1088F000A2BA000030B51C4D85B04FF0FF3203A97D
:10890000286800F05DFC0028F7D00398037A4468DB
:10891000052B05D8DFE803F0030D1014191FA0473D
:10892000039B186808B1FFF7D5FF0398FFF7D2FF44
:10893000E3E7C068A047F3E7D0E90301A047EFE70A
:10894000D0E90412C068A047EAE7D0E90523D0E9DE
:108950000301A047E4E7C3690093D0E90523D0E908
:108960000301A047DCE700BFD83D00201FB500226F
:108970000421142000F044FB074B0849186003ABA6
:108980000193022300934FF4806200230448FEF712
:1089900060FF05B05DF804FBD83D0020B7CE0200B3
:1089A000F5880200114BD3F84025114B1A604FF0A7
:1089B00080430122C3F818259A600E4B4FF4003112
:1089C000C3F8801003F1C04303F53C534FF48031EA
:1089D000C3F84813C3F808135A609A604FF0A043D5
:1089E0004FF0FF32C3F80825704700BF00A00040D9
:1089F000DC3D002000E100E01F280FD8114B53F8A8
:108A0000203003290AD8DFE801F002160A1003F526
:108A1000E0734FF0A042002142F82310704703F5A5
:108A2000E0734FF0A0420C21F6E703F5E0734FF03E
:108A3000A0420421F0E703F5E0734FF0A0420321C8
:108A4000EAE700BF20CE02001F280CD8064B53F8DF
:108A50002020012393404FF0A04211B9C2F80C35F9
:108A60007047C2F80835704720CE02000021FFF79A
:108A7000EBBF90F86200704703681322DB69184768
:108A8000143000F011BD000038B590F95C30590980
:108A9000044601222031164803F01F0302FA03F3B3
:108AA00040F8213023690421C3F8081323695A6070
:108AB0002369DA6023690025C3F8005522694FF065
:108AC000FF33C2F80C352269C2F814352269C2F8A6
:108AD0000835226904F11400C2F8103500F0E4FCF6
:108AE000606E00F09FFC656684F8625038BD00BF80
:108AF00000E100E0143000F0E9BC143000F0ECBC00
:108B0000143000F0D5BC38B504460D46406E4FF029
:108B1000FF3100F0CFFB2369C3F81C552269D2F85E
:108B20001C31002BFBD00023C2F81C3119461A4619
:108B3000606E00F083FA012038BD000038B590F86F
:108B400062200446002A40F09080036990F85E009D
:108B5000C3F80C05236994F85D00C3F8140594F874
:108B600061002369012801BF94F85F20C3F8102534
:108B7000236994F8602005BFC3F808252369C3F86A
:108B80006C25C3F86C05B1F5966F6FD9B1F5166F0A
:108B90006FD9B1F5965F6FD9B1F5165F6ED9B1F5A2
:108BA000615F6DD9B1F5964F6CD9B1F5E14F6BD9D5
:108BB000B1F5164F6AD9B1F5614F6AD9B1F5963F53
:108BC0006AD9B1F5E13F69D9B1F5613F69D9394B4E
:108BD000994269D9B1F5E12F69D9B1F5612F94BFF7
:108BE0004FF070634FF080532269C2F82435236937
:108BF0000422C3F8002521690023C1F80831216946
:108C0000C1F81C31216901230B6021698B60216946
:108C1000C1F8042394F95C20510902F01F0293402B
:108C20006031254A42F8213094F95C30002BBDBFF9
:108C300003F00F0302F6FC32D2189B18B5BF602375
:108C40006022137683F8002394F95C301A4A59099C
:108C5000012503F01F0305FA03F342F821302846EB
:108C600000F06CFA84F86250606638BD4FF49E23C1
:108C7000BAE74FF41D23B7E7104BB5E7104BB3E746
:108C8000104BB1E7104BAFE7104BADE74FF41D03AE
:108C9000AAE74FF46B03A7E70D4BA5E74FF0EB7383
:108CA000A2E74FF06C739FE74FF080639CE74FF0B3
:108CB000E86399E790D0030000E100E000B0130002
:108CC0000050270000F03A0000A04E0000C07500E0
:108CD00000903A0108B5044B2BB1044800F0F6FBB4
:108CE00008B1AFF3008008BD00000000F43D002093
:108CF0002DE9F04100251E464FF47A73C0E9015377
:108D00000F4B044640F8143B1746884600F0B8FB6A
:108D10000C4AC4F8108084F85C7052F8263084F84D
:108D20005D309DF8183052F8233084F85E3084F8B6
:108D30006150656684F862502046BDE8F08100BF4E
:108D4000C8CE020020CE02000369D3F808214AB140
:108D50000022C3F808210369D3F818151430C9B2EA
:108D600000F097BB704700000148FFF7EDBF00BF60
:108D7000E03D002007B506230093022208230349A3
:108D80000348FFF7B5FF03B05DF804FB0020004087
:108D9000E03D002000F108034FF0FF324360C0E9DE
:108DA00002230361002303607047002303617047BF
:108DB00043684B609A688A609A685160996003685A
:108DC00008610133036070470A68531C30B50AD14B
:108DD00003695A684A6091608B6059600368086152
:108DE0000133036030BD00F108035C6825689542DB
:108DF000EFD82346F9E7D0E9011203698A60826857
:108E000051605968814208BF5A60002202611A68A5
:108E1000013A1A601868704710B50446FEF77EFDE7
:108E2000204600F0DDFB0446FEF704FE0CB9FFF718
:108E300032FD204610BD10B5044640B1FEF76EFD70
:108E4000204600F0D5FBBDE81040FEF7F3BD10BD95
:108E500010B50446FFF732FAA46BFFF739FAB4FAFB
:108E600084F0400910BD70B51546026C866B04464F
:108E700042B905689DB94068FEF7E0FF65600136BC
:108E8000A66370BD6DB9806800F0BAFBA368226C60
:108E900013446268A360934201D32368A360002057
:108EA000EDE7C06800F0ACFB236CE26821685B4230
:108EB0001A448A42E2603EBF62689B18E360022D5A
:108EC000EDD10EB1013EEAE73046D8E7034610B4D3
:108ED0001A6C084662B1D9685C681144A142D96035
:108EE00024BF1968D960D9685DF8044B00F088BBCD
:108EF0005DF8044B704770B50446FFF7DFF994F84E
:108F0000455004F124066DB2002D14DCFF2384F8D3
:108F10004530FFF7DDF9FFF7D1F994F8445004F13B
:108F200010066DB2002D12DCFF2384F84430BDE83A
:108F30007040FFF7CDB9636A002BE7D03046FEF7EB
:108F40009FFE08B1FEF708FF013D6DB2DCE7236923
:108F5000002BE9D03046FEF793FE08B1FEF7FCFE89
:108F6000013D6DB2DEE7000038B504460D46FFF75F
:108F7000A5F9D4E90F302268A2604343D1181B1A27
:108F800013446160E3600021FF23A16384F844304F
:108F900084F845309DB923696BB104F11000FEF7E8
:108FA0006FFE40B10A4B4FF080525A6040BFBFF392
:108FB0004F8FBFF36F8FFFF78BF9012038BD04F19E
:108FC0001000FFF7E7FE04F12400FFF7E3FEF2E7ED
:108FD00000ED00E010B51C4683B10123002908BF55
:108FE0002246C4E90F0184F8463019462260204623
:108FF000FFF7BAFF9DF8083084F84C30204610BDCA
:10900000F8B50646484350300D461746FFF704FFB3
:10901000044660B1002380F8463055B92060C4E9A9
:109020000F6501212046FFF79FFF84F84C70204612
:10903000F8BD00F150030360F1E700002DE9FF47A0
:109040000026DFF8F490019204468A461F46B04697
:10905000FFF734F9A26BE36B9A4201D3022F1AD1C6
:109060003A4651462046FFF7FEFE636A1BB104F103
:109070002400FEF705FE40B12F4B4FF080525A609E
:1090800040BFBFF34F8FBFF36F8FFFF721F9012070
:1090900004B0BDE8F087019D1DB9FFF719F9002064
:1090A000F6E716B902A8FEF723FEFFF711F9FEF75F
:1090B00035FCFFF703F994F84430FF2B08BF84F820
:1090C000448094F84530FF2B08BF84F84580FFF7B3
:1090D000FFF801A902A8FEF717FE30BBFFF7EEF874
:1090E000A26BE36B9A420ED1FFF7F2F8019904F1FB
:1090F0001000FEF7A1FD2046FFF7FDFEFEF79AFCEB
:1091000048B10126A4E7FFF7E3F82046FFF7F3FE96
:10911000FEF790FCF5E74FF08053C9F8043040BFEC
:10912000BFF34F8FBFF36F8FEBE72046FFF7E3FEF0
:10913000FEF780FCB3E700BF00ED00E010B502468B
:1091400000210120FFF75CFF044638B10023C0E98D
:109150000033C3601A461946FFF770FF204610BD62
:10916000F8B505461746EFF31186402282F31188C1
:10917000806BEA6B904201D3022B1ED195F84540DB
:109180001A4664B22846FFF76EFE631C10D16B6A64
:109190000BB9012009E005F12400FEF771FD00285C
:1091A000F7D0002FF5D00120386086F31188F8BD84
:1091B000013464B285F84540EBE70020F5E7000094
:1091C0002DE9F04385B00026DFF8E49001920446D3
:1091D00088463746FFF772F8A56BDDB14146204659
:1091E000013DFFF773FEA56323696BB104F1100025
:1091F000FEF746FD40B12E4B4FF080525A6040BF03
:10920000BFF34F8FBFF36F8FFFF762F8012005B0F8
:10921000BDE8F083019D1DB9FFF75AF80020F6E77D
:1092200016B902A8FEF764FDFFF752F8FEF776FBC9
:10923000FFF744F894F84430FF2B08BF84F84470DB
:1092400094F84530FF2B08BF84F84570FFF740F8CD
:1092500001A902A8FEF758FDF8B92046FFF7F8FD6E
:10926000A8B1019904F12400FEF7E6FC2046FFF7BF
:1092700042FEFEF7DFFB40B94FF08053C9F80430DF
:1092800040BFBFF34F8FBFF36F8F0126A2E7204689
:10929000FFF731FEFEF7CEFBF7E72046FFF72BFE88
:1092A000FEF7C8FB2046FFF7D3FD0028EDD0B5E759
:1092B00000ED00E02DE9F04385B00025DFF81C91BA
:1092C000019104462F462E46FEF7F8FFA36BEBB143
:1092D000013BA363236813B9FEF70EFE60602369A8
:1092E0006BB104F11000FEF7CBFC40B13B4B4FF0EB
:1092F00080525A6040BFBFF34F8FBFF36F8FFEF7AE
:10930000E7FF0125284605B0BDE8F083DDF80480BD
:10931000B8F1000F03D1FEF7DBFF0025F2E717B924
:1093200002A8FEF7E5FCFEF7D3FFFEF7F7FAFEF71B
:10933000C5FF94F84430FF2B08BF84F8446094F8CC
:109340004530FF2B08BF84F84560FEF7C1FF01A937
:1093500002A8FEF7D9FC48BB2046FFF779FDF8B11B
:1093600023683BB9FEF7AAFF6068FEF725FD0546B6
:10937000FEF7AEFF019904F12400FEF75DFC2046E4
:10938000FFF7B9FDFEF756FB40B94FF08053C9F81F
:10939000043040BFBFF34F8FBFF36F8F012793E7B8
:1093A0002046FFF7A8FDFEF745FBF7E72046FFF74D
:1093B000A2FDFEF73FFB2046FFF74AFD0028EDD057
:1093C000002D9FD0FEF77AFF616A19B1236B1968EF
:1093D000C1F105016068FEF75BFD9CE700ED00E070
:1093E000054B1A6812B19A682AB9012243F8321063
:1093F00003EBC20358607047603E0020084B5A6878
:1094000090420AD0DA68904206D10122002143F846
:10941000321003EBC203596070470022F6E700BF29
:10942000603E002010B5FFF7E9FF90F846301BB909
:10943000BDE81040FFF7FFBC10BD70B504460D46F7
:109440001646FEF73BFF94F84430FF2B04BF002381
:1094500084F8443094F84530FF2B04BF002384F88F
:109460004530FEF735FFA36B2BB93246294604F190
:109470002400FEF7F1FB2046BDE87040FFF73BBD3E
:1094800008B54022002100F0C6F80022C0E91022F1
:1094900008BD026C10B5531C446C03F03F039C42A2
:1094A0001CBF8154036410BD0023C0E91033704712
:1094B000D0E9102393421FBFC25C013303F03F0386
:1094C000436414BF10464FF0FF307047D0E91030AE
:1094D000181A48BF40307047D0E91023934214BF98
:1094E000C05C4FF0FF3070470B460146184600F055
:1094F0001FB800001FB51C46094B1B680546D868FD
:1095000052B1084B0091CDE9013207492B46224662
:1095100000F030F800F0A2FF044B1A46F2E700BF5B
:1095200008340020F0CE0200FDCE02002BCF020056
:1095300010B5054C13462CB10A4601460220AFF384
:10954000008010BD2046FCE70000000008B5074B76
:10955000044613B10021AFF30080054B1868836AFD
:1095600003B19847204603F0D9F800BF000000007F
:109570002CCF02000EB403B5014603AB054853F8E7
:10958000042B0068019300F021F902B05DF804EBB0
:1095900003B070470834002070B50D4E0D4CA41B6D
:1095A000A4100025A54209D10B4E0C4C03F0B8F8CD
:1095B000A41BA4100025A54205D170BD56F8253086
:1095C00098470135EEE756F8253098470135F2E720
:1095D000D8350020D8350020D8350020EC350020C3
:1095E000024B0146186800F06DB800BF0834002037
:1095F000024B0146186800F017B800BF083400207D
:1096000010B5431E0A44914200D110BD11F8014B20
:1096100003F8014FF7E702440346934200D1704735
:1096200003F8011BF9E7000038B50546002945D0CD
:1096300051F8043C0C1F002BB8BFE41801F098FF50
:109640001F4A1368104633B9636014602846BDE8AA
:10965000384001F08EBFA3420CD9216862189342B2
:1096600004BF1A685B68636004BF5218226004601C
:10967000ECE713465A680AB1A242FAD91968581899
:10968000A0420BD120680144581882421960DDD1F4
:10969000106852685A6001441960D7E702D90C2358
:1096A0002B60D3E7206821188A4204BF11685268F2
:1096B000626004BF091821605C60C7E738BD00BF65
:1096C000483E002070B5CD1C25F0030508350C2D53
:1096D00038BF0C25002D064601DBA94203D90C2317
:1096E0003360002070BD01F043FF214A1468214619
:1096F00091B9204C23681BB9304600F0D7FD20609B
:109700002946304600F0D2FD431C24D10C2333609F
:10971000304601F02EFFE4E70B685B1B18D40B2BDF
:109720000FD90B60CD50CC18304601F022FF04F168
:109730000B00231D20F00700C31AD3D05A42E25079
:10974000D0E78C424B6816BF636013600C46EBE7B2
:109750000C464968CCE7C41C24F00304A04205D0A1
:10976000211A304600F0A2FD0130CFD02560DBE7A2
:10977000483E00204C3E00209368013B002B10B473
:10978000936008DA9469A34201DB0A2903D15DF8EA
:10979000044B00F0A3BD1368581C106019700846F4
:1097A0005DF8044B7047F8B506460F461446D518C9
:1097B000AC4201D1002007E03A4614F8011B3046C4
:1097C000FFF7DAFF431CF3D1F8BD00002DE9F04F9D
:1097D0009DB00C4617460393064618B183690BB932
:1097E00001F07AFD7B4B9C4257D17468A38918071E
:1097F0005DD52369002B5AD00023099320238DF8CF
:10980000293030238DF82A304FF0010BB8464546F9
:1098100015F8013B0BB1252B54D1B8EB070A0BD03F
:1098200053463A4621463046FFF7BDFF013000F06F
:10983000C280099B5344099398F80030002B00F034
:10984000BA8000234FF0FF32CDE90523049307933C
:109850008DF853301A93A846052218F8011B5E486C
:1098600001F036FE049B78BBD90644BF20228DF858
:1098700053201A0744BF2B228DF853202A782A2A16
:109880002AD0079AA84600200A25414611F8013B34
:10989000303B092B69D960B324E0504B9C4201D185
:1098A000B468A3E74E4B9C4208BFF4689EE721468C
:1098B000304600F065FD00289ED04FF0FF301DB00F
:1098C000BDE8F08FA846A2E7434A801A0BFA00F0E1
:1098D000184304904546BEE7039A111D1268039190
:1098E000002A01DB079204E0524243F00203079290
:1098F000049398F800302E2B0ED198F801302A2BC3
:1099000038D1039B1A1D1B680392002BB8BF4FF080
:10991000FF3308F102080593324D98F80010032236
:10992000284601F0D5FD40B14023401B03FA00F06A
:10993000049B034308F10108049398F800102A4897
:109940008DF82810062208F1010701F0C1FD00285A
:1099500037D0264B1BBB039B073323F00703083389
:109960000393099B4B44099350E705FB0232012006
:1099700088468AE7002308F10108059319460A255D
:10998000404610F8012B303A092A03D9002BC3D0E6
:109990000591C1E705FB012101238046F0E703ABF8
:1099A00000932246124B04A9304600F0B7F8B0F1FC
:1099B000FF3F8146D5D1A3895B063FF57EAF09986D
:1099C0007DE703AB00932246094B04A9304600F023
:1099D0005BFBECE7A4CF020030CF0200C4CF020053
:1099E00084CF020036CF02003ACF02001D9B020056
:1099F000A79702002DE9FF4755EC104B0D9FDDF8AE
:109A000030A0002D0E4691461946B8BF22462B467F
:109A100027F02007BBBF05F100431D4600232D237F
:109A2000B8BF1446462F0B7004D0452F00D1013625
:109A3000022100E0032103AB019302AB0093324605
:109A4000534645EC104B00F09FFD472F804602D156
:109A500019F0010F26D0462F08EB060911D198F80E
:109A60000030302B0AD1002200232046294602F084
:109A70009FFD18B9C6F10106CAF80060DAF8003097
:109A80009944002200232046294602F091FD38B96E
:109A90003022039B4B4505D2591C03911A70F8E7FD
:109AA000CDF80C90039B0E9AA3EB0803404613607D
:109AB00004B0BDE8F087F7B500290446BABF4942B3
:109AC0002D232B23092904F8022B437020DD0DF1EF
:109AD00007031F460A2691FBF6F506FB15113031E8
:109AE000092D03F8011C03F1FF32294609DC30314E
:109AF000023B02F8011CBB42224604D3101A03B0F9
:109B0000F0BD1346E7E713F8012B04F8012BF2E749
:109B1000302319448370021DC170EFE72DE9F04F27
:109B20008DB00C46DDF8588016461F46054601F0FC
:109B30005DFC03680493184600F0C8FB00230A93F9
:109B4000D8F800300590073323F0070303F108022B
:109B500094F818A0D4F800B0C8F80020D3E9002386
:109B6000C4E91223D4E9128929F000430793CDF800
:109B700018804FF0FF32A74BDDE9060102F04AFDE5
:109B800070BB4FF0FF32A34BDDE9060102F024FD6C
:109B900030BB002200234046494602F013FD10B1BD
:109BA0002D2384F843309C4A9C4BBAF1470F8CBF5D
:109BB0009046984603232BF00402236122604FF065
:109BC0000009009733460BAA2146284600F0E6F923
:109BD000013040F08D804FF0FF300DB0BDE8F08FC8
:109BE00042464B464046494602F014FD10B18C4AAD
:109BF0008C4BDAE761684B1C4BF480620AA83ED1BB
:109C0000062363600023CDE9020309AB009349EC0E
:109C1000108B0DF123032260CDF804A06168284663
:109C2000FFF7E8FE0AF0DF03472B804609D1099BC6
:109C3000D81C02DB6268934247DDAAF1020A5FFA90
:109C40008AFABAF1650F099924D80139524604F10C
:109C500050000991FFF72FFF0A9A1318012A814635
:109C6000236102DC2268D10701D5013323619DF80D
:109C70002330002BA5D02D2384F84330A1E7BAF17F
:109C8000670F00F07781BAF1470FBBD10029B9D136
:109C90000123B6E7BAF1660F19D1002963680CDD1C
:109CA000216113B92268D20702D501330B44236125
:109CB000099BA3654FF00009D9E713B92268D007C3
:109CC00001D50233F3E70123F1E74FF0670ADDE93D
:109CD0000932934205DB22682361D107E8D50133BD
:109CE000E5E7002BD4BFC3F1020301231344DEE7F1
:109CF00023685A0507D42369424631462846B847A7
:109D000001302BD167E7BAF1650F40F2DC80002209
:109D10000023D4E9120102F04BFC002833D00123C8
:109D2000414A31462846B84701303FF454AFDDE997
:109D300009239A4202DB2368D8070FD5DDE9042303
:109D400031462846B84701303FF445AF4FF0000890
:109D500004F11A090A9B013B434509DC23689B0770
:109D600000F10381E0680B9B9842B8BF184634E7C6
:109D700001234A4631462846B84701303FF42BAF0D
:109D800008F10108E6E7099B002B2BDC0123264A9A
:109D900031462846B84701303FF41DAF099B23B92F
:109DA0000A9B13B92368D907D8D5DDE904233146C6
:109DB0002846B84701303FF40EAF4FF0000904F1D8
:109DC0001A0A099B5B424B4501DC0A9B94E701237D
:109DD000524631462846B84701303FF4FCAE09F1FF
:109DE0000109EEE70A9AA36D9A42A8BF1A46002A13
:109DF000914607DD1346314642462846B8470130B2
:109E00003FF4E9AE04F11A034FF0000B29EAE979B7
:109E1000069315E0FFFFEF7F45CF020041CF020020
:109E20004DCF020049CF020051CF02000123069A14
:109E300031462846B84701303FF4CDAE0BF1010B57
:109E4000D4F858A0AAEB09035B45EFDCDDE9092350
:109E50009A42D04415DB2368DA0712D40A9B099989
:109E6000A3EB0A02A3EB010A9245A8BF9246BAF1FE
:109E7000000F0EDC4FF000082AEAEA7A04F11A0912
:109E800019E0DDE9042331462846B8470130E5D121
:109E9000A1E65346424631462846B8470130E9D14B
:109EA00099E601234A4631462846B84701303FF437
:109EB00092AE08F10108DDE909239B1AA3EB0A031E
:109EC0004345EEDC4AE70A9A012A01DCDB073AD572
:109ED0000123424631462846B84701303FF47BAE65
:109EE000DDE9042331462846B847013008F101086E
:109EF0003FF471AE0A9B002203F1FF3AD4E912014C
:109F0000002302F055FBC8B9534642463146284665
:109F1000B84701300ED15EE601235246314628464D
:109F2000B84701303FF457AE08F101080A9B013BE6
:109F30004345F1DC4B4604F15002DEE64FF00008E9
:109F400004F11A0AF2E70123DFE701234A4631460A
:109F50002846B84701303FF43EAE08F10108E368F7
:109F60000B9A9B1A4345F0DCFCE64FF0000804F125
:109F70001909F4E700293FF48BAE0023CDE9020371
:109F800009AB009349EC108B2260CDF804A00DF1D1
:109F900023032846FFF72EFD804648E62DE9F047CB
:109FA00091461F468A680B69DDF820809342B8BF4E
:109FB0001346C9F8003091F8432006460C4612B10A
:109FC0000133C9F800302368990642BFD9F8003040
:109FD0000233C9F80030256815F0060507D104F1F1
:109FE000190AE368D9F800209B1AAB4228DC94F8E0
:109FF00043302268003318BF012392062DD404F1A8
:10A00000430239463046C047013020D02368E56816
:10A01000D9F8002003F00603042B08BFAD1AA3688B
:10A0200022690CBF25EAE57500259342C4BF9B1A3F
:10A03000ED184FF000091A344D451AD1002008E000
:10A040000123524639463046C047013003D14FF014
:10A05000FF30BDE8F0870135C3E7E1185A1C302016
:10A0600081F84300224494F8451082F843100233EB
:10A07000C5E70123224639463046C0470130E6D0C5
:10A0800009F10109D8E700002DE9F04301F1430C83
:10A090000C46097E85B06E291746064698460C9AEE
:10A0A00000F0B38022D8632936D00AD8002900F006
:10A0B000B980582900F0838004F1420584F84210E9
:10A0C00032E0642901D06929F6D1206813680506B9
:10A0D00003F104012AD51B681160002B03DA2D223D
:10A0E0005B4284F843206F480A2239E0732900F06C
:10A0F0009D8008D86F2920D07029DDD1236843F0D6
:10A100002003236003E0752917D07829D4D1782360
:10A1100084F84530644855E01368191D1B681160C8
:10A1200004F1420584F8423001238CE01B68116081
:10A1300010F0400F18BF1BB2CFE713682568181D39
:10A140001060280601D51B6802E06806FBD51B8855
:10A1500054486F2914BF0A220822002184F84310B2
:10A160006568A560002DC0F29580216821F004018A
:10A170002160002B3DD1002D40F08E806546082ADD
:10A180000BD12368DB0708D5236962689A42DEBFDA
:10A19000302305F8013C05F1FF35ACEB05032361E5
:10A1A000CDF800803B4603AA21463046FFF7F6FE75
:10A1B00001304DD14FF0FF3005B0BDE8F083394894
:10A1C00084F84510136821681D1D1B6815600A0678
:10A1D0000BD5CA0744BF41F0200121601BB922689A
:10A1E00022F0200222601022B7E74D0648BF9BB242
:10A1F000EFE76546B3FBF2F102FB1133C35C05F8F0
:10A20000013D0B460029F5D1B9E71368256861695E
:10A21000181D106028061B6801D5196002E06A0647
:10A22000FBD51980002323616546B9E71368191D22
:10A2300011601D6862680021284601F049F908B1E3
:10A24000401B606063682361002384F84330A7E704
:10A2500023692A4639463046C0470130AAD02368D0
:10A260009B0713D4E068039B9842B8BF1846A3E746
:10A2700001234A4639463046C04701309AD001355D
:10A28000E368039A9B1AAB42F2DCEBE7002504F18A
:10A290001909F5E7002BACD1037884F8423004F1BA
:10A2A00042056CE753CF020064CF020038B5064C7C
:10A2B000002305460846236002F022FA431C02D11F
:10A2C000236803B12B6038BD703E0020034613F8AD
:10A2D000012B002AFBD1181A01387047F8B50E4639
:10A2E0001446054618B183690BB900F0F5FF214B00
:10A2F0009C422AD16C68A369A360A3891A072ED552
:10A30000236963B323692068C01A6369F6B2834284
:10A31000374604DC2146284600F074FF28BBA368BA
:10A32000013BA36023685A1C22601E7063690130E0
:10A33000834204D0A389DB0719D50A2E17D1214601
:10A34000284600F05FFF90B10FE00B4B9C4201D11B
:10A35000AC68D0E7094B9C4208BFEC68CBE72146CC
:10A36000284600F00DF80028CCD04FF0FF373846D3
:10A37000F8BD00BFA4CF0200C4CF020084CF02000A
:10A38000324B70B51D6806460C4625B1AB6913B952
:10A39000284600F0A1FF2E4B9C420FD16C68B4F907
:10A3A0000C309AB215072CD4D00611D40922326091
:10A3B00043F04003A3814FF0FF303EE0254B9C4229
:10A3C00001D1AC68EBE7244B9C4208BFEC68E6E7A0
:10A3D000510712D5616B41B104F14403994202D097
:10A3E0003046FFF721F900236363A38923F0240398
:10A3F000A3810023636023692360A38943F00803DA
:10A40000A38123694BB9A38903F42073B3F5007FBB
:10A4100003D02146304601F01BF8A28912F0010357
:10A420000CD00023A36063695B42A361236953B925
:10A43000B4F90C3013F08000BAD170BD920758BF48
:10A440006369A360F2E70020F7E700BF083400204B
:10A45000A4CF0200C4CF020084CF020008B50620BA
:10A4600001F09AFB012002F059F92DE9F74F036939
:10A470000C69A3428046C0F28280013C01F11407BE
:10A480004FEA840C00F1140657F8245056F82400C3
:10A4900006EB0C03013507EB0C090193B0FBF5F556
:10A4A00095B34FF0000A3846B646D34650F8042B11
:10A4B00093B205FB03A34FEA134A9BB2ABEB030332
:10A4C000120CDEF800B005FB02A213FA8BF34FEA80
:10A4D000124A1FFA82FBDEF80020CBEB124202EB9D
:10A4E00023429BB243EA024381454FEA224B4EF896
:10A4F000043BDBD256F80C3033B9019B043B9E423F
:10A500001A4630D3C8F81040404601F049FA0028F6
:10A5100025DB013530464FF0000C57F8042BD0F8FE
:10A5200000E093B2ACEB0303120C13FA8EF3C2EB10
:10A530001E4202EB23429BB243EA0243B9454FEA73
:10A54000224C40F8043BE8D256F8242006EB840362
:10A550002AB9043B9E421A460BD3C8F8104028463D
:10A5600003B0BDE8F08F1268043B002ACAD1013C59
:10A57000C5E71268043B002AEFD1013CEAE700205E
:10A58000EEE70000000000002DE9F04F57EC106BE3
:10A5900097B0456A069104460B921293DDF88080CD
:10A5A000CDE900673DB91020FFF71AF86062C0E9F5
:10A5B00001550560C560636A196851B15A684A60FF
:10A5C000012393408B60204601F008F8636A002263
:10A5D0001A603B1EBBBF23F00043019300230122FE
:10A5E000ACBFC8F80030C8F80020AF4BDDF80480DD
:10A5F00033EA080314D1129A42F20F731360009BDE
:10A6000023B9C8F31300002800F04285219BDFF82E
:10A61000ACB2002B00F044850BF1030300F03EBD0B
:10A62000DDE90067002200233046394601F0C0FF13
:10A63000814668B1129A01231360219B002B00F020
:10A6400024859A4B219A03F1FF3B136000F028BD4B
:10A6500014AA15A947EC106B204601F018FAC8F3AC
:10A660000A550490002D7CD0C7F3130343F07F5BA1
:10A67000B2464BF4401BA5F2FF35CDF84C900022BA
:10A680008B4B5046594601F073FB81A3D3E900235D
:10A6900001F026FD80A3D3E9002301F06BFB064601
:10A6A00028460F4601F0B2FC7DA3D3E9002301F058
:10A6B00017FD02460B463046394601F05BFB064665
:10A6C0000F4601F0BDFF0022824600233046394686
:10A6D00001F078FF48B1504601F098FC32463B4605
:10A6E00001F066FF08B90AF1FF3ABAF1160F59D81E
:10A6F000704901EBCA01DDE90023D1E9000101F055
:10A700007FFF002850D00AF1FF3A00230F93149BDB
:10A710005D1BB5F1010849BFC5F101030023059395
:10A720004FF0000858BF0593BAF1000F3EDB00233D
:10A73000D044CDF838A00793069B092B00F29080F7
:10A74000052BC4BF043B0693069BA3F10203CCBFB9
:10A7500000250125032B00F28F80DFE803F07D7FC9
:10A760003171DDE914531D4405F23240202813DD18
:10A77000C0F14000009B08FA00F805F2124023FAED
:10A7800000F048EA000001F031FC01238246A1F10B
:10A79000F87B013D139372E7009BC0F1200003FAA0
:10A7A00000F0F0E70123B1E70F90B0E7059BA3EBC2
:10A7B0000A030593CAF10003079300230E93BBE736
:10A7C00001230A930B9B002B59DD02939946666A7D
:10A7D00000227260042202F114009842716853D979
:10A7E000204600F0C7FE636A3060B9F10E0FD3F85F
:10A7F00000B000F2E680002D00F0E3809DED007BCC
:10A80000BAF1000F8DED107B74DD2A4A0AF00F03B8
:10A8100002EBC30393ED007B4FEA2A16F0068DEDA1
:10A82000087B65D5244BDDE91001D3E9082301F04D
:10A8300081FDCDE9000106F00F0603251E4F4CE017
:10A8400001230A930B9B534403F1010902934B46E6
:10A85000012BB8BF0123BAE70023B2E70023F0E7DA
:10A860000125002306930A954FF0FF330293994682
:10A87000002212230B92AAE701230A93F4E7012393
:10A88000029399461A46F5E7013171605200A2E73A
:10A8900061436F63A787D23FB3C8608B288AC63FE6
:10A8A000FB799F501344D33F0000F07F52CF02004A
:10A8B0000000F83F10D00200E8CF02007ECF020077
:10A8C000F10708D5DDE90801D7E9002301F008FC0C
:10A8D000CDE90801013576100837002EF0D1DDE909
:10A8E0000823DDE9000101F025FDCDE900011AE0B2
:10A8F0000225A3E700F0A080CAF100069F4BA04FFD
:10A9000006F00F0203EBC203D3E90023DDE91001D7
:10A9100001F0E6FBCDE90001361100230225002EEF
:10A920007FD1002BE1D10F9B002B00F08780DDE968
:10A9300000670022934B3046394601F043FE002861
:10A940007CD0B9F1000F79D0029B002B35DD0AF1E4
:10A95000FF330893394600228B4B304601F0C0FB91
:10A96000CDE90001029F0135284601F04FFBDDE9EA
:10A97000002301F0B5FB0022844B01F0FBF90546F2
:10A98000A1F15076002F5DD10022814BDDE900015D
:10A9900001F0EEF92A463346CDE9000101F030FE20
:10A9A000002840F088822A4606F10043DDE90001D4
:10A9B00001F008FE002840F07C82DDE91023CDE99B
:10A9C0000023159B002BC0F25081BAF10E0F00F34B
:10A9D0004C816A4B03EBCA0393ED007B0B9B002B6E
:10A9E0008DED027B80F2D880B9F1000F00F3D480A6
:10A9F00040F05E820022664B51EC170B01F070FBB9
:10AA0000DDE9002301F0F2FD4F464E46002840F0FC
:10AA1000348231230BF101058BF800300AF1010A71
:10AA20002FE2F20705D5D7E9002301F059FB0135E4
:10AA300001237610083772E7022574E7CDF820A0CD
:10AA40004F4691E74D4B03EBC70353E902010A9BC5
:10AA5000002B47D002460B4600204E4901F06AFC0D
:10AA60002A46334601F084F9CDE90C015D46DDE963
:10AA7000000101F0E5FD064601F0C8FA02460B466A
:10AA8000DDE9000101F074F9303605F8016BDDE90C
:10AA90000C23CDE9000101F095FD002863D1DDE92B
:10AAA00000230020374901F063F9DDE90C2301F0B0
:10AAB00089FD002840F0B780A5EB0B039F427FF78C
:10AAC0007CAF0022304BDDE90C0101F009FB0022D4
:10AAD000CDE90C012C4BDDE9000101F001FBCDE9D2
:10AAE0000001C4E72A46334601F0FAFACDE90C0129
:10AAF0000BEB07055E46DDE9000101F0A1FD07460D
:10AB000001F084FA303702460B46DDE9000101F01E
:10AB10002FF906F8017BAE42CDE900014FF00002AB
:10AB200026D11C4BDDE90C0101F024F902460B464D
:10AB3000DDE9000101F064FD002874D1DDE90C239A
:10AB40000020144901F014F902460B46DDE900012A
:10AB500001F038FD00283FF430AF15F8013C302BF0
:10AB600005F1FF3202D0DDF820A04AE01546F4E7F7
:10AB7000054B01F0B5FACDE90001BCE710D00200A9
:10AB8000E8CF02000000F03F0000244000001C401D
:10AB9000000014400000E03FDDE900675D46DDE9AC
:10ABA00002233046394601F0C5FB01F049FD8046DD
:10ABB00001F02CFADDE9022301F092FA02460B467D
:10ABC0003046394608F1300601F0D2F805F8016B3D
:10ABD000A5EB0B06B14502460B4639D101F0CAF888
:10ABE000DDE9022306460F4601F00AFDC8B9DDE99A
:10ABF00002233046394601F0DBFC10B118F0010F9A
:10AC00000FD10499204600F0E9FC0023129A2B7022
:10AC10000AF101031360219B002B00F041821D60AB
:10AC20003EE2CDF820A015F8012C392A05F1FF33BA
:10AC300008D19B450AD1089B0133089330238BF838
:10AC400000305B461A7801321A708CE71D46EAE73D
:10AC500000229B4B01F044FA0022002306460F46D7
:10AC600001F0A6FC00289AD0CBE70A9A002A00F04F
:10AC70008B80069A012A6EDC139A002A67D003F2B1
:10AC80003343079F059D059A01211A4420460592EA
:10AC9000984400F043FD0646002D0CDDB8F1000F8E
:10ACA00009DD4545059A2B46A8BF4346D21A0592B1
:10ACB000ED1AA8EB0308079BEBB10A9B002B67D0AA
:10ACC0008FB131463A46204600F0C8FD049A01464D
:10ACD0000646204600F02BFD04990890204600F01F
:10ACE0007DFC089B0493079BDA1B04D00499204643
:10ACF00000F0B4FD04900121204600F00FFD0E9BF2
:10AD00000746002B00F0D0811A460146204600F08D
:10AD1000A5FD069B012B074640DC009B002B39D18B
:10AD2000019BC3F31303002B36D1019B23F0004397
:10AD30001B0D1B052BB1059B0133059308F1010881
:10AD4000012307930E9B002B2AD1012030E0149B96
:10AD5000C3F1360395E7079B09F1FF37BB42BFBF3D
:10AD6000079B0797FA1A0E9BBBBF9B180E93DF1B1E
:10AD70000027B9F1000FB5BF059B059DA3EB0905A1
:10AD80004B46B8BF00237EE7079F059D0A9E83E7D9
:10AD9000079AABE70023D4E7009BD2E70023079391
:10ADA0003B6907EB8303186900F06AFCC0F12000DF
:10ADB000404410F01F0047D0C0F12003042B3BDDBE
:10ADC000059BC0F11C000344059305448044059B8A
:10ADD000002B05DD1A460499204600F08DFD0490F5
:10ADE000B8F1000F05DD39464246204600F084FDEB
:10ADF00007460F9B53B33946049800F0D1FD002855
:10AE000024DA00230A220499204600F0FEFB0A9B64
:10AE100004900AF1FF3A002B00F04D8100233146E7
:10AE20000A22204600F0F1FB029B002B06464FDC75
:10AE3000069B022B4CDD11E0C9D0059A1C331A4445
:10AE400005921D449844C2E70346F6E7B9F1000FA6
:10AE500038DC069B022B35DDCDF80890029B63B9E8
:10AE600039460522204600F0D0FB014607460498EB
:10AE700000F096FD00283FF7CCAD0B9B5D466FEAD6
:10AE8000030A4FF000093946204600F0A7FB002EC8
:10AE90003FF4B7AEB9F1000F05D0B14503D0494634
:10AEA000204600F09BFB3146204600F097FBA8E6C9
:10AEB00000273E46E1E7DDF820A03E46A9E500BFB9
:10AEC000000024400A9BCDF80890002B00F0FA8087
:10AED000002D05DD31462A46204600F00DFD0646D0
:10AEE000079B002B4CD07168204600F043FB326971
:10AEF00002320546920006F10C010C30FEF780FB91
:10AF000001222946204600F0F7FC009BCDF814B042
:10AF100003F00103B1460793064639460498FFF74C
:10AF2000A4FA4946054600F13008049800F038FDBF
:10AF3000324600903946204600F04CFDC368024678
:10AF400003BB01460890049800F02AFD089A0346C6
:10AF500011462046089300F041FB089BA3B9069ACE
:10AF600092B9079A82B9B8F1390F29D0009B002B0A
:10AF700001DD05F13108059B5D1C83F8008082E747
:10AF80003046C2E70123E3E7009A002A04DB25D11B
:10AF9000069A1ABB079A0ABB002BECDD0122049922
:10AFA000204600F0A9FC3946049000F0F9FC002886
:10AFB00003DCE0D118F0010FDDD0B8F1390FD8D1A2
:10AFC000059B059A5D1C3923137015F8013C392B3C
:10AFD00005F1FF324FD00133137054E7059A002B6F
:10AFE00002F1010506DDB8F1390FE9D008F10108D9
:10AFF000059BC2E7029A05F8018CA5EB0B0393426F
:10B0000021D000230A220499204600F0FEFAB1451F
:10B0100004904FF000034FF00A024946204605D144
:10B0200000F0F3FA81460646059576E700F0EDFA62
:10B030003146814600230A22204600F0E6FA064601
:10B04000F2E74FF0000901220499204600F054FC79
:10B050003946049000F0A4FC0028B6DC02D118F0B8
:10B06000010FB2D115F8013C302B05F1FF327FF40E
:10B070000AAF1546F6E7934505D131230AF1010AD7
:10B080008BF80030FFE615469FE7DFF864B007E075
:10B09000219BDFF860B01BB10BF10803219A13600C
:10B0A000584617B0BDE8F08F069B012B7FF735AEF1
:10B0B0000E9B079349E6029B002B03DC069B022BA9
:10B0C0003FF7CCAE5D4639460498FFF7CEF900F164
:10B0D000300805F8018B029AA5EB0B039A42B0DD0C
:10B0E00000230A220499204600F08FFA0490EAE730
:10B0F00051CF020075CF02008A892DE9F041054643
:10B1000010070C4658D44B68002B05DC0B6C002B49
:10B1100002DC0020BDE8F081E66A002EF9D00023B1
:10B1200012F480522F68216A2B6032D0606DA3899F
:10B130005A0705D56368C01A636B0BB1236CC01A3C
:10B1400000230246E66A216A2846B047431CA389C9
:10B1500006D129681D2948D8294ACA40D60744D5AE
:10B1600000226260D9042269226004D5421C01D108
:10B170002B6803B96065616B2F600029C9D004F1A9
:10B180004403994202D02846FEF74EFA002060633D
:10B19000C0E701232846B047411CC8D12B68002BCB
:10B1A000C5D01D2B01D0162B01D12F60B1E7A3898B
:10B1B00043F04003A381ADE70F69002FA9D09307A7
:10B1C0000E6808BF4B690F6018BF0023A6EB070885
:10B1D0008B60B8F1000F9CDD43463A46216AA66AAF
:10B1E0002846B047002806DCA38943F04003A3812A
:10B1F0004FF0FF308EE70744A8EB0008E9E700BFF7
:10B200000100402038B50B6905460C46DBB118B18A
:10B2100083690BB900F060F80C4B9C4209D16C6853
:10B22000B4F90C307BB121462846BDE83840FFF721
:10B2300063BF074B9C4201D1AC68F1E7054B9C42D0
:10B2400008BFEC68ECE7002038BD00BFA4CF0200C7
:10B25000C4CF020084CF0200002310B50446C0E929
:10B260000033836081814366C281C0E90433836116
:10B27000194608225C30FEF7CEF9054B6362054B98
:10B28000A362054BE362054B2462236310BD00BF3C
:10B29000D1BB0200F3BB02002BBC02004FBC02007A
:10B2A000014900F085B800BF05B2020070B54A1E22
:10B2B000682555430E4605F17401FEF703FA04466E
:10B2C00040B10021C0E900160C30A06005F1680211
:10B2D000FEF7A1F9204670BD836910B5044633BB63
:10B2E000C0E912330365124B124A1B68826298420E
:10B2F00004BF0123836100F01FF86060204600F066
:10B300001BF8A060204600F017F80022E06004213E
:10B310006068FFF7A1FF01220921A068FFF79CFFE9
:10B3200002221221E068FFF797FF0123A36110BDFD
:10B330002CCF0200A1B20200F8B51B4B1E68B36906
:10B34000074613B93046FFF7C7FF4836D6E9013440
:10B35000013B03D5336833B13668F7E7B4F90C50D5
:10B360006DB16834F4E704213846FFF79FFF306081
:10B370000028F1D10C233B6004462046F8BD0B4B5E
:10B380006566C4E90055A560C4E90335C4E90555FF
:10B390000822294604F15C00FEF73DF9C4E90D5589
:10B3A000C4E91255E9E700BF2CCF02000100FFFFFE
:10B3B0002DE9F8438046894600F14804002614B977
:10B3C0003046BDE8F883D4E90175013F01D5246812
:10B3D000F5E7AB89012B07D9B5F90E30013303D05E
:10B3E00029464046C84706436835EEE7044B1B68CC
:10B3F000186A044B002808BF1846F030704700BF99
:10B40000083400206C34002070B50E46B1F90E10DF
:10B41000002996B014461D4607DA00232B60B38935
:10B420001A0610D44FF480630EE06A4600F036FC32
:10B430000028F2DB019A02F47042A2F500535A424E
:10B440005A412A60EEE740230020236016B070BD09
:10B450008B8973B59D0706460C4607D504F1470353
:10B46000236023610123636102B070BD01AB6A46B2
:10B47000FFF7CAFF009905463046FEF723F948B9A1
:10B48000B4F90C309A05EFD423F0030343F0020320
:10B49000A381E3E70D4BB362A389206043F08003EF
:10B4A000A381009B6361019B20615BB1B4F90E1025
:10B4B000304600F005FC28B1A38923F0030343F0D4
:10B4C0000103A381A3891D43A581CDE7A1B2020099
:10B4D00001F0FF01102A2BDB10F0070F08D010F845
:10B4E000013B013A8B422DD010F0070F42B3F6D149
:10B4F000F0B441EA012141EA014122F007047FF062
:10B5000000070023F0E80256083C85EA010586EAB8
:10B51000010685FA47F5A3FA87F586FA47F6A5FAF4
:10B5200087F68EB9EED1F0BC01F0FF0102F0070200
:10B5300032B110F8013B013A83EA010313B1F8D1AB
:10B540000020704701387047002D06BF354603388C
:10B55000073815F0010F07D1013015F4807F02BFC5
:10B56000013015F4C03F0130F0BC0138704700BF16
:10B570007047704770B5456A04460E463DB91020C5
:10B58000FEF72EF86062C0E901550560C560656A86
:10B59000EB6883B1636ADB6853F82600B8B9012110
:10B5A00001FA06F56A1D9200204600F0BFFA60B16C
:10B5B000C0E901650EE021220421204600F0B6FA20
:10B5C000636AE860DB68002BE4D1002070BD02688C
:10B5D00043F826200023C0E90333F7E770B5446A37
:10B5E00006460D463CB91020FDF7FAFF7062C0E92F
:10B5F00001440460C4603DB1736A6A68DB6853F853
:10B600002210296043F8225070BD2DE9F0410D69E8
:10B610001F4606460C4601F1140C0023DCF800001E
:10B6200081B202FB01710F0C000C02FB007089B2A9
:10B63000013301EB00419D424FEA10474CF8041BD7
:10B64000ECDCD7B1A368AB4212DC61683046013153
:10B65000FFF790FF2269023204F10C01804692004C
:10B660000C30FDF7CDFF21463046FFF7B7FF4446CB
:10B6700004EB850301355F6125612046BDE8F0815B
:10B68000020C12040346B2B90304102013F07F4FDA
:10B6900004BF1B02083013F0704F04BF1B010430BD
:10B6A00013F0404F04BF9B000230002B06DB5B0011
:10B6B00003D5013070470020E8E720207047036879
:10B6C00013F0070201460BD0DA0723D4980749BFCD
:10B6D0005B089B0801200B605CBF0B600220704779
:10B6E00098B2A8B91B0C102013F0FF0F04BF1B0A5F
:10B6F00008301A0704BF1B0904309A0704BF9B08CF
:10B700000230DA0702D45B0806D001300B607047C4
:10B710001046E9E7002070472020704710B50C461E
:10B720000121FFF727FF01224461026110BD2DE9CD
:10B73000F74F14460A6923699A42B8BF0B468846F8
:10B74000BCBFA0461C46D8F81070D4F81090D8F8AA
:10B750000830D8F8041007EB0906B342B8BF01312E
:10B76000FFF708FF00F1140505EB860E2B460022BB
:10B77000734516D304F1140208F1140102EB890396
:10B7800001EB87070093009B019293420CD8002E97
:10B7900003DD5EF8043D002B5DD0066103B0BDE81B
:10B7A000F08F43F8042BE3E7B2F800B0BBF1000FD1
:10B7B00023D08946AC464FF0000859F8044BDCF81A
:10B7C00000A0A3B21FFA8AFA0BFB03A34FEA144AA4
:10B7D000DCF8004043444FEA14480BFB0A8404EBB6
:10B7E0001344E2469BB243EA04434F454FEA1448F0
:10B7F0004AF8043B2BD8CCF80480019BB3F802A094
:10B800000432BAF1000F20D02B688946A8464FF0C9
:10B81000000BB9F800C0B8F802400AFB0C445C44C5
:10B82000C4469BB243EA04434CF8043B59F8043B3A
:10B83000B8F804B01B0C0AFB03B303EB14434F45E9
:10B840004FEA134B05D8C8F8043004359BE7D446BB
:10B85000B3E7E046DDE7013E99E700002DE9F84354
:10B86000154612F0030206460F4607D0013A214C56
:10B87000002354F82220FFF7C8FE0746AD1035D04C
:10B88000746A3CB91020FDF7ABFE7062C0E9014458
:10B890000460C460D6F82480D8F808404CB940F25F
:10B8A00071213046FFF73AFF0023C8F8080004462C
:10B8B00003604FF00008EB070AD5394622463046B0
:10B8C000FFF735FF394681463046FFF787FE4F4682
:10B8D0006D100BD0206838B9224621463046FFF75C
:10B8E00026FF2060C0F800800446E4E73846BDE843
:10B8F000F88300BFD8D002002DE9F0470C464FEA8C
:10B90000621A236949680AEB0309A36807461646C9
:10B9100009F10105AB4232DB3846FFF72BFE00236D
:10B92000804600F114011A4653452BDB20692AEAB0
:10B93000EA7A04F1140316F01F0201EB8A0103EB0B
:10B94000800C25D0C2F1200E00201E688A46964049
:10B9500030434AF8040B53F8040B9C4520FA0EF0D0
:10B9600014D8486008B109F10205013D3846C8F80D
:10B9700010502146FFF732FE4046BDE8F087013106
:10B980005B00C7E741F823200133CDE75146DCE7F0
:10B99000043953F8042B41F8042F9C45F9D8E4E707
:10B9A00003690A699B1A30B50CD192001430143126
:10B9B0008418114454F8045D51F8042D954203D0C5
:10B9C00005D30123184630BDA042F3D3FAE74FF068
:10B9D000FF33F7E72DE9F0470D46074611462846A5
:10B9E0001446FFF7DDFF061E08D131463846FFF743
:10B9F000C1FD0123C0E90436BDE8F087A4BF23469A
:10BA00002C4638466168A6BF1D4600260126FFF772
:10BA1000B1FD2B69C660266905F1140904F1140211
:10BA200002EB860709EB830800F114054FF0000EC6
:10BA300052F804AB59F8044B1EFA8AF1A3B2C91AA2
:10BA4000230CC3EB1A4303EB214389B24FEA234E85
:10BA5000C84541EA0343944645F8043BE8D8BC4551
:10BA600004D355F8043D83B10661C5E75CF8041BB7
:10BA70001EFA81F31A1402EB11429BB243EA02430D
:10BA80004FEA224E45F8043BE9E7013EE9E72DE99C
:10BA9000F7430E46012159EC108B1546FFF76AFD5E
:10BAA000C9F30A540746C9F3130334BB0193B8F131
:10BAB000000327D002A840F8083DFFF700FE0099D8
:10BAC000F0B1019AC0F1200302FA03F30B43C24024
:10BAD0007B610192019BBB61002B14BF02210121FC
