:020000022000DC
:106000000000012021EB020061EB020063EB0200C3
:1060100065EB020067EB020069EB02000000000084
:106020000000000000000000000000009DEA0200E7
:106030006DEB020000000000BDEA020071EB0200FF
:1060400073EB020073EB020079D2020073EB0200E3
:1060500073EB020073EB020005D40200B566020088
:1060600073EB020073EB020073EB020073EB0200B0
:1060700073EB020073EB020073EB020073EB0200A0
:1060800073EB0200C5E8020073EB020073EB020041
:1060900073EB020073EB020073EB020073EB020080
:1060A00073EB020073EB020073EB020073EB020070
:1060B00073EB020073EB0200000000000000000020
:1060C00073EB020073EB020073EB020073EB020050
:1060D00073EB020073EB0200456802000000000051
:1060E00000000000000000000000000000000000B0
:1060F00000000000000000000000000000000000A0
:10610000000000000000000000000000000000008F
:10611000000000000000000000000000000000007F
:10612000000000000000000000000000000000006F
:10613000000000000000000000000000000000005F
:10614000000000000000000000000000000000004F
:10615000000000000000000000000000000000003F
:10616000000000000000000000000000000000002F
:10617000000000000000000000000000000000001F
:10618000000000000000000000000000000000000F
:1061900000000000000000000000000000000000FF
:1061A00000000000000000000000000000000000EF
:1061B00000000000000000000000000000000000DF
:1061C00000000000000000000000000000000000CF
:1061D00000000000000000000000000000000000BF
:1061E00000000000000000000000000000000000AF
:1061F000000000000000000000000000000000009F
:1062000010B5054C237833B9044B13B10448AFF3F0
:1062100000800123237010BDB43600200000000070
:10622000C442030008B5034B1BB103490348AFF355
:10623000008008BD00000000B8360020C442030002
:10624000154B002B08BF134B9D46A3F5803A002148
:106250008B460F461348144A121A0AF032F80F4BB5
:10626000002B00D098470E4B002B00D09847002001
:10627000002104000D000D48002802D00C48AFF3A7
:10628000008009F0A5FF2000290008F087FC09F034
:1062900079FF00BF0000080000000120000000009E
:1062A00000000000B43600208C67002000000000D1
:1062B00000000000002340F6FF7213B58360C26047
:1062C000772280F8C12040F2DC520446C0F80C214D
:1062D000012280F84430C0E90033C0F81431C0F81E
:1062E000B830C0F8183180F8BC30C0F81C3180F8E4
:1062F000C03080F8203180F8C230C0E93133C0E9C5
:106300003933C0E93B33C0E93D33C0F8FC30C0F855
:106310000031C0F81031C0F8243180F8282110482D
:10632000C4F83801114484F83D3184F83E2184F8E2
:106330003F310D22C4F8403104F15403A4F8301168
:1063400084F83C1100930192064B114604F1480079
:1063500008F0B6FF2046C4F82C4102B010BD00BFC3
:106360006DDB363C04340020C0F840117047D0F893
:1063700040017047D0ED2E7A90ED507AF8EEE77A32
:10638000B8EEC70A77EEC07A90ED4E0A27EE800A83
:1063900070470000D0F81C31D0F840219342C1BFB3
:1063A000D0F81C31D0ED4E7A9B1A00EE103AC6BFE1
:1063B000B8EEC00A20EE270A9FED010A704700BF21
:1063C00000000000D0F8B80070470000034BC0F890
:1063D0003831012380F83E31704700BF0000703E25
:1063E00090F83E01704700238360C0F81C3140F6EE
:1063F000FF73C360C0F824317047C261C0E9031362
:10640000019A009B826143617047416480F8482093
:106410007047C364416480F84820704790F8482072
:10642000436C22B19942D4BF0020012070479942A9
:10643000ACBF002001207047406A7047806A7047F7
:10644000C26A406B101A704738B58378826983F04E
:1064500001030433044650F82310C068920009F089
:106460000CFFA378A569E0686268043300EB85003F
:1064700054F823109200BDE8384009F0FEBE407881
:10648000A0F1640358425841704700000023722273
:1064900083608370436003654363427042F20F710F
:1064A000C2699A4204DDC26842F823100133F7E75B
:1064B0000149024806F002BD8C300300585F0020FD
:1064C000F8B50446414F21620E46FFF7A7FF3B781F
:1064D0008342054603D006F0EDFF3D7020636378EC
:1064E000722B67D002D8692B27D0F8BD742B47D008
:1064F000772BFAD1A3786268043354F8233043F839
:1065000022606268A36901329A42626005D100226A
:106510006260A27882F00102A270002DE5D062686C
:106520001344A36063626923637006F0CFFF606366
:10653000E06206F0BFFFA063D7E7D4E9022343F887
:106540002260A3680133A36006F0C0FF636BC01A2A
:10655000E36C9842C9D935B17423637006F0B6FF75
:10656000E063E062C1E706F0B1FFE26C636B03EB4E
:1065700042039842B9D92046BDE8F840FFF786BFEC
:1065800025B106F0A3FFA368E062A362D4E9022369
:1065900043F82260A368E26901339342A360A4DB5D
:1065A0006423637006F092FF20642046BDE8F84043
:1065B000FFF74ABF3DB9236D01330A2B236594DDF4
:1065C0007723637091E7002323658EE7D0360020A0
:1065D00000F1804000F5E040002382B003600368D2
:1065E0000193019B02B0704708B506F063FF064AAD
:1065F0001368C31A032B05DD044B1060012283F8D6
:106600002020586008BD00BF88490020644E00204B
:1066100008B506F04FFF064A1368C31A0F2B05DDB5
:10662000044B1060012283F82020186108BD00BFD0
:106630008C490020644E002043788278017A1B0147
:10664000120202F4E06203F030031343027802F016
:1066500003021343C278120302F4805213430279F7
:10666000120402F4E02213434279120502F480126C
:1066700013438279120602F080721343044AC2F86F
:106680001835C379C2F81415C2F81035704700BF29
:106690000070004070B505460C46084649B10AF046
:1066A000F5FC2B680246214628465B68BDE8704031
:1066B000184770BD2DE9F04106F0FCFE584B1B68F1
:1066C0000646002B00F0A9804FF48670FFF780FF8C
:1066D000544B554CD3F82C36B3F90050236893F83B
:1066E00032215D6002F0FB02412A01BF4F490A6876
:1066F00001320A601A68111D2802013243F8210094
:106700001A60206803680C2B12DD00F1B8020D231B
:1067100000F11001483008F0EFFD2368D3F8B820ED
:106720001212C3F8B820012283F8442000221A6014
:1067300022683F4BB5F57A6FACBF002701279A421C
:1067400009D1DFF8F88098F80030BB4203D0FFF79A
:106750004BFF88F800702268364B9A4209D1DFF867
:10676000E08098F80030BB4203D0FFF751FF88F873
:1067700000702068D0F81431F31AB3F57A7FC4BFE3
:106780000023C0F81C31D0F81831F31AB3F57A7F22
:10679000C4BF4FF48053C0F82431D0F81C31AB4251
:1067A000BEBF8560C0F81C51C0F81461D0F8243118
:1067B000AB4290F8BC30C2BFC560C0F82451C0F8ED
:1067C00018611BB14168C030FFF77AFE236893F867
:1067D0002821D2B1D3F82C3123600021102008F0F9
:1067E0009FFC2368012293F836310F21072008F01F
:1067F000C9FC0121102008F093FC2368B3F8302174
:10680000084BC3F8102501221A60064A0A4BC2F849
:106810002C360123C2F830365360BDE8F08100BF4A
:106820000C71004000700040243A0020504C0020C1
:106830008C450020D0460020D23600207C49002024
:106840007D490020044B9A68F1EE103A136C23F056
:106850009F031364704700BF30EF00E00A2190FBF4
:10686000F1F201FB12009300092807D8DFE800F0DD
:10687000060605050808080A0A0C01331846704781
:106880000233FBE70333F9E70433F7E738B5084C85
:1068900005460221204605F0A3FE064B4FF00212EA
:1068A000C4E9042329462046BDE8384006F0F9BA79
:1068B0005C4D002020FD07002DE9F843244C089D85
:1068C0001F468046894620460221164605F088FE6E
:1068D0004FF6E073394620466361A4F81090A4F89F
:1068E000128006F0DEFA1B49204606F0DAFA002391
:1068F000E38242F20F739D42A68205D116492046DB
:10690000BDE8F84306F0CDBA0A2625EAE578324616
:1069100098FBF6F72046394606F019FB42F2107351
:106920009D4213DCB5F57A7F03DD0C49E7E70C499E
:10693000E5E7632DFBDC0B49204606F0B2FA324650
:1069400006FB1781204606F002FBEEE7BDE8F88360
:106950005C4D00208C310300C6320300CC320300B2
:10696000CB320300AE310300B5EEC00AF1EE10FAEF
:1069700048BF9FED090A08B510EE100A09F0DAF8D1
:106980000022064B09F02EF90022054B08F074FF97
:1069900009F03AFB08BD00BF0000000000002440E1
:1069A0000000E03F194B984270B405D1184B93EDAD
:1069B0000C0A70BCFFF7D8BF164B984203D1144B9A
:1069C00093ED0D0AF5E7144B984203D1104B93ED6C
:1069D0000E0AEEE70178114C00234FF4A27505FB77
:1069E000034292F833618E420AD1467892F83421FC
:1069F000964205D1064A02EB830393ED130AD8E7CA
:106A00000133092BEBD170BC704700BFF530030098
:106A1000C8490020FD30030009310300283A002056
:106A200010B5164C0122C4F800256FF00042C4F8DE
:106A3000082390B11248FFF7FFFD0223C4F8F03598
:106A40000023C4F8F8350F4B0F4C01221A6023685D
:106A50002BB90A2006F046FDF9E70C48EBE74FF4A6
:106A60008870FFF7B5FD054B0222C3F8F425D3F873
:106A7000182542F08072C3F8182510BD0070004040
:106A8000423400200C700040107100403834002067
:106A90000D4A08B56FF00043C2F808334FF4867012
:106AA000FFF796FD0823C2F80433084B8021C3F892
:106AB00080111960012306491360C2F82C16C2F830
:106AC0003036044A136008BD0070004000E100E069
:106AD000D236002004700040064B8022C3F880208C
:106AE000C3F88021044B6FF00042C3F80823012251
:106AF0009A60704700E100E0007000402DE9F74324
:106B00006D4C6E496E4D6F4EDFF80C8204F5997036
:106B10000AF0A2FA22236C4984F8363104F2762076
:106B20000AF09AFA422304F5A27084F87A32FFF749
:106B30004DFC664904F2BA300AF08EFA822304F55D
:106B4000227084F8BE33FFF741FC614904F2FE4035
:106B50000AF082FA242304F5737084F80235FFF7F3
:106B600035FC5C4904F242600AF076FA44235A4943
:106B700084F8463604F286700AF06EFA842304F232
:106B8000546084F88A37FFF721FC544904F6CA00A0
:106B90000AF062FA282304F5F36084F8CE38FFF790
:106BA00015FC4F4904F60E200AF056FA482304F665
:106BB000DC0084F8123AFFF709FC4A4904F6523027
:106BC0000AF04AFA882384F8563B4749522305F5D0
:106BD000997085F836310AF03FFA444BC5F82C61BC
:106BE0004FF0140905F1C00000938022503B40494A
:106BF000CDF80490FFF701FC002205F1C0004FF42E
:106C00007A61FFF702FC012758233A4985F8BC70E6
:106C100006F5997086F836310AF01EFA364B009365
:106C20008022503B3249CDF8049006F1C000C6F8EE
:106C30002C81FFF7E2FB00224FF47A6106F1C000DD
:106C4000FFF7E3FB02232D4988F8363108F59970E8
:106C500086F8BC700AF000FAC8F82C514046284D5E
:106C6000FFF7B4FB002321464FF4A2705A5D84F86D
:106C70002871013300FB0212092BC4F82C2104F502
:106C8000A274F3D11F4B204A1960204B0121A3F1BC
:106C90000C0008F00FFD1E4B1B4AA3F10C00012154
:106CA00008F008FD1B4B184A0121A3F10C0003B0AA
:106CB000BDE8F04308F0FEBC283A0020F4300300A1
:106CC0008C450020D04600200B3303001D33030009
:106CD000F8300300FC3003001433030000310300DC
:106CE00004310300083103000C3103003439002063
:106CF000E436002010310300D439002014310300A1
:106D000049310300243A00204C340020444A00203A
:106D1000604A00207C4A0020144800202DE9F04FF2
:106D20002DED028B83B00023C8480193FFF74AFB87
:106D3000B0F57A6FC54DC64C80F27F812846FFF7CB
:106D400019FB02A921ED010A012304F1300204F12B
:106D5000700008F0BBFC2846FFF71CFB84ED0F0A0F
:106D6000BC48FFF72FFBB0F57A6F80F26A81B94813
:106D7000FFF700FBB84A02A902F1580021ED010A11
:106D8000012308F0A3FCB348FFF704FB84ED100ACD
:106D9000B248FFF717FBB0F57A6F80F27B81AF48FE
:106DA000FFF7E8FAAE4A02A902F1380021ED010A24
:106DB000012308F08BFCA948FFF7ECFA84ED110AD7
:106DC000A248A84FDFF8C8B2FFF7FCFA6060A648F7
:106DD000FFF7F8FAA060A548FFF7F4FAE060A448CE
:106DE000FFF7F0FA20619B48FFF7ECFA6061A148D9
:106DF000FFF7E8FAA061A048FFF7E4FAE0619F48D6
:106E0000FFF7E0FA20629548FFF7DCFA002660629F
:106E10004FF4A27940F6B83A09FB06584046FFF70E
:106E2000D1FA504540F33A814046FFF7D9FA00289D
:106E300000F03481C7F800B009FB06530136002288
:106E4000092E83F8442007F10407E5D194ED0F7A69
:106E50002388A1688A4EF1EE047AB4EEE77AF1EE67
:106E600010FACCBF43F0010323F0010394ED107A34
:106E700023802388B4EEE77AF1EE10FACCBF43F01A
:106E8000100323F0100394ED117A23802388B4EECD
:106E9000E77AF1EE10FACCBF43F4807323F48073E9
:106EA0002380238840F6B7329142D4BF43F00203D7
:106EB00023F002032380E168238840F6B732914231
:106EC000D4BF43F0040323F0040323802169238803
:106ED00040F6B7329142D4BF43F0080323F00803D1
:106EE0002380A169238840F6B7329142D4BF43F092
:106EF000200323F020032380E169238840F6B73282
:106F00009142D4BF43F0400323F040032380216A21
:106F1000238840F6B7329142D4BF43F0800323F078
:106F200080032380228833889A4205D006F0C2FA73
:106F3000544B18602388338094F82A304BB10026D4
:106F40004FF4A27707FB06500136FFF74CFA092EE3
:106F5000F8D19FED4D8AD4ED0C7AF4EEC87A002377
:106F6000F1EE10FA84F82A30C0F29E80D4ED0D7A4A
:106F7000F4EEC87AF1EE10FAC0F29680D4ED0E7AF3
:106F8000F4EEC87AF1EE10FAC0F28E8023889A10DF
:106F900042EA5302D20700F187809B0600F1848009
:106FA00006F088FAA36CC01AB0F5FA6F02D9012373
:106FB00084F82A302388354A1A4019D1D4ED0C7A46
:106FC000F4EEC87AF1EE10FA73DBD4ED0D7AF4EE3C
:106FD000C87AF1EE10FA6CDBD4ED0E7AF4EEC87AD2
:106FE000F1EE10FA04D5012184F82B1084F82C203E
:106FF00023F00103B3F5887F5FD1D4ED0C7AF4EE72
:10700000C87AF1EE10FA13D5D4ED0D7AF4EEC87A01
:10701000F1EE10FA0CDBD4ED0E7AF4EEC87AF1EE54
:1070200010FA05DB002384F82B30012384F82C3080
:1070300003B0BDEC028BBDE8F08F154B2363E36317
:107040008EE6134B63632364A2E600BF283A002058
:10705000C8490020383F0020FC4900204844002057
:10706000004A0020144A00206C3B0020B03C002065
:10707000F43D00207C400020C0410020044300205B
:1070800062340020584D00209AF97944EEFEFFFF4B
:107090009AF979440A4BA363636491E64046FFF78B
:1070A00069F987ED000AC7E606F004FA0023A06438
:1070B0007EE7002284F82B209AE70023B6E700BF82
:1070C0009AF97944F8B51D4D1D4C2C600021102013
:1070D00008F026F82B68012293F836310F2107209B
:1070E00008F050F80121102008F01AF82B68B3F8C6
:1070F0003021144BC3F81025FFF7CAFC14254FF4B8
:10710000A2760027002306FB034292F844000028E1
:10711000FBD00133092B82F84470F4D1FFF7FEFD58
:10712000013DEFD1FFF7D8FC074B01226FF4FA6164
:1071300083F82A200A449A64F8BD00BF243A00204C
:10714000283A002000700040C849002008B50222FB
:107150000549052006F0A6F8022204491D20BDE8D5
:10716000084006F09FB800BFE96502001166020002
:1071700008B5FFF7B1FC0021102007F0D1FF1A235A
:1071800001220F21072007F0FDFF0121102007F049
:10719000C7FF4FF0A0434FF44032C3F814274FF419
:1071A0000032C3F87427FFF7D1FF024B01221A7097
:1071B00008BD00BF4134002070B50021102007F049
:1071C000AFFF002301220F21072007F0DBFF102073
:1071D000012107F0A5FFFFF77FFC224A00234FF4AF
:1071E000A2761846154606FB03F154180133092B05
:1071F00084F844008850F6D11B4C002110202260F6
:1072000007F08EFF2368012293F836310F21072003
:1072100007F0B8FF0121102007F082FF2368B3F8C0
:107220003021124B0120C3F8102506F05BF9FFF75F
:107230002FFC00234FF4A274184604FB035292F86B
:107240004460002EFBD00133092B82F84400F4D1B6
:10725000FFF764FDFFF740FC054B93F82A0080F030
:10726000010070BD283A0020243A00200070004040
:10727000C849002038B52DED028B06F01BF90546F4
:107280003A483B4C9FED3B8AFFF79CF8B0F57A6F8C
:1072900065DA3648FFF76EF8344884ED090AFFF7DF
:1072A00079F8002384ED0D0AE56384F84030324814
:1072B000FFF788F8B0F57A6F54DA2F48FFF75AF8DD
:1072C0002D4884ED0B0AFFF765F8002384ED0E0AC4
:1072D000E56384F84030D4ED0B7AF2EE048A67EE71
:1072E000A87A17EE900A08F025FC0022234B08F03C
:1072F000C3FA08F089FE2063D4ED097A67EEA87A14
:1073000017EE900A08F016FC1C4B002208F0B4FAA5
:1073100008F07AFEA0621A48FFF754F840F6B73337
:107320009842CCBF002001202076D4ED0B7AF4EEF9
:10733000487AF1EE10FA0FD1D4ED097AF4EE487ADA
:10734000F1EE10FA08D1E36BED1A42F210739D4290
:10735000C4BF012384F84030BDEC028B38BD84EDFE
:10736000098AA4E784ED0B8AB5E700BFD046002068
:10737000644E00209AF979448C4500200000E03FDB
:107380001448002010B506F095F81E4B1E495A68A7
:10739000496840F69F739A42CCBF0022012299426D
:1073A0001A4B1C7BCCBF002101218C4209D01C69E7
:1073B000041B0F2C05DD164C206019730121586148
:1073C00059731978914209D05968411A032905DD8A
:1073D0000F4908601A70012298605A705A7832B1C9
:1073E0009A68D969821A8A42C4BF00225A705A7BAD
:1073F00032B15969DA69401A9042C4BF00225A7307
:1074000010BD00BF8C450020D0460020644E0020F7
:10741000584D0020F8B51C4D1C4C2C60002110204C
:1074200007F07EFE2B681A4E93F8363101220F21A9
:10743000072007F0A7FE0121102007F071FE2B683E
:10744000B3F83021134BC3F81025FFF721FB1425A7
:10745000002794F844301BB996F84430002BF8D03C
:1074600084F8447086F84470FFF704FFFFF78AFF42
:10747000013DEED1FFF730FB074B012283F840209E
:10748000064ADA63F8BD00BF243A0020D046002047
:107490008C45002000700040644E0020F0D8FFFFB3
:1074A00070B5244C244D254E002184F8441085F8F5
:1074B0004410FFF711FB1020346007F031FE3368F1
:1074C000012293F836310F21072007F05BFE0121DE
:1074D000102007F025FE3368B3F83021184BC3F8AD
:1074E0001025FFF7D5FA94F844301BB995F84430CD
:1074F000002BF8D0FFF7F0FAFFF7BCFEFFF742FFD2
:107500000F4BD3F80044002CFBD12146102007F08C
:1075100007FE234601220F21072007F033FE012139
:10752000102007F0FDFD074B93F8400080F00100AC
:1075300070BD00BFD04600208C450020243A0020BA
:1075400000700040644E002010B505F0B3FF4FF00E
:10755000A0421F49D2F81035D2F810256FEA531314
:1075600003F001040B6801330B601A4B6FEA52728F
:10757000197B02F00102914209D01969411A0F29C1
:1075800005DD1A73012258615A73134A10601A7884
:10759000A24209D05A68821A032A05DD01221C7012
:1075A00098605A700C4A10605A7832B19A68D9695A
:1075B000821A8A42C4BF00225A705A7B32B159697A
:1075C000DA69401A9042C4BF00225A7310BD00BF4E
:1075D000504C0020644E0020584D00200000000058
:1075E0002DE9F843404B41491C78E4B2032C37D8CD
:1075F000012505FA04F414F00D0432D0FFF76CFAFB
:10760000D1F81045E4B20723C1F8103501230B600F
:1076100005F05CFF364BDFF8E880344ADFF8E49091
:1076200018600026042731460823C2F82C864FF440
:107630008670C2F83036FEF7CBFF4FF48270FEF74B
:10764000C7FF01232B481360D9F800C0BCF1000F1D
:1076500009D10360D2F800C4BCF1000FFAD1F3E7FE
:1076600000242546CFE7D2F82CE60023D2F83406D2
:1076700080B2984206EB030C04DD3EF9130001339F
:107680000144F3E7013F6646CED191FBFCF61DB104
:10769000C2F81045FFF7FCF907EE906AF8EEE77ABA
:1076A00017EE900A08F046FA0BA3D3E9002308F07E
:1076B00099FA0022104B08F095FA09A3D3E90023A8
:1076C00008F0BAFB0B46024608F0D6F808F0C4FCF6
:1076D0000A4B1860BDE8F883333333333333E33F69
:1076E0000000000000FEAF40413400200070004068
:1076F000A44D0020047000400000104068340020B9
:10770000D2360020047100400B280FD8DFE800F0CB
:107710000808080808080808080F061106487047F6
:10772000064B4FF4A27202FB0030704770470448CA
:1077300070470448704700BFD0460020283A002018
:107740008C450020144800202DE9F043264C237876
:107750009BB023B9254804F0CBF901232370002204
:107760002349244802F037FB002837D0642201A9BE
:107770002048DFF89480DFF8849002F0AAFA1E49CE
:107780001E4805F08EFB0A229DF804101B4805F0E8
:10779000F7FB1B49194805F091FB9DF80470012582
:1077A00000242046FFF7B0FFA742064610DD1AABC3
:1077B0002B44023513F8641C30460134FEF7D4FD27
:1077C0000B2CEED10B4802F0EAFA1BB0BDE8F083B7
:1077D0004146484605F072FB0021EDE7094907489C
:1077E00005F06CFBF1E700BFA04B0020044F002028
:1077F000253203003C4B002036320300585F002046
:10780000E3320300753203004D3203002DE9F341EA
:107810000646052005F0C4FD1D2005F0C1FD4FF012
:10782000A0434FF44032C3F814274FF40032C3F89A
:1078300074270021102007F073FC012200230F2180
:10784000072007F09FFC0121102007F069FCFFF7DB
:1078500043F92C4B2C4C2D4DDFF8C48030460127CA
:1078600083F82A70FFF7DCF8FFF76EFF284B1C60E7
:10787000002E39D0274B00931426503B80222649F6
:10788000019604F1C000FEF7B8FD40F6B8333A4661
:107890004FF47A6104F1C000FEF7BBFD04F1C000B3
:1078A00084F8BC70FEF7F2FD1C4B00938022503B25
:1078B0001949019605F1C000FEF79FFD40F6B83367
:1078C0001946002205F1C000FEF7A3FD05F1C00036
:1078D00085F8BC70FEF7DAFD032388F8003002B0AB
:1078E000BDE8F041FFF7D4B805F1C00085F8BC60F1
:1078F000FEF7CCFD04F1C00084F8BC60FEF7C6FDC5
:107900000223EAE7C8490020D04600208C45002029
:10791000243A0020D4390020E436002034390020F5
:107920004134002008B5052005F03AFD1D2005F082
:1079300037FD4FF0A0434FF44032C3F814274FF403
:107940000032C3F874270021102007F0E9FB002360
:1079500001220F21072007F015FC0121102007F05C
:10796000DFFBFFF7B9F80020FFF75AF8FFF7ECFE4E
:10797000064B074A1A60074B012283F84020064B4A
:1079800000221A70BDE80840FFF782B8243A0020B0
:10799000283A0020644E00204134002010B5052014
:1079A00005F0FEFC1D2005F0FBFCFFF705FC04467E
:1079B00018B1BDE81040FFF7B5BFFFF771FD20B16A
:1079C0002046BDE81040FFF721BF10BD08B5FFF706
:1079D000E5FF024B04221A7008BD00BF41340020AD
:1079E0001FB54B484B4C01F063FE4B4801F060FE65
:1079F0004A4801F05DFE00212046FEF75BFC0321B2
:107A000004F5A270FEF756FC032104F52270FEF780
:107A100051FC042104F57370FEF74CFC012104F5C0
:107A2000A260FEF747FC042104F25460FEF742FC1A
:107A3000052104F5F360FEF73DFC052104F6DC00AA
:107A4000FEF738FC022104F52260FEF733FC022128
:107A50003348344CFEF72EFC00213348FEF72AFC55
:107A600005213248FEF726FC314B3249196340F6B6
:107A7000FF72C3E90322C3E90122C3E90522012001
:107A8000C3E907225A620022188083F8282083F86D
:107A9000292083F82A0083F82B2083F82C205963AF
:107AA0009963D963196459649A64234B4FF49671AE
:107AB0001A705A705A609A601A735A731A615A612E
:107AC0001A76D961002183F8202059629A62D9621E
:107AD0001A6359639963DA6383F840004FF0FF3209
:107AE0001423CDE9013280221F2300931146134B4A
:107AF000204604F0D9F9124A1249204608F010FB3A
:107B00001149124804B0BDE8104002F085B800BF2A
:107B1000A44B0020283A0020B84D00208C4A0020B9
:107B2000D04600205C4D00208C45002014480020E9
:107B3000C84900209AF97944644E0020E44E0020A0
:107B400000340020D5BE0200044F00203C4B002032
:107B50002DE9F04F9A46404BDAF8005090461A68EB
:107B6000424585B004460F461FDAAA42B4BF00253D
:107B700001254FF47846CDF800800E9B3246002157
:107B80002046FEF799FEB8F5A07F24DD10340021D1
:107B90003FB201910097802322B2304804F0C2FE28
:107BA000CAF8008005B0BDE8F08F2D4B1B68434537
:107BB00006DBAB42ACBF002501254FF4FC66DAE7DB
:107BC000AA4206DCAB42CCBF002501254FF6205669
:107BD000D1E70125FAE7DAF80030C8F5A070C3F55F
:107BE000A079A0EB0903002B18DDFEF737FE103457
:107BF00024B283463FB2B6B22DB1CDE9007603B2CE
:107C000022460021C9E74846FEF728FEABEB0003F9
:107C1000CDE900761BB2224601B2BEE7C0D0FEF726
:107C20001DFE103403B224B2834603933FB235B134
:107C3000CDE9007622460021084804F073FE48464C
:107C4000FEF70CFE0022A0EB0B03CDE900721BB285
:107C500022460399A1E700BF703400205C4D00204C
:107C60006C34002013B50446FEF79CFE00940246D7
:107C7000034B08211920FFF76BFF02B010BD00BFB6
:107C80005849002013B50446FEF78CFE00940246C6
:107C9000034B08213C20FFF75BFF02B010BD00BF83
:107CA0005C49002013B50446FEF77CFE00940246B2
:107CB000034B08215F20FFF74BFF02B010BD00BF50
:107CC00060490020124BF7B51A68824206460F46FB
:107CD0001BD0104C18600221204604F081FC0025C6
:107CE0001423CDE900352946204673232A4604F0A3
:107CF00019FE4FF00213314620462361A782E58228
:107D000003B0BDE8F04005F0D9B803B0F0BD00BF46
:107D1000644900205C4D0020F8B5564B1C8814F0D7
:107D20000A0604D004F01106113E18BF012614F013
:107D3000A00505D004F48875B5F5887518BF012530
:107D400014F0440705D040F20113A34314BF0127E8
:107D500000270221484804F043FCAEB14FF47841BB
:107D60006DB14648FFF7AEFF4548FFF77BFF45483A
:107D7000FFF788FF4448BDE8F840FFF793BF43484A
:107D8000FFF7A0FF3E4814E065B14FF4784140484A
:107D9000FFF798FF3F48FFF765FF3A48FFF772FF8C
:107DA0003D48E8E74FB13D484FF47841FFF78AFF7F
:107DB0003548FFF757FF3A48F0E7A50704F00802F7
:107DC00004F0400318D54FF478413AB13548FFF735
:107DD00079FF2B48FFF746FF3348DFE753B13348BD
:107DE000FFF770FF2648FFF73DFF2648FFF74AFFE1
:107DF0002F48C0E72B48C3E7A00609D52D484FF40C
:107E00007841FFF75FFF2348FFF72CFF1D4815E07F
:107E1000610717D54FF478413BB12748FFF752FF70
:107E20001948FFF71FFF1E48E0E7002AF5D0234856
:107E3000FFF748FF1448FFF715FF1B48FFF722FF25
:107E40001F4898E71AB14FF478411E48BFE7220651
:107E500003D54FF478411C48D3E71BB14FF4784168
:107E60001A48DBE71A484FF4FC61FFF72BFF09487B
:107E70009FE700BFC84900205C4D0020FC32030092
:107E80000C330300153303001E33030006330300D5
:107E90000F330300F53003000931030018330300EA
:107EA000FD30030021330300F93003002A330300BF
:107EB000013103002B330300343303003D3303004F
:107EC00005310300473303003E3303005033030002
:107ED0005933030010B508484FF6E074446102219D
:107EE00004F07EFB21460548FFF7ECFE0448BDE8A0
:107EF000104001F077BC00BF5C4D00201E32030033
:107F0000B84D002008B505484FF6E071FFF7DAFEDE
:107F10000348BDE8084001F065BC00BF193203000A
:107F2000A44B0020F7B5104C104F94ED0E0A104DE5
:107F3000FEF71AFD1221064602463B460095022036
:107F4000FFF706FE322E2846CCBF4FF4FC614FF4FB
:107F500078413E60FFF7B6FE94ED0E0A054803B087
:107F6000BDE8F04001F006BDC8490020643400209F
:107F700019320300A44B002073B5334C334D227BE0
:107F80002B6802F0FF061AB3B3F5784F0BD0072326
:107F90004FF47846CDE900361322142300212C48F3
:107FA00004F0C0FC2E60627B2A4D02F0FF062B68B5
:107FB000BAB14FF6E076B34215D0072300931423ED
:107FC000019613221946224804F0ACFC2E600AE008
:107FD000002BE8D007230093019614231322314687
:107FE000DDE7002BE9D122781B4D02F0FF062B685C
:107FF0007AB1B3F5FC6F0ED04FF4FC660723009303
:108000000196142313224621114804F08BFC2E60A4
:1080100001E0002BF2D16278104C02F0FF052368DA
:1080200072B14FF6E075AB420CD007230093019577
:10803000142313225A21064804F074FC256001E041
:10804000002BF2D102B070BD644E00209C4900208C
:108050005C4D0020A449002098490020A049002040
:1080600073B5364C364D227B2B6802F0FF06002A92
:1080700037D0B3F5784F0AD032234FF47846CDE9A4
:1080800000361C2200212F4804F04CFC2E60627B3D
:108090002D4D02F0FF062B685AB34FF6E076B3423F
:1080A00009D028230093019632235022002125482D
:1080B00004F038FC2E602278244D02F0FF062B6875
:1080C00002B3B3F5FC6F1FD04FF4FC66322300936C
:1080D00001964E231C2246211A4804F023FC2E60F0
:1080E00012E0002BD3D03223019600931C2231469C
:1080F000C9E7002BDFD028230093019632235022BA
:108100003146D4E7002BE1D16278114C02F0FF0533
:10811000236872B14FF6E075AB420CD02823009370
:1081200001954E2350224621064804F0FBFB2560B2
:1081300001E0002BF2D102B070BD00BF644E002000
:10814000AC4900205C4D0020B4490020A849002023
:10815000B04900202DE9F0472DED028B534C9FEDE7
:10816000548ADFF86481DFF86491C2B020460021B0
:1081700003F004FE002580262046032103F022FEA2
:108180002A46CDE9006533462946204604F0CAFB5D
:108190004FF6E073636125612046022104F020FA66
:1081A0004449204604F08AFE40F2FF736361204692
:1081B000022104F015FA64273F49204604F07EFEB0
:1081C0004FF0AC0AB0EE480A01960097F2EE040AAE
:1081D0001B232A46214617A801F048FA524617A940
:1081E000404608F04AF8CDE90076344FDFED340A16
:1081F000B0EE480A1B232A46214617A801F036FA9A
:10820000524617A9384608F038F8214657232D4C16
:108210000196F3EE040AB0EE480A00932A4628239A
:1082200017A801F023FA2646524617A9484608F037
:1082300024F80FCE12AD0FC533682B6004F114067D
:108240000FCE17AD0FC533682B6012AA17AB484687
:10825000052101F03CFA04F128030FCB02AE04F132
:10826000380586E80F0095E80F000DF1180C8CE832
:108270000F004834634632464046042101F027FA95
:1082800094E80F000AAE86E80F0095E80F000EACE8
:1082900084E80F00234632460421384601F017FADD
:1082A00042B0BDEC028BBDE8F08700BF5C4D002002
:1082B00000000000183103002D3103008C4A00201B
:1082C000000020429C300300B84D0020A44B002049
:1082D00010B5FFF73FFF01210B2006F0F9FE012149
:1082E0000B2006F01DFF4FF4FA7005F0FBF8354B3C
:1082F000354C802283F8262340225A600121192020
:1083000006F0E6FE0021192006F00AFF01211120E7
:1083100006F0DEFE0021112006F002FF01211320ED
:1083200006F0D6FE0021132006F0FAFE01211020EF
:1083300006F0CEFE01210F2006F0CAFE0121072023
:1083400006F0C6FE0021102006F0EAFE00210F20F4
:1083500006F0E6FE0021072006F0E2FE00211020D4
:1083600006F0DEFE002301220F21072006F00AFF9F
:108370000121102006F0D4FE00211B2006F0A8FEEB
:108380004FF4E131204604F000FE104803F0B0FB4A
:108390000F49204604F092FDFEF7B0FB0020FEF7E7
:1083A0003FFBFFF71DF9FEF78DFEFFF733F8094B92
:1083B000094A1A60FFF70AFB20460849BDE8104049
:1083C00004F07CBD00E100E0585F0020044F002075
:1083D000D7320300584D0020DFB1FFFFED3203001C
:1083E000354BD3ED007AB0EE047AF4EEC77AF1EEB5
:1083F00010FAF7B54ADD17EE900A07F09BFB2AA3A7
:10840000D3E9002307F036FA29A3D3E9002307F0C4
:1084100013FD0022294B07F0E5FB07F0F5FD0121D4
:108420000446274804F0DCF80F2C05DC30D04FF46C
:1084300078464FF4784307E0312C2CDD6D2C4FF457
:10844000FC664FF6FF732BDC0A2294FBF2F4E4B2D5
:108450001B4F9DB20923009300220C237421384640
:10846000019503F032FE0523022273213846009560
:1084700004F0FAFA07230093019623460122C4F17F
:108480007F01384604F04EFA0E4B3B6103B0F0BD5D
:108490004FF6E076CDE74FF6E0764FF6FF73D3E781
:1084A0000A24D5E7AFF300806666666666660A4012
:1084B000989999999999E93F6834002000005940AA
:1084C0005C4D0020820001002DE9F04F2DED028B64
:1084D00085B0054604F0EEFF844B854C1B68C01A3E
:1084E0004EF6602398420ED90021824803F0F3FC37
:1084F000002323702378BBB1042D15D8DFE805F0E5
:108500000C302C2E32002378002BF3D10121794836
:1085100003F0E1FC0823ECE702232370764B93F889
:108520002B300BB104232370744B227819789142BD
:108530009A4620D06F4D0021284603F0B8FD4FF039
:1085400002132B612378013B062B0FD8DFE803F0E1
:10855000A8210E0C999F8D000523E4E70723E2E78D
:108560000623E0E70123DEE7FFF7CCFC23788AF857
:108570000030FFF735FF2378072B00F2AA80DFE8F1
:1085800013F0A302A30292009200AD00AD019C0281
:10859000E9004FF6E0715A48FFF794FB594A5548F5
:1085A0004FF4A0731360584A1360584A1360584B35
:1085B00000261E60574B40F2FF7B1E601F22CDF845
:1085C00000B060237F2104F04FFACDF800B06023A3
:1085D0001F225F21474804F047FACDF800B060231E
:1085E0001F223F21434804F03FFA1F22CDF800B07C
:1085F00011464FF01A0B60233E4804F035FA31461D
:108600000196CDF800B0802318223A4804F08AF988
:108610003146CDE900B680233B22364804F082F98A
:108620005E2280233146CDE900B6324804F07AF963
:108630000121304803F0D4FF374B2B6137492D48D7
:1086400004F02FFC364B2B6136492A4804F029FCF4
:10865000354B2B613549274804F023FC344B2B6103
:108660003449244804F01DFC80E74FF47841324837
:10867000FFF728FB314801F0B5F8314B00221A70A2
:1086800074E72F4B00221A70FFF724FC6EE72C4B87
:108690002C4800221A704FF6E071FFF713FB65E7D4
:1086A0001F212948F9E704F011FF284C2060FFF74B
:1086B00033FB04F00BFF2168254B8842186008D972
:1086C000134A13685B1A18441060124A1368013386
:1086D000136005B0BDEC028BBDE8F08F05B0BDECBA
:1086E000028BBDE8F04FFFF71DBC00BF584D0020C6
:1086F000613400205C4D0020C84900206034002017
:1087000059330300604900205C490020584900208B
:10871000B44D0020A84D0020110078005F33030005
:1087200031007800623303005700780060330300A3
:10873000770078009F370300653303008C4A0020E0
:10874000744900206D33030075330300544D00203D
:10875000384B0020FFF710FCB148FDF790FE0028D1
:1087600000F0B480AF4B03221A7004F0A3FEAE4BAE
:108770001860AB48FDF760FE0746A948FDF75EFEAE
:108780008046AA48FDF7F3FD8146A548FDF758FE4F
:108790004FF478410546A648FFF794FAA548FDF73F
:1087A0006EFED8B19F4BA34802221A70FDF744FE1B
:1087B0000746A048FDF742FE80469F48FDF7D7FDDB
:1087C00081469C48FDF73CFE054604F073FE964B3F
:1087D0004FF4784118609948FFF774FA04F06AFE84
:1087E000974A136803F5FA73984292467FF671AF81
:1087F000944E337863B98A48FDF748FE8D48FDF7FB
:1088000045FE4FF4FC619048FFF75CFA012333709A
:108810008348FDF734FE00285AD08C48DFF82CB28C
:1088200000F0E0FF8A4B8B4A93ED008A002452F857
:1088300024300392A3EB090300EE103AB8EEC00A0D
:10884000584620EE080A013401F094F8802C039A6F
:10885000EDD1814C40F2FF7939B27F231C222046B2
:10886000CDF8009004F000F97F231C220FFA88F164
:108870002046CDF8009004F0F7F80121204603F0DF
:10888000AFFE14374123A4F81690A4F81490278261
:1088900063820A224FF47A71204695FBF1F104F0CD
:1088A00034FBB8F17E0F03DD6C49204604F0F9FA81
:1088B0006B49694804F0F5FA644800F040FF04F0A1
:1088C000F9FD0023CAF80000337002E7054665E7AA
:1088D0005848FDF7D4FD00289FD1FAE6614C514E6F
:1088E000514FFFF749FB237B002B42D1357823788A
:1088F0001BB104F0DFFD022538603378042B05D16D
:10890000594B3A681B689A4238BF0425237B4BB108
:1089100023783BB104F0CEFD534B00F59C5008305A
:108920001860042504F0C6FD3B68C01A41F2883384
:10893000984288BF01253378AB420AD0022D1DD161
:108940004A484FF4FC61FFF7BDF9494800F04AFF7F
:1089500035703378032B53D0042B00F09D80022B0D
:108960007FF4B7AE94ED0B0A414801F003F8236B96
:108970004CE004F09FFD03253860B8E7032D03D1D8
:108980004FF4FC613B48DEE7042D23D14FF47841DE
:1089900039483A4FFFF796F900216423CDE90031B9
:1089A0001B2280232C4803F0BDFF354B35494FF483
:1089B000A0723A601A603C20226B00910821FFF7F8
:1089C000C7F8314BA26A009308213B465F20FFF7AE
:1089D000BFF8BDE7012DBBD1254800F003FF337878
:1089E000022B04D14FF6E0712848FFF76BF933787A
:1089F000032BADD14FF6E0712548FFF763F9A7E7E8
:108A000094ED090A1A4800F0B5FFA36A00934FF6E7
:108A1000E072204B32210020FDF74EFF59E600BFE7
:108A2000904700207449002078490020D04600205B
:108A30007A3303004C4600208C450020833303002A
:108A40006C490020754900208C3303008C4A0020BB
:108A500088300300E43600205C4D00209233030090
:108A600094330300644E00207049002098330300C3
:108A7000B84D00209D330300A23303005C49002061
:108A8000584900200C33030015330300AA330300B8
:108A9000B433030089340300184B226B0093082180
:108AA000174B3C20FFF754F8164BA26A009308219D
:108AB000154B5F20FFF74CF80BE605B0BDEC028BC1
:108AC000BDE8F04FFFF7CCBA104C04F0F3FC23687C
:108AD000C01A40F2EE2398427FF6FBAD012113202D
:108AE00006F01EFB0A2004F0FDFC0021132006F016
:108AF00017FB04F0DFFC2060EBE500BF0C33030044
:108B000058490020153303005C49002068490020C3
:108B100010B50E4C0021204603F0C9FA0C4B23611E
:108B20002046032103F05CFD6FF0F82309496361DF
:108B3000204604F0B6F94FF4FA6004F0D3FC0021AB
:108B40000B20BDE8104006F0EBBA00BF5C4D0020E2
:108B500019003200CE3203002DE9F04F2DED028BCB
:108B60008FB0DFF87093059004F0A4FCD9F80030C2
:108B7000BF4DC31A41F288320026934204468DF855
:108B800018608DF828602E704DDDDFF84C83B94FEA
:108B9000D8F8000097ED008A201A07EE900AF8EE48
:108BA000E77AB8EEC88A17EE900A06F0C3FFAEA3C4
:108BB000D3E9002307F016F807F04EFA07EE900A03
:108BC000C8EE277A0DF1180A0DF1280B17EE900A5E
:108BD00006F0B0FF524641EC100B3146052004F080
:108BE00051FCA54B186806F0A5FF5A4641EC100B46
:108BF0000221052004F046FC3B68A04A0093402176
:108C00002346CDE901AB284608F0B6F929469C4831
:108C1000FDF740FD04F04EFCC9F8000004F04AFCEA
:108C20003E60C8F8000000232B70059B032B00F268
:108C30001281DFE813F00400010153015301914E4A
:108C4000306B06F077FF06AD41EC100B2A4602218F
:108C5000052004F017FCF06B06F06CFF0AAF41EC46
:108C6000100B3A460221052004F00CFCCDE9015717
:108C70003388854A0093402123467D4808F07CF9DB
:108C8000706B06F057FF2A4641EC100B02210520BD
:108C900004F0F8FB306C06F04DFF3A4641EC100B47
:108CA0000221052004F0EEFB40222946704808F01E
:108CB000F5F976496E4808F0B3F9402239466C4818
:108CC00008F0ECF9B06B06F035FF2A4641EC100BCA
:108CD0000221052004F0D6FB706C06F02BFF3A460B
:108CE00041EC100B0221052004F0CCFB68496048E0
:108CF00008F096F9402229465D4808F0CFF963490B
:108D00005B4808F08DF93946402259485C4F08F01D
:108D1000C5F96049564808F083F997F8623033B1D5
:108D200053493846FDF7B6FC384604F032F933882B
:108D30000093594A4E482346402108F01DF97368B4
:108D4000564A1021284608F017F94022294648487B
:108D500008F0A4F9B368524A1021284608F00CF92B
:108D600040222946424808F099F9F3684D4A1021FB
:108D7000284608F001F9402229463D4808F08EF9BE
:108D80003369494A1021284608F0F6F8402229465E
:108D9000374808F083F97369444A1021284608F0DF
:108DA000EBF840222946324808F078F9B369404A86
:108DB0001021284608F0E0F8402229462C4808F007
:108DC0006DF9F3693B4A1021284608F0D5F8402296
:108DD0002946274808F062F9336A374A10212846A5
:108DE00008F0CAF840222946214808F057F9736A6A
:108DF000324A1021284608F0BFF8402229461C4874
:108E000008F04CF92E4B1A688AB12E4B10211B68C2
:108E1000B3FBF2F328464FF47A72B3FBF2F32A4A1B
:108E200008F0AAF840222946114808F037F91949F4
:108E30000F4808F0F5F80EE0244B1A785968187BB3
:108E40001B69CDE90021CDE90203214A08482346E8
:108E5000402108F091F806490948FDF71BFC0FB0C6
:108E6000BDEC028BBDE8F08FFCA9F1D24D62503F02
:108E7000544C0020504C0020683400206C34030017
:108E8000585F0020C84900208A3403009D34030045
:108E90009F34030087340300A3340300AD34030080
:108EA000B4340300BB340300C2340300C9340300EC
:108EB000D0340300D7340300DE340300E53403006C
:108EC000A84D0020B44D0020EC340300644E002077
:108ED000F834030090490020944900202346134CA5
:108EE000134A1448402108F047F8E06A06F022FED1
:108EF00006AA41EC100B0221052004F0C3FA606AB7
:108F000006F018FE0AAA41EC100B0221052004F01D
:108F1000B9FA402206A9074808F0C0F806490548F2
:108F200008F07EF840220AA97EE700BF644E0020C8
:108F300012350300544C00201B35030070B5354C2E
:108F400023789AB023B9344802F0D2FD012323706C
:108F500001223249324800F03EFF002851D0002162
:108F60002F481AAD00F0D8FE0B232E492E4805F8E5
:108F7000643D03F0A3FF0124601EFEF7C5FB064617
:108F8000FDF7F5F905EB440303F8010C3046FDF756
:108F9000EEF9001205F8140001340C2CECD1172264
:108FA00029461F4800F01EFE04461D4800F0F7FE4B
:108FB000172C21D01D491C4803F073FF0A221721EA
:108FC000194803F0C4FF1A49174803F06AFF0A2240
:108FD0002146154803F0BDFF1649174803F061FF0D
:108FE0000A222146144803F0B4FF0A2217210E4832
:108FF00003F0AFFF1AB070BD10490B4803F051FFEA
:10900000F3E70F49084803F059FF0E490A4803F0F7
:1090100055FFEFE7A04B0020044F0020253203004E
:109020003C4B0020BE330300585F0020D5330300C3
:10903000FC330300063403005C4D00201A340300A7
:1090400039340300593403002DE9F04F89B0FEF79D
:1090500069FCFDF741FDAE4C4FF0000A5046FEF7AB
:1090600053FB0025802381462A46CDE90035294659
:10907000204603F057FC0221204603F0B1FAA54B2D
:10908000A54E01271F602946102006F049F899F8DF
:1090900036313A460F21072006F074F83946102081
:1090A00006F03EF899F833318DF818302D238DF8FD
:1090B000193099F834318DF81A30984A984B8DF858
:1090C0001B50BAF1080FC8BF1A460323039202933C
:1090D00000218F4802F0EBFF40F2FF754FF00213C2
:1090E00090498B48C4E9043503F0E8FE1F23039937
:1090F0008748636103F0D5FE06A9854803F0DEFECC
:1091000089498348656103F0D9FE1B2006F01AF8EF
:109110000028FAD0B9F83031C6F81035376004F0BD
:10912000D5F90025814A04904FF04008AB46804BAA
:10913000C6F82C360823C6F830364FF48670FDF793
:1091400047FA4FF48270FDF743FA3760136833B97A
:10915000784B1F60D6F80034002BFBD1F6E7D6F829
:109160002CC60023D6F8341689B2994205EB0300C9
:1091700004DD3CF9131001338B44F3E7B8F1010827
:109180000546D4D104F0A2F96B4905906B4803F071
:1091900088FE0A222946694803F0D9FE68496748D3
:1091A00003F07FFEDDE904130A22591A634803F035
:1091B000ACFE6449614803F081FE9BFBF5F5624912
:1091C000204603F06EFEB5F57A7F54DA4FF4FC6367
:1091D0000A2229462046636103F0BBFE5B49204614
:1091E00003F06CFE29464846FDF7BEF80AF1010A75
:1091F00040F2DC5004F076F9BAF10B0F7FF42EAF99
:109200008023009341464248CDF80480424603F053
:1092100089FB4FF002134E493D48236103F04EFE97
:109220001B2005F08FFF0028FAD004F043F9494EC7
:10923000424FDFF8DC8005461B2005F083FF012844
:1092400041D104F037F940F2DC53401B98420ED96B
:109250004FF4784331463846636103F02FFE3146C0
:10926000404603F02BFE41F2883004F03BF96420C5
:1092700004F038F9E0E74FF478430A222946204603
:10928000636103F066FE3449204603F017FE40F2A6
:10929000EE2004F027F9029B013B13F0FF03029339
:1092A0007FF416AF2D491A4803F008FE2C491848E0
:1092B00003F004FE4FF4FA6004F014F9FEF744FAE8
:1092C00009B0BDE8F08F04F0F5F840F2DB53401B25
:1092D000984213D8FFF732FE4FF4FC632149174838
:1092E000636103F0EBFD2049094803F0E7FD41F21B
:1092F000883004F0F7F8FEF715FBE1E71B490F484B
:1093000003F0DCFDFEF720FA4FF4FA70F1E700BF3E
:109310005C4D002008700040007000405231030096
:1093200059310300613103006C31030004710040C6
:10933000D23600200470004076310300585F0020D0
:109340008031030084310300873103008E31030034
:10935000B0310300CF310300973103009E31030089
:10936000A5310300DA310300E0310300EB310300E3
:109370002DE9F04104F09EF804461B2005F0E2FEC2
:10938000314D071C2B7818BF0127BB4225D02F4B2E
:10939000DFF8CC801C60E8B9D8F80030E31A0F2B56
:1093A00018DD2B4E3268A21AB2F5FA7F12DD294978
:1093B000294803F083FD294B1B78042B07D8DFE8ED
:1093C00003F003342F3134000020FEF71FFA04F0BD
:1093D00071F83060C8F800402F702E788EB3204BA3
:1093E0001A68A41A40F2DC5294421C4629DD1D483A
:1093F0001D4FFDF74BFA00251B2005F0A3FE0128A9
:1094000016D1642004F06EF804F054F82368C01AF2
:10941000B0F57A6FF0D93846FDF738FA3546EBE704
:109420000120D2E7FDF7A4FED1E7FEF77BFACEE7F5
:109430001DB1BDE8F041FFF707BEBDE8F041FFF701
:1094400067BBBDE8F08100BF7E490020584D002079
:1094500084490020F4310300585F0020413400208B
:1094600080490020033203000D32030070B504F080
:1094700021F86E4C0546FFF77BFF2378042B42D87A
:10948000DFE803F0037961617C0069480023012271
:109490004FF4A27606FB0301013391F84410002932
:1094A00008BF0022092BF5D16AB3FDF737FC04F0A1
:1094B0000DF8604B604A18601B6812689B1A5F4A7F
:1094C00013605F4B93F82A30EBB15E4E3368EB1AB2
:1094D000C82B18DD5C4B1B68EB1AB3F5FA6F12DD75
:1094E000FDF7DEFF40B15949594803F0E7FC002081
:1094F000BDE87040FEF78AB9FDF75EFEFDF7C8FAD9
:1095000003F0D8FF3060504E52493268AA1A8A429E
:1095100005DD51494E4803F0D1FCFFF7F9FA3368F5
:1095200044F62062EB1A934202DD2378042B2BD100
:109530002378042B42D1424B93F82A30002B6BD175
:10954000FEF7F0F93AE0FDF795FEFDF71BFF434B00
:1095500093F84030002BD6D03A4E3368EB1AC82B24
:10956000D1DDFDF729FE18B1BDE87040FEF7DAB98C
:10957000FDF796FFC2E7FDF7E7FFC4E7C82003F059
:10958000B1FFFEF70BFABEE723782BB92C4B93F80B
:109590002A300BB1FEF71AFA304E96F8403023B15C
:1095A0002378022B01D1FEF711FA2378012B05D184
:1095B000337B1BB933780BB9FEF708FA284E3368B2
:1095C00042F21072EB1A93420EDD0121112005F0D8
:1095D000A7FDFEF705F803F06DFF3060FEF700FF12
:1095E0000021112005F09CFD1E4E3368EB1AB3F5E7
:1095F000FA7F05DD2078FFF7AFFA03F05BFF3060FC
:10960000194E3368ED1A142D05DD2078FEF75CFF46
:1096100003F050FF306070BD104B93F8403003F002
:10962000FF00002BCAD1FEF7F1F8C7E74134002054
:10963000283A0020B04D0020A44D0020AC4D002061
:10964000C8490020C0490020584D00209632030030
:10965000585F0020E0930400B7320300644E0020FE
:10966000C4490020BC490020B8490020F0B5DDE91C
:10967000055607EE905A70EEC06AF8EEE77A0027BA
:1096800087EEA67A0260836032442B440761C0F8FB
:10969000A470C0E905564260C360C0F8A81080ED10
:1096A0000A0A80ED097A80ED080AC0ED070AF0BDCC
:1096B00000227F21C0E90021C0E902214FF07E5144
:1096C0004162002102618162C0F8A4207047F0B5B8
:1096D0009C4600F12C040026F6EE006A8E422BDA3E
:1096E000B2EC017AD0ED0A7A90ED096AC76877EE9C
:1096F000677AF0EE665AE7EE865A0434BDEEC77A12
:10970000FDEEE57A17EE905A002DACBF7D1B3D466D
:1097100044F8045C836884ED097A9D42B8BF44F83C
:10972000043C54F8043C9F42B8BF44F8047C5CF805
:109730002650E5640136D1E7C0F8A410F0BD70B53D
:1097400004460121D0F8A80002F04AFFD4F8A8305E
:109750006FF0F8225A6104F12C060025D4F8A420F9
:109760006368D4F8A800013A0C3BAA421BB20BDD97
:1097700056F8042B0382A2F1090343820A22716A7C
:1097800003F0E5FB0135E9E704EB8204E26A616D71
:10979000038203324282BDE870400A2203F0D7BB45
:1097A0002DE9F341044600F12C0600254FF6FF7722
:1097B000D4F8A430AB4212DDD4F8A8006368216865
:1097C00056F8042BD0F800C00097013B5B1ADCF878
:1097D00034801BB212B209B2C0470135E8E702B0CB
:1097E000BDE8F08173B50446D0F8A800B4F918308C
:1097F0000568B4F90820B4F9001000260196B4F900
:1098000014600096AD6BA8472046FFF7C9FF2046BD
:10981000FFF795FF2368236102B070BDD0ED0A7A8F
:1098200090ED097A30EE670AFEEE007AE7EE007AF4
:109830002DE9F74FFDEEE77AD0E9022317EE904AC3
:109840001C1B94424A49B8BF14460F689C42A8BFEB
:109850001C460646894601690068A742B6BFB8465D
:10986000A0462746814204BFA0462746D6F8A80056
:109870009045B8BF90469F42D0F800C0A8BF1F4691
:10988000002501339B1A0095DCF830A01BB212B200
:1098900009B2D04706F12C0BD6F8A4303169AB429F
:1098A0000DDDD6F8A8005BF8042B036812B2D3F8DC
:1098B00008A009B24FF6FF73D0470135ECE703F17A
:1098C000FF3A4546BAF1000F1BDD4FEA8A03F21852
:1098D0000AF1FF3AD26AAA42F4DC043B3344D3F8DB
:1098E0002CB0AB45EEDBD6F8A800B6F91010D0F8D6
:1098F00000E0B3F87C3047452AB22AD1DEF80850A0
:10990000A8473368B2693169C9F8004013449942E5
:109910001CDAB368D6F8A800013C9C42B8BF1C46CC
:1099200040F2FF750368009524B201311F6B224697
:10993000022309B2B847D6F8A80031690368009538
:1099400002311D6B2246022309B2A84703B0BDE8CD
:10995000F08FBB45A8BFBB46C5F1010505EB0B0C5D
:109960000093DEF830500FFA8CF3A8475D46A9E764
:10997000E04E002010B5026903689A422DED028B7B
:109980000446B0EE408A04D1FFF70AFF2046FFF7F5
:10999000D6FEB0EE480A2046FFF740FFBDEC028B32
:1099A00023692168A26901330A4493422361C8BF35
:1099B000216110BD38B50025057329B90B4B0C4A40
:1099C0000C48232106F0B2FB01600B4951F822201C
:1099D000027151F8233083719DF8103051F8233013
:1099E00043710223C371856038BD00BF1F3503007A
:1099F000933503002D350300F43E0300037B23B9A8
:109A000043738373036101230373704784B00DF1C3
:109A1000100C0CE90E009DF80810026800230129C3
:109A2000C2F80035039B12D00BD303290CD0C2F827
:109A30005435019BC2F824350123C2F8003504B027
:109A4000704743F00203F2E743F00403EFE743F00B
:109A50000603ECE710B5FFF7D1FF03688279C3F87E
:109A600008254279C3F80C250279C3F81025034B69
:109A7000BDE810400ECBFFF7C9BF00BFF84E002075
:109A800010B485B001AC84E80E0094E80E0005B077
:109A90005DF8044BFFF7BABF03680022C3F8002546
:109AA00070470368C3F81C15D3F80821002AFBD0BF
:109AB000D3F818050022C3F80821C0B2704700008F
:109AC00007B5094B09490A484FF080421A60002245
:109AD0009A6002221A710D2300930E220C23FFF7C5
:109AE00069FF03B05DF804FBF84E00200030004031
:109AF000E44E0020704710B5044605F094F8204667
:109B000010BD000038B5074B04460D4640F80C3B2D
:109B10004422002106F0D5FB0023A56023712046D6
:109B200038BD00BFD835030038B50479054654B9AF
:109B300001B18160A96831B105F10C0000F000FFAE
:109B400008B901242C71204638BD38B50379044684
:109B500000F10C0533B9A168284601F023FE38B1A5
:109B6000002038BD284600F02DFF0028F3D0F7E78D
:109B700023793BB1A168284600F0E2FEB0FA80F0FC
:109B80004009EEE70120ECE707B5027D8DF80710EC
:109B900042B9036801225B680DF10701984703B0E1
:109BA0005DF804FB0020FAE710B5044604F0E4FB7E
:109BB0000128204603D1BDE8104006F02DBBBDE8CA
:109BC000104003F096BC10B5044604F0D5FB012804
:109BD000204603D1BDE8104006F026BBBDE810408A
:109BE00003F096BC10B51346027D0AB1002010BDEB
:109BF00004690A46816904F10C0001F059F8002853
:109C0000F5DCF3E7037D2BB90369816903F10C00EF
:109C100001F06CBC7047000010B500224FF47A745C
:109C2000C0E90124044C04600161027580F8202021
:109C3000C0E9062210BD00BFE83503002DE9F04160
:109C40000446884615465AB1012A20D140F203162F
:109C50003820FFF7A9FFA06120B90020BDE8F081FE
:109C60000126F5E7276942460146334607F10C0015
:109C700001F0C8FE02460028EFD1012D05D1206970
:109C8000A16902230C3001F027FA0023237501207B
:109C9000E4E770B505462C200E46FFF785FF014628
:109CA000A86108B9002070BD286932460C3000F068
:109CB000C9FD0028F6D101242C75304607F0E6F9DD
:109CC0002044FFF771FF3146E86107F0C5F92046EF
:109CD000E9E710B41346027D42B904690A46816976
:109CE00004F10C005DF8044B01F093B900205DF81D
:109CF000044B704707B5037D23B14FF0FF3003B02D
:109D00005DF804FB01220DF10701FFF7E2FF0028D7
:109D1000F3DD9DF80700F2E710B5037D0A4643B96D
:109D20000469816904F10C0001F0D6F9C043C00F49
:109D300010BD0020FCE7037D2BB90369816903F1A5
:109D40000C0000F0B5BD0020704738B5037D044617
:109D500073B90368DB68984705462046FFF7EBFFB9
:109D6000014600B1411E2046FFF7D6FF284638BD08
:109D70004FF0FF35FAE7037D2BB90369816903F1E1
:109D80000C0000F097BD0020704738B50546FFF77E
:109D9000F2FF04462846FFF7CEFF201A38BD38B53B
:109DA0008169044679B10069257D0C3065B100F008
:109DB00072FDA069FFF707FFE0690025A56108B102
:109DC000FFF701FFE56138BD01F0E0FBA069FFF797
:109DD000FAFEA561F7E770B5836994B004460D46B5
:109DE00016460BB1FFF7DBFF206901AA29460C30AC
:109DF00000F06AFDE0B99DF80430112B05D1324620
:109E000029462046FFF71AFF03E029462046FFF7C0
:109E100040FF064670B12F21284607F068F920342C
:109E200000B1451C40222946204607F04BF902E0CC
:109E3000023003D00026304614B070BD012EF9D197
:109E4000DDE703681A6AC36AD31A1944B1FBF2F357
:109E500002FB1311036B8B4210B50BD94C09C26B7B
:109E6000012301F01F0103FA01F152F824300B43E2
:109E700042F82430002010BD0368013304D040684C
:109E8000431C5842584170470120704710B50B6879
:109E900004689C4209D040684A68904205D09442C8
:109EA00003D0181A18BF012010BD0020FCE703687A
:109EB0009B6A10B5044613B9C06903F029FB2368F7
:109EC000DB6A13B9A06A03F023FB23681B6B23B979
:109ED000E06BBDE8104003F01BBB10BD2DE9F74F50
:109EE000984603680C9C1B6A0E9D434583460F46AB
:109EF00091462AD8354B364A3648122106F016F9D3
:109F0000DBF80000B9F1000F23D0D9F800309845F4
:109F10001FD1D9F80410A1421BD8836901EB030AB1
:109F2000544516D2AAEB040AAA45D9F8083028BF2E
:109F3000AA46611A194452460D9806F09EF90D9BE7
:109F400053440D935444A5EB0A05002DD8D128465F
:109F500039E03A68436990450ED179688C420BD359
:109F600001EB030A544507D2AAEB040AAA4528BF0D
:109F7000AA46611ABB68DDE74168B4FBF3F203FB54
:109F800012428C46A2B99D4212D3B5FBF3FA03FBF1
:109F90001A5AA5EB0A0600960D9B224641466546D5
:109FA000A84780B90D9B33440D9334445546CCE704
:109FB000A21AC7F800807A600093BB6841466646E3
:109FC000B0470028C1D003B0BDE8F08F6D36030064
:109FD000003603008B3603001FB5069C0092CDE9C6
:109FE000013400220B4600F11401FFF777FF04B0A3
:109FF00010BD10B50C468269A068FF2106F061F91A
:10A000004FF0FF33236010BD8B6A10B5044601602A
:10A01000BBB1C3612368DA6AFAB1A262206804F1B5
:10A020002001FFF7E6FF4FF0FF3363612368586AB2
:10A03000C20619D02D4B2E4A40F613012D4806F0CA
:10A0400075F8486903F055FAE0610028E2D120462E
:10A05000FFF72DFF6FF00B0047E0986903F049FA16
:10A06000A0620028DAD1F2E720B9234B204A40F65B
:10A070001401E3E71B6B6BB1E3632268D2E90503CC
:10A08000B3FBF0F100FB113159B11C4B184A40F6FB
:10A090001F01D3E7C00803F02CFAE0630028ECD1DD
:10A0A000D5E7D269B2FBF3F003FB102020B1144BCB
:10A0B0000F4A4FF40261C1E74FF0FF31A2F10803EC
:10A0C000B1FBF3F30B44B3FA83F3C3F12003B2EB18
:10A0D000830F04D20B4B064A40F62401AEE7C4E9D5
:10A0E0000111C4E9030084F8400010BD8337030068
:10A0F000483603008B360300A1370300B93703004D
:10A10000E837030018380300F8B5C5690E68083D44
:10A110000F46B6FBF5F080B1013805F0EDFF841C69
:10A12000A6EB8404B4FBF5F4204605F0E5FF04FB40
:10A130001565A5EB80053D602046F8BD2DE9F04F83
:10A1400089B09B46DDE91237884608A9013B0646DF
:10A1500041F80C3D00689146FFF7D6FF0DF1180A53
:10A16000054659461498B847024610BB0DB305F092
:10A170000104C4F10204A300CDE901A300904A4602
:10A180005B4641463046FFF7A9FE024688B904F116
:10A19000FF3B934506DC08AB03EB8B0B2D1B5BF8F9
:10A1A00008BCDEE706991498B84701220028F0D0D1
:10A1B0000246104609B0BDE8F08F00002DE9F04FCF
:10A1C00089B0064689460592139F43B94FF0FF3286
:10A1D0003A60149A0020136009B0BDE8F08F08A916
:10A1E000013B41F8043D0068FFF78EFF12A90546C8
:10A1F0003068FFF789FF4FF0040A80460DF1140B19
:10A20000A845059B02D33B60129BE2E7A5EB08043F
:10A21000B4FA84F495FAA5F2B2FA82F2C4F11F04FA
:10A22000944228BF1446A2000092CDE901BA002250
:10A2300049463046FFF752FE059B0028CCD1012B42
:10A2400003D93268126A934206D9064B064A074878
:10A250004FF48F6105F06AFF012303FA04F42D1B0C
:10A26000CEE700BF0A3703001E3603008B3603001B
:10A270002DE9F04F87B0DDE9104506460F469046C0
:10A2800025444FF001090DF1170AA3EB040BAC4272
:10A2900001D1012011E00BEB04030093CDE901A9EA
:10A2A0004346002239463046FFF718FE28B914F815
:10A2B000013B9DF817209A42E9D007B0BDE8F08F26
:10A2C000F7B50C4609684B1C0646174621D00068B6
:10A2D000836900938568D4E90123A847054620B91E
:10A2E00037B921463068FFF784FE284603B0F0BD39
:10A2F00033689B690193A36800933946D4E900232E
:10A300003046FFF7B5FF002805DBEAD16FF03305D3
:10A31000EBE70025E9E70546E7E700002DE9F04F08
:10A32000994603681B6A85B04B45074688469346A5
:10A33000DDE90E56DDF840A032D83B4B3B4A9C216C
:10A340003B4805F0F3FED8F800304B452FD1D8F844
:10A350000400A8422BD83A6894690444AC4226D938
:10A36000641BD8F80830544528BF5446281A2246A2
:10A370003146184405F081FFAAEB040303933B68C0
:10A380009A692544B5FBF2F302FB135326442BB91B
:10A390005A4641463846FFF793FF28B9DDF80CA02E
:10A3A000BAF1000FCFD1504605B0BDE8F08F0133B0
:10A3B00003D0204B1D4AB721C2E738688269B5FB3C
:10A3C000F2F302FB135333BB524524D8BAFBF2F429
:10A3D00002FB14A3AAEB030ACDF800A00393836841
:10A3E0002A461C4649463346A0470028DCD1BBF12B
:10A3F000000F02D156445544D0E7CDE9006A2B4600
:10A400004A4659463846FFF733FF0028CCDBF1D1E6
:10A410006FF03300C8E7EB1AC8F80090C8F80430B2
:10A42000CDF80CA0BAE700BF6D3603000F3603006D
:10A430008B360300513603002DE9F04786B0054600
:10A440008946144600F11408D7184FF0010A0DF19F
:10A450001706A74203D1002006B0BDE8F08700949C
:10A46000CDE9016A4B46002241462846FFF736FDFA
:10A4700001340028F0D1012231460E9801F0CAFAC9
:10A48000E7E72DE9F04F8DB0136806930025536878
:10A49000079380460E462F460DF1180B08AC4FF07F
:10A4A000100A5BF82590CDF800A02346002249460B
:10A4B0004046FFF791FD68B110F1340F05D13DB171
:10A4C000002F14BF00206FF033000DB0BDE8F08FF7
:10A4D0000125E6E727B1F269089B9B1A002BEEDB0A
:10A4E000099B23F00043132BE9D9D8F80020D26947
:10A4F0009342E4D80CAB4FF0FF3243F81C2D2146B9
:10A5000018461022039301F085FA099A039B0093E1
:10A5100022F00042A2F11003494610224046FFF704
:10A520008BFF0028C8D1059B002BC8D10CAA85F051
:10A53000010302EB830306F11C0753F8183CC6F82D
:10A540000490C6E9023A94E80F0087E80F0001275B
:10A55000B5E72DE9F34106460C46154601F12407FF
:10A560004FF01008216AE26821F0004302F10C006C
:10A57000043B98421BD80C23009361682B1D304686
:10A58000FFF72AFDC0B96B79A979E2682A60043324
:10A590000B44E9790B441344E3606B79AA790433E3
:10A5A0001344EA791344A2691344A36104E0002927
:10A5B00005DB2A606FF0010002B0BDE8F0813A4689
:10A5C00021463046FFF75DFF0028F5D1A369C4F8A6
:10A5D0000C801433A361C5E770B5054692B0043012
:10A5E0000E46FFF749FC68BB0190012301AA07A9A9
:10A5F00028460293FFF745FF044618B910A8FFF755
:10A600003BFC10B1204612B070BD10AA07A9284625
:10A61000FFF737FF38B903AA07A92846FFF799FFC4
:10A6200018B1831CEAD00446ECE79DF91030002BEA
:10A63000F1DB0822314605A805F010FE0028EAD11A
:10A640000124DFE70024DDE72DE9F84314461D4629
:10A6500000220123C4E909230746884604F12406A1
:10A6600005F108093046FFF707FC08B100200DE0AE
:10A67000324621463846FFF704FF38B92A462146BC
:10A680003846FFF766FF18B1831CEBD0BDE8F883AE
:10A690002B7903F07003202BF0D141464846FFF799
:10A6A000F5FB0028EAD10120F0E7F7B505460430B4
:10A6B0000F461646FFF7E0FB10B1002003B0F0BDD7
:10A6C000009001236A46314628460193FFF7D9FEE0
:10A6D0000028F3D106F124042046FFF7CDFB002823
:10A6E000EBD139462046FFF7D1FB38B1224631463F
:10A6F0002846FFF7C6FE0028EED0DFE70120DDE7A1
:10A700002DE9F04F87B01E68049340F62203536092
:10A7100043689360DFF828B18368039107461446C5
:10A72000D3605946304606F0F6FC06EB0008824638
:10A730005946404606F098FC0128814608EB000582
:10A7400005D116F80A302E2B0AD12E46E9E7022849
:10A7500006D102463949404605F080FD0028F4D074
:10A760002E464FF0010A5946284606F0D4FC05440F
:10A770005946284606F078FC034690B102280CD1D1
:10A78000024605902D49284605F068FD059B20B935
:10A79000BAF1010A03D1AE1CC3E70AF1010A1D4454
:10A7A000E1E798F8000000283DD0049BC3F8008042
:10A7B0002379222B3FD104F108052A460399384614
:10A7C000FFF75FFE78BB07F1140A2246039938466B
:10A7D000FFF7BFFE38BB237903F07F03112B01D0B5
:10A7E000222BF2D1E3794B45EFD123686279043310
:10A7F0001344A279CDE900891344039A5146526863
:10A800003846FFF735FD00280DDBDED094F9043023
:10A81000002B86DA29463846FFF7DEFE002805D0F1
:10A8200001DB6FF0010007B0BDE8F08F237903F082
:10A830007F03237175E76FF01300F4E7AD31030078
:10A840003537030030B587B006AB054643F8142D05
:10A8500042684A6082688A6002AA0C46FFF750FF8D
:10A86000A0B99DF80C30222B12D104AA214628460B
:10A87000FFF707FE50B963682361A36863610E2385
:10A88000A3611023E3602B6923602C6107B030BD06
:10A890006FF01300FAE7036900F110021BB18B425D
:10A8A000186802D11060002070471A460346F5E789
:10A8B000086A7047CB6948699B0303D50B6A9842C5
:10A8C00038BF18467047000070B594B014AB1446FA
:10A8D00043F8441D05AA09A90646FFF711FF0546DE
:10A8E000B8B901464C22204605F0EBFC9DF8183023
:10A8F0002370112B04BF089B6360311D07A8FFF76D
:10A90000C5FA04F10803054630B90C49184606F0AB
:10A91000A3FB284614B070BD059A9DF819109DF848
:10A920001B00009004320A449DF81A1030460A4475
:10A930000A99FFF751FB0546EBE700BF35370300E7
:10A9400030B599B00546FFF75FFB044658BB2B684E
:10A9500068631B6AAB63C5E90B000290012302AA7E
:10A960000DA928460393FFF78CFD044600BB202366
:10A970000093102205AB0E992846FFF72DFB0446E5
:10A98000B0B9069B6B60079BAB6008220C490BA813
:10A9900005F064FC044648B90A9B1A0C012A0BD145
:10A9A0009BB2012B08D8204619B030BD6FF033049C
:10A9B0002846FFF77CFAF6E76FF01504F8E700BFCA
:10A9C0006438030008B5FFF772FA002008BD2DE9CE
:10A9D000F043064697B004300F469046FFF74CFA16
:10A9E000002840F082800123059006930599404697
:10A9F000B847044610BB06994046B8470446E8B934
:10AA000005AA0BA93046FFF73CFD0446B0B90C255A
:10AA1000139B0E9A23F0004302F10C01043B994270
:10AA200010D9149B059305A8159B0693FFF724FAEC
:10AA30000028DBD0F56806F1140975BB204617B075
:10AA4000BDE8F083009508AB0C993046FFF7C4FAD7
:10AA50000246002847D19DF821309DF8221004338A
:10AA60000B449DF823100B440E990B440E939DF854
:10AA7000203003F07003102BCAD10A9B002BC7D0E3
:10AA80000093CDE90178099B06F114013046FFF7E8
:10AA900055FB0028BCD00446D0E7EB69DA0312D49A
:10AAA000EB699B030DD52B6A5BB1CDE9017800936F
:10AAB0006B6A05F12C0249463046FFF73FFB002840
:10AAC000E9D12D68B9E76B69002BE9D0CDE90178B0
:10AAD00000932B6905F12C0249463046FFF72EFB07
:10AAE0000028DDD0D7E70446A8E70024A6E7000049
:10AAF000F8B52D4E04460D460127226BD4E90D13FF
:10AB000091421ED1002B4BD02068E16AD0F820C0C2
:10AB10000A44B2FBFCF10CFB1122E262426A9A4247
:10AB200094BF2263236300216163D208E06B05F0C8
:10AB3000C8FB224631462046FFF749FF0028DCD0FB
:10AB400025E0481C6063013BD4F83CC0A36348097E
:10AB500001F01F035CF8200007FA03F30342CDD194
:10AB6000E36A194423681A6AB1FBF2F302FB13117A
:10AB70002960256B0121636BAB420FD05A0903F0AA
:10AB80001F005CF8222001FA00F0104000D1F8BD4F
:10AB900001336363A36B013BA363ECE70020F6E79B
:10ABA0006FF01B00F3E700BF439E020073B50C4635
:10ABB00004310646FFF79CFF0546F0B904F1080191
:10ABC0003046FFF795FF0546B8B9042300930246C7
:10ABD00004F11C0361683046FFF7FEF910B110F173
:10ABE000340F0DD1E3690133E36114224FF0FF33D9
:10ABF000C4E90823A3621023E360284602B070BDB5
:10AC00000546FAE72DE9F04F044687B00E4600F1FD
:10AC1000140A05A92046FFF76BFF054648B92068CE
:10AC20000599C3689847054600283BD010F1340FBA
:10AC3000EFD0284607B0BDE8F08F0DF11307CDF82F
:10AC40000890CDE90087736A5A4651462046FFF7BF
:10AC500045F970B9CDE90179CDF80080059B5246E0
:10AC600004F120012046FFF759FB20B110F1340F09
:10AC7000CFD00546DDE708F10108B36A4345DCD8CB
:10AC80002368A16A9A69706B05F0F7FA236AF36288
:10AC9000636A336304F120012068FFF7AAF9059B7A
:10ACA0007362C6E7804606F12C0B4FF00109E4E71A
:10ACB0002DE9F04F8DB092460693CB6903F0030265
:10ACC000012A05460C4600F034815E0310D4E66983
:10ACD000320516D416F4003619D0DDF81880E36971
:10ACE000B8F1000F27D123F40023E361069A04E0B2
:10ACF00000F02AF902460028E9D010460DB0BDE860
:10AD0000F08F6269216A914238BF2262E2E7276AC6
:10AD100063699F42E1D92362236A9F42DDD90DF125
:10AD200022020123214628468DF82260FFF7C0FF4A
:10AD3000021EF1DAE1E79B0304F12C0621D52B6812
:10AD4000A26ADB699A424ED12B681B6AAB63D4E9D5
:10AD50000832CDE9092305F114090BA92846FFF7AC
:10AD6000C7FE024600BB0B99012903D92868036A74
:10AD7000994223D9704B714A40F28C41704805F0DA
:10AD8000D5F9236A002BDFD004F128020292013B9F
:10AD900004F12402019200933146D4E904232846A9
:10ADA000FFF70CFA024620B1E36943F40023E361A4
:10ADB000A3E731462868FFF71CF9C5E7C368984741
:10ADC000024630B112F1340FEED14FF0FF332B6257
:10ADD000C3E70A9B286843BB0B9A6262A362E369DC
:10ADE00043F40033E361A94659F8143BDF69A36AD1
:10ADF000FF1A474528BF4746A36A00934A46CDE954
:10AE000001A7636A31462846FFF788FA0246002800
:10AE100000F0828010F1340FC6D121462846FFF79A
:10AE2000F1FE02460028E7D0BEE70CA9013B41F83D
:10AE3000083D0592FFF768F929680A9BC969059AD8
:10AE400001338B420A9349D1013090FAA0F3B3FA4F
:10AE500083F3059303F1010B1746BB00079304230B
:10AE6000029309AB0193BB0000934A460B9B31460A
:10AE70002846FFF753FA099B02460028A2D10599FC
:10AE8000B9422FD1099B012B3AD82E4B2B4A40F2C5
:10AE9000D34173E70123CDE901730022CDF800B05F
:10AEA000099B49462846FFF719F8024600287FF417
:10AEB0007BAF0123CDE901734A46CDF800B00B9B6F
:10AEC00031462846FFF72AFA024600287FF47AAF77
:10AED0000BF1010B0A9B9B45DCD37DE793460DF1FB
:10AEE0002307F7E70421029109A90191079900912D
:10AEF00028464946FEF7F2FF02460028C2D053E733
:10AF00002A68126A9342C0D80137BB45A5D80B9B6B
:10AF100063624FEA8B0361E7236A3B442362A36ABF
:10AF20003B44A3622B681B6AAB63BA44A8EB0708D7
:10AF3000D5E66FF00802E0E6543703002B36030035
:10AF40008B3603000A370300CB695A032DE9F04121
:10AF500044BF23F48023CB610546C86944BF4FF04A
:10AF6000FF32CA6210F4003090B00C462BD00F6A4A
:10AF70002C22002102A805F1140805F0A2F923698A
:10AF8000069398E80700636907930123CDE9093721
:10AF900010AB03E907004FF0FF366E61226A636968
:10AFA0009A4213D304F12C06424631462846FFF755
:10AFB00087F910B310F1340F05D121462846FFF769
:10AFC00021FE0028F0D010B0BDE8F08101230DF182
:10AFD000070202A9284600F01CF80028F3DB012331
:10AFE0000DF1070221462846FFF762FE0028EADB42
:10AFF0006B690133D2D00D96CFE7636A2361236A70
:10B000006361E36923F4003343F48033C4E9073711
:10B01000D9E72DE9F04F9146CA691D4602F00303B6
:10B02000022B87B080460C4653D0920305D4266A83
:10B030006269964208D3002003E0FFF785FF0028ED
:10B04000F5D007B0BDE8F08F961BAE4228BF2E4664
:10B0500004F12803374604F12C0A059304F1240B6C
:10B060000FB93046EDE7E3695B0305D5D8F800304A
:10B07000A26ADB699A4210D1059BCDE901B3236A2C
:10B0800000935146D4E904234046FFF797F800287F
:10B09000D7D1E36943F48023E361D8F80020A36AA1
:10B0A000D5690093ED1ABD4228BF3D46CDE9019513
:10B0B000636A002251464046FEF710FF0028C0D1C7
:10B0C000236A2B442362A36A2B44A362A9447F1BF7
:10B0D000C6E76FF00800B4E770B50D4614461E468B
:10B0E000FFF732FF10B916B92C62286A70BD012E25
:10B0F00007D12A6A002C02DA63429A4205D314442B
:10B10000F2E7022EF1D16A69F4E76FF01500EDE77E
:10B110002DE9F041012500F1040880F84050A6B067
:10B1200006464046FEF7A8FE074600287ED10146A7
:10B130002C2205A805F0C5F84FF000432822394617
:10B1400010A80D9305F0BDF81A9533681B6A9F424D
:10B1500002D36FF033001BE019A8FEF78DFE002824
:10B1600064D119AA10A93046FFF78BF980B90D9B5D
:10B17000002B39DB4046FEF77FFE60B1199B0E9332
:10B180001A9B0F9300231A4605A9304600F050F889
:10B1900026B0BDE8F08101AB1BAA0EA93046FFF72F
:10B1A00053FA0028F4DBE9D0039A0E99049B0F9818
:10B1B0008A4203D1984217D00E92E2E78242FBD135
:10B1C0009942F8E79DF97030002B0DDA1DA9304641
:10B1D000FFF702FA0028DBDB1BD01BAA10A93046C0
:10B1E00000F05EFA0028D3D11BAA10A93046FFF761
:10B1F000B0F90028E6D0831CCAD110AD0FCD05AC44
:10B200000FC40FCD0FC495E80700013784E807008D
:10B210009BE79DF8703003F07F038DF870301BAA18
:10B22000034610A9304600F047F9DBE70020AFE7FE
:10B230002DE9F04F9FB00D460893CB690133CB61E8
:10B240000B1DD1E9011493460693C5E9014113464C
:10B25000089A06460BEB02179F420FD1CDE90B412E
:10B260000023079330686968C3689847044668B14B
:10B2700014F1340F00F0F280204607E1D8682A6A02
:10B2800002445868121A2A621033E5E70DF1780972
:10B290004FF0FF3349F83C3D05F11C0810224146B0
:10B2A000484606F1200A102700F0B4FB009422461D
:10B2B000CDE901876B6851463046FFF72FF8044609
:10B2C0000028D5D10590B846CDF824902AE0059BFA
:10B2D000089A934280F29E801B010BEB03095BF8F6
:10B2E0000330434540F09680D9E90212099800F0F6
:10B2F00091FBD9F80C300293D9F808300022CDE93F
:10B30000007351466B683046FFF708F80446002882
:10B31000AED1D9F804309844D9F80C301F44059BBD
:10B32000013305932B6A23F00043043BBB42CED884
:10B3300004230DF13C080293CDE900786B680022EC
:10B3400051463046FEF7EAFF0446002890D14FF000
:10B35000FF330246736151463046FEF7B1FF0446A3
:10B36000002885D1306803699847044600287FF497
:10B370007FAF1EAF4FF0FF3347F82C3D2B6A00978D
:10B3800023F000430246043B69683046FFF754F857
:10B39000044600287FF470AF139A0F9B9A425DD148
:10B3A000079B43B3341D2046FEF766FD002870D18D
:10B3B00043463A460BA93046FFF746F9002865DBBD
:10B3C00067D06B681193AB681293424600233946ED
:10B3D000304600F071F8002858D121460BA8FEF73E
:10B3E00055FD18B96B687360AB68B3603046FFF702
:10B3F0008FFE00284AD13469002C3FF43DAF0699F6
:10B40000201DFEF743FD18B96B686360AB68A3604D
:10B410002468F1E701230093424613AB0C993046B0
:10B42000FEF7DAFD044600287FF426AF012213A9B7
:10B43000099800F0EFFA0123029313ABCDE90073F2
:10B4400022466B6851463046FEF768FF04460028E6
:10B450007FF40EAF08F10108013763E74FF0FF33C7
:10B460003362002201230DA90BA8CDE90D23FEF7BD
:10B470000DFD10B96FF0330008E006993046FFF774
:10B4800037FB0123079300283FF4ECAE1FB0BDE863
:10B49000F08F3A460BA93046FFF707F90028F5DB95
:10B4A000A9D06B681C93AB681D9300231A463946DC
:10B4B0003046FFF7BDFE9CE770B5154688B055F8DD
:10B4C000044BD27900940C26002BCDE9052307927A
:10B4D000344414BF022301236A46CDE90165039673
:10B4E0000494FFF7A5FE08B070BD000070B592B0DF
:10B4F0000C460546FFF728FD014600283CD1E369CC
:10B5000003F41023B3F5803F36D1221D1046FEF719
:10B51000B3FC002830D107A92846FEF7B2FF014648
:10B5200050BB12AEE26806900C23CDE9040046F849
:10B530003C2D08990093284604ABFEF74DFD0146CB
:10B54000D0B99DF81030112B06D00D4B0D4A0E4886
:10B5500040F2136104F0EAFD2369059363690693E1
:10B5600007A9034632462846FFF7A6FF014618B949
:10B57000E36923F48033E361084612B070BD00BF75
:10B58000373703003A3603008B36030070B50546A3
:10B590000C46FFF7ABFFEB68064605F10C021BB14A
:10B5A000A34219680CD11160A3690BB11B682BB9B8
:10B5B0002B685B6B13B9606B01F0AAFF304670BD5E
:10B5C0001A460B46EBE72DE9F043804695B00E4650
:10B5D0001746994601F124047B79B979F879326AE2
:10B5E00004330B44D8F800100344C96913448B4258
:10B5F00015D8043A47F8042B00230C21CDE90C128E
:10B600000992CDE90A37CDE90E391090022309AA33
:10B6100031464046FFF70CFE15B0BDE8F083002A26
:10B6200036DB35460FCD09AC0FC40FCD0FC495E8FE
:10B63000070084E8070031464046FFF7B7FA0028C4
:10B64000EAD1129B7362139BB362336A3A46043B9E
:10B6500042F8043B03920C22CDE90130CDE90423EA
:10B66000FB790893CDE90609022301AA3146404639
:10B67000FFF7DEFD0028CFD1119B43F0004311936B
:10B6800073681293B36813930246034609A9C0E78F
:10B69000224631464046FEF7F4FE00289CD0BBE728
:10B6A0002DE9F0470B6A144623F0004263790D46FA
:10B6B000A17904330B44E1790B4414339A428CB0E2
:10B6C00006461DD101AA291DFEF7EFFFB0F10008C3
:10B6D00012DB099A002A13DA2B6A63F00043134045
:10B6E00009936B6A0A93AB6A0B9300231A4601A96C
:10B6F0003046FFF79DFD804640460CB0BDE8F08720
:10B70000236801936379A27904331344E2791344E3
:10B7100002930023CDE9033301AA012329463046D1
:10B72000FFF786FD80460028E6D1F76805F1040A98
:10B730004FF0FF39FFB936690435002EDCD02946B9
:10B74000301DFEF7A3FBA0B9F26823689A4210D916
:10B750006379A17904330B44E1790B44D31AF36084
:10B760006379A27904331344E2791344B269D31A9A
:10B77000B3613668E1E75146381DFEF787FB28B90B
:10B78000FA6823689A4203D1C7E901993F68D1E773
:10B79000FCD96379A17904330B44E1790B44D31AC2
:10B7A000FB60F3E7F0B5A7B00546FEF72DFC0446B5
:10B7B00000287FD12B685A6A0146D208E86B04F052
:10B7C00080FD2A68EC62D2E9083210A9C5E90D4370
:10B7D0009A4294BF2A632B632846FFF7E7F9044691
:10B7E000002864D11BA92846FFF7E0F90446002889
:10B7F0005DD1034602461BA92846FFF719FD044602
:10B80000002854D141F22E43ADF820300823ADF882
:10B8100022008DF823302B681C9ED9690B91274993
:10B820001B6A08680C9349681D9A6E604FF00113FB
:10B830000D930EAB03C3342318932023CDE9096283
:10B84000CDE919620DEB03061027AA600493CDE938
:10B85000056303AA012310A9284607970397FFF75A
:10B86000E7FC20B110F1340F02D004461FE00124A0
:10B870002023CDE90436069303AA012310A9284604
:10B880000397FFF7D5FC20B110F1340FEDD1002C58
:10B89000EBD000220123CDE9012310A901AA2846FB
:10B8A000FEF7EFFD044610B92B681B6AAB63284610
:10B8B000FEF7FDFA204627B0F0BD00BF6438030054
:10B8C0002DE9F0471F4692B003F00303012B064613
:10B8D0000C460192DDF8688011D101AB03AA07A9DB
:10B8E0003046FEF70DFF0546B0B99DF81030222B0B
:10B8F00000F08580B90534D56FF0100508E090F8A8
:10B900004030002BE9D1FFF703FC05460028E4D0C6
:10B91000284612B0BDE8F087821CF9D1DDF804900A
:10B920002F21484605F08BFB82460028F0D1FB050D
:10B93000EED540F611038DF812004846ADF81030F0
:10B9400005F0A4FB4FF0FF338DF81300CDE9053A65
:10B9500003AA4B4607A93046FFF735FE05460028E7
:10B96000D6D1089B6360099BA360039BE360059BA2
:10B9700023610022069BC4F8188078056361E761A3
:10B9800022621BD44FF0FF33E362B8F1000F1FD0E7
:10B99000D8F80030E3B163634FF0FF33E362E3694B
:10B9A00003F00303012B04D004F12C013068FEF7EF
:10B9B00020FBF36823600025F460A9E713B147F486
:10B9C0008037E7614FF0FF320023C4E90423D9E751
:10B9D00033685A6B32B1F36813B16FF00B0597E718
:10B9E0006263D9E7E26902F00302012A0CBF5869D9
:10B9F000986901F07EFD60630028CDD1EDE76FF01E
:10BA0000140585E713B500240094FFF759FF02B031
:10BA100010BD0000F0B50D4E0A44914200D1F0BDBA
:10BA2000076811F8013B83EA070505F00F0556F892
:10BA3000254084EA171484EA131303F00F0356F821
:10BA4000233083EA14140460E7E700BF7038030072
:10BA500010B5034B03600446FEF74CF8204610BDBA
:10BA6000B838030010B50446FFF7F2FF204603F094
:10BA7000DAF8204610BD08B500F064F9002008BDD2
:10BA800008B501F55A6102EBC110029A194600F09F
:10BA90005FF9002008BD08B501F55A6102EBC1113C
:10BAA0001846029A00F05CF9002008BD73B501F554
:10BAB0005A61CD010024FF26601901220DF1070112
:10BAC00001348DF8076000F043F9802CF4D1002098
:10BAD00002B070BD10B504490446FEF713F8034BDD
